S00B00005250362E7372656341
S11300000C942A000C94B5010C94CE010C94470076
S11300100C9447000C9447000C9447000C94470040
S11300200C9447000C9447000C9447000C94D9009E
S11300300C9447000C9447000C9447000C94470020
S11300400C9447000C9447000C9447000C949300C4
S11300500C94470011241FBECFE5D8E0DEBFCDBF0E
S113006010E0A0E6B0E0ECE4F5E102C005900D92EA
S1130070A636B107D9F720E0A6E6B0E001C01D928C
S1130080AA3DB207E1F70E9408060C94A40A0C9456
S1130090000011B890E290B995E496BF880F82B938
S11300A0089581B1803AD1F028F4803641F0803847
S11300B049F035C0883A21F1883B59F130C010929B
S11300C0A8002DC0E091A80081E08E0F8093A800C5
S11300D083B1F0E0E058FF4F808321C0E091C40079
S11300E0F091C5006091A80080E890E00995E0E8EF
S11300F0F0E084E990E01192E817F907E1F70FC006
S11301001092A800E091C200F091C300099583B950
S113011006C0E091C200F091C300099583B986B787
S1130120806886BF08951F920F920FB60F92112414
S11301302F933F934F935F936F937F938F939F93EB
S1130140AF93BF93EF93FF930E945100FF91EF9100
S1130150BF91AF919F918F917F916F915F914F91DB
S11301603F912F910F900FBE0F901F90189587B35A
S1130170836887BB84B3806784BB089583B7816039
S113018083BF83B7826083BF89B7816089BF12BE92
S11301901092BA001092BB001092BC001092BD00E5
S11301A01092BE001092BF001092C0001092C100C5
S11301B008951F920F920FB60F9211242F933F931D
S11301C04F935F936F937F938F939F93AF932091FC
S11301D0BA003091BB004091BC005091BD006091C9
S11301E0BE007091BF008091C0009091C100A1E059
S11301F00E94570A2093BA003093BB004093BC007E
S11302005093BD006093BE007093BF008093C00004
S11302109093C100AF919F918F917F916F915F9166
S11302204F913F912F910F900FBE0F901F901895F3
S1130230AF92BF92CF92DF92EF92FF920F931F93F0
S1130240A2B72091BA003091BB004091BC005091FC
S1130250BD006091BE007091BF008091C00090917C
S1130260C100E0E0FA2FFF0FFF0FFF0FFF2314F48C
S1130270E150FF4FEF2FEE0FEE0B0BE00E94350A1B
S1130280A22EB32EC42ED52EE62EF72E082F192F0C
S11302902F2F3E2F4E2F5E2F6E2F7E2F8E2F9E2FB1
S11302A00E944E0A1F910F91FF90EF90DF90CF9024
S11302B0BF90AF900895E9EAF0E0108281E0818375
S11302C012829EE1938328EB3BE03583248328E864
S11302D033E13783268340E45DE063E070E04087E8
S11302E0518762877387848716861586108A1786D6
S11302F0089581B3806381BB81B3837F81BB84B361
S11303008C6084BB08958FB580688FBD8FB5806283
S11303108FBD8FB582608FBD8EB580618EBD8EB569
S113032081608EBD8FEF99EF97BD86BD1BBC1ABC53
S113033019BC18BC0895E9EAF0E016861586108AFF
S1130340178685B7816085BF85B7846085BF8BB705
S113035080648BBF8BB780688BBF08950E9479013E
S11303600E9483010E949B0108951F920F920FB671
S11303700F9211248F939F93EF93FF93E9EAF0E098
S113038085859685019696878587FF91EF919F9144
S11303908F910F900FBE0F901F9018951F920F9280
S11303A00FB60F9211248F939F93EF93FF93E9EA73
S11303B0F0E0878590890196908B8787FF91EF9174
S11303C09F918F910F900FBE0F901F901895892BBE
S11303D039F08BB780648BBF8BB780688BBF08956F
S11303E08BB78F7B8BBF8BB78F778BBF08952F9283
S11303F03F924F925F926F927F928F929F92AF92B1
S1130400BF92CF92DF92EF92FF920F931F93CF93FD
S1130410DF93CDB7DEB76D970FB6F894DEBF0FBE8E
S1130420CDBF0E941801A0907800B0907900C090D0
S11304307A00D0907B00E0907C00F0907D000091E9
S11304407E0010917F000E946C0A08F4C6C30E94CB
S11304501801622E732E49875983B62FA72F082FB0
S1130460192FE9EAF0E080849184A284B384282DD2
S1130470392D4A2D5B2D60E070E080E090E0A62CE1
S1130480B72CC984D980EB2EFA2E0E944E0A298BF0
S11304903A8B4B8B5C8B6D8B7E8B8F8B988F2093E1
S11304A078003093790040937A0050937B006093F6
S11304B07C0070937D0080937E0090937F00408148
S11304C020E034E64203C001439F900D112464E60A
S11304D070E00E94CF08608346805780062E000C8F
S11304E0770B6415750510F41092A900E091AA0029
S11304F00E2E000CFF0B8091640090916500E817AC
S1130500F90741F120907000009171000C8F309038
S113051072006090730070907400809075009090E9
S11305207600109177001D8F222D302F432D562DEC
S1130530672D782D892D912FA0E00E94750A19F05E
S11305401092A90007C0F0936500E0936400109234
S1130550A90051C02090A900222D220F220B2C8F1C
S1130560322E622E732C832C932C2D8F309170009D
S11305703987409171004A87509172005B8760917E
S113058073006C87709174007D87809175008E87ED
S1130590909176009F87A0917700A88B222D332D10
S11305A0432D532F632F732F832F932DA984BA8444
S11305B0CB84DC84ED84FE840F851A2F0E94630AA9
S11305C02983398F4A8F5B8FA62EB72E082F192FB8
S11305D00E9425076B017C01A7019601C701B601A2
S11305E00E9407080E947A080E94F606603D774040
S11305F08105910598F4209270003C8D3093710030
S11306003092720060927300709274008092750050
S1130610909276004D8D409377001EC12981398DCB
S11306204A8D5B8D6A2D7B2D802F912FA0E00E9437
S1130630750A0CF075C05201C12CD12CE12CF12C9F
S1130640870129853A854B855C856D857E858F85F7
S113065098894982BA82CB82DC82ED82FE820F8342
S11306601887C12CD12CE12CF12C00E010E00E9461
S11306706C0A9CF4209270005C8D5093710030924F
S11306807200309273003092740030927500309290
S113069076006D8D60937700DFC02091AC00A98453
S11306A0BA84CB84DC84ED84FE840F85188930E021
S11306B040E050E060E070E080E090E00E940509D6
S11306C00F2EF4E6AF2EF02DB12CC12CD12CE12C41
S11306D0F12C00E010E00E946009A22EB32EC42E7B
S11306E0D52EE62EF72E082F192F29853A854B850E
S11306F05C856D857E858F8598890E94630A209329
S113070070003093710040937200509373006093B3
S113071074007093750080937600909377009CC06A
S1130720820120E030E040E050E0BA0149821A83BF
S11307302B833C834D835E836F83788729853A8539
S11307404B855C856D857E858F859889A42CB12E1B
S1130750C12CD12CE12CF12C00E010E00E946C0A99
S11307609CF40E944E0A20937000309371004093D1
S113077072005093730060937400709375008093BB
S113078076009093770068C02091AC00A984BA8465
S1130790CB84DC84ED84FE840F85188930E040E04E
S11307A050E060E070E080E090E00E9405090F2EC8
S11307B0F4E6AF2EF02DB12CC12CD12CE12CF12C70
S11307C000E010E00E946009A984BA84CB84DC8430
S11307D0ED84FE840F8518890E944E0A29873A8782
S11307E04B875C87B62FA72FF82FE92F222D3C8D3E
S11307F0432D532D632D732D832D9D8DA984BA8490
S1130800CB84DC84EB2EFA2E0F2F1E2F0E946C0A51
S11308108CF0A0927000B0927100C0927200D092DD
S11308207300B0937400A0937500F0937600E09386
S1130830770012C0209270004C8D4093710030926A
S113084072003092730030927400309275003092CE
S113085076005D8D509377008091640090916500DF
S11308609093630080936200909361008093600092
S1130870209170003091710040917200509173008A
S1130880609174007091750080917600909177006A
S1130890C22ED32EE42EF52E20936C0030936D00DF
S11308A040936E0050936F0020936800309369006A
S11308B040936A0050936B00E091AB000E2E000C45
S11308C0FF0BA0916600B0916700EA17FB0781F166
S11308D0F0936700E0936600EF2B29F481E090E049
S11308E00E94E70104C080E090E00E94E7012989AA
S11308F03A894B895C896D897E898F89988D2056C8
S113090039474E4F5F4F6F4F7F4F8F4F9F4F20930D
S113091078003093790040937A0050937B00609381
S11309207C0070937D0080937E0090937F00D5C0FF
S1130930EF3FAFEFFA0709F045C0A0E00E94750A47
S113094029F5109263001092620081E090E0909388
S11309506100809360008091AD009091AE00880F9B
S1130960991F840D951DA0E0B0E080936C009093D6
S11309706D00A0936E00B0936F0080936800909315
S11309806900A0936A00B0936B00A7C0C201A0E005
S1130990B0E080936C0090936D00A0936E00B093D0
S11309A06F008091AD009091AE00C80ED91EE11C7D
S11309B0F11CC0926800D0926900E0926A00F09243
S11309C06B008BC0309709F041C0E9EAF0E005857F
S11309D016851A8309830785108929813A8120178E
S11309E0310709F47AC0C701B6010E942B076B01D5
S11309F07C0169817A81601B710B80E090E00E9428
S1130A002B074B015C01A5019401C501B4010E94AF
S1130A1007080E947A089B01AC01C701B6010E9435
S1130A20070820E030E048EC52E40E948406A70165
S1130A3096010E9418060E94F6066093680070935F
S1130A40690080936A0090936B0047C0319709F066
S1130A5044C0A0E00E94750A29F581E090E09093DB
S1130A606300809362001092610010926000809194
S1130A70AD009091AE00880F991F840D951DA0E0E4
S1130A80B0E080936C0090936D00A0936E00B093DF
S1130A906F008093680090936900A0936A00B093FC
S1130AA06B001BC08091AD009091AE00C80ED91EA2
S1130AB0E11CF11CC0926C00D0926D00E0926E00BB
S1130AC0F0926F00C201A0E0B0E0809368009093C0
S1130AD06900A0936A00B0936B00C0906800D09046
S1130AE06900E0906A00F0906B00D701C601880F9E
S1130AF0991FAA1FBB1F8C0D9D1DAE1DBF1DAC01F0
S1130B00BD01440F551F661F771F440F551F661FF5
S1130B10771F8C019D01040F151F261F371FC90164
S1130B20B80124E630E040E050E00E94E308C20E41
S1130B30D31EE41EF51EC0926800D0926900E092B4
S1130B406A00F0926B0080916C0090916D00A0910E
S1130B506E00B0916F0081309446A105B10560F03C
S1130B6080E094E6A0E0B0E080936C0090936D0088
S1130B70A0936E00B0936F0021E3C21625E7D2065E
S1130B80E104F10460F080E395E7A0E0B0E0809335
S1130B90680090936900A0936A00B0936B00809101
S1130BA0620090916300892B11F0AA9801C0AA9A5F
S1130BB08091600090916100892B11F0AB9801C085
S1130BC0AB9A80916800909169009BBD8ABD809129
S1130BD06C0090916D0099BD88BD80E090E06D96A9
S1130BE00FB6F894DEBF0FBECDBFDF91CF911F913A
S1130BF00F91FF90EF90DF90CF90BF90AF909F90B8
S1130C008F907F906F905F904F903F902F900895BA
S1130C1078940E94BE000E94AE010E94B70088E052
S1130C200E9449000E945B010E94F701FDCF5058C9
S1130C30BB27AA270E942F060C94CD070E94BF074A
S1130C4038F00E94C60720F039F49F3F19F426F4C7
S1130C500C94AC070EF4E095E7FB0C94A607E92F7F
S1130C600E94DE0758F3BA176207730784079507D3
S1130C7020F079F4A6F50C9400080EF4E0950B2E00
S1130C80BA2FA02D0B01B90190010C01CA01A001DA
S1130C901124FF27591B99F0593F50F4503E68F135
S1130CA01A16F040A22F232F342F4427585FF3CF76
S1130CB0469537952795A795F0405395C9F77EF447
S1130CC01F16BA0B620B730B840BBAF09150A1F090
S1130CD0FF0FBB1F661F771F881FC2F70EC0BA0F16
S1130CE0621F731F841F48F4879577956795B7959E
S1130CF0F7959E3F08F0B0CF9395880F08F0992799
S1130D00EE0F9795879508950E9498060C94CD0749
S1130D100E94C60758F00E94BF0740F029F45F3FC5
S1130D2029F00C94A60751110C9401080C94AC07FB
S1130D300E94DE0768F39923B1F3552391F3951BC1
S1130D40550BBB27AA2762177307840738F09F5FE8
S1130D505F4F220F331F441FAA1FA9F335D00E2E55
S1130D603AF0E0E832D091505040E695001CCAF7C2
S1130D702BD0FE2F29D0660F771F881FBB1F261785
S1130D8037074807AB07B0E809F0BB0B802DBF015C
S1130D90FF2793585F4F3AF09E3F510578F00C942B
S1130DA0A6070C9401085F3FE4F3983ED4F38695BC
S1130DB077956795B795F7959F5FC9F7880F911D4C
S1130DC09695879597F90895E1E0660F771F881F38
S1130DD0BB1F621773078407BA0720F0621B730BEB
S1130DE0840BBA0BEE1F88F7E09508950E94E6077E
S1130DF088F09F5798F0B92F9927B751B0F0E1F0D8
S1130E00660F771F881F991F1AF0BA95C9F714C087
S1130E10B13091F00E940008B1E008950C940008EC
S1130E20672F782F8827B85F39F0B93FCCF38695C0
S1130E3077956795B395D9F73EF49095809570951D
S1130E4061957F4F8F4F9F4F089597FB16F40E9433
S1130E50AF070C946907E89409C097FB3EF490959A
S1130E608095709561957F4F8F4F9F4F9923A9F07F
S1130E70F92F96E9BB279395F6958795779567950E
S1130E80B795F111F8CFFAF4BB0F11F460FF1BC052
S1130E906F5F7F4F8F4F9F4F16C0882311F096E9E5
S1130EA011C0772321F09EE8872F762F05C0662393
S1130EB071F096E8862F70E060E02AF09A95660F4C
S1130EC0771F881FDAF7880F9695879597F9089505
S1130ED0E894F92F96EBFF2381F0121613061406FB
S1130EE0440B9395F695879577956795579540406C
S1130EF0FF23B9F71BC099270895882351F498500C
S1130F00D2F7872B762F652F542F432F322F20E0D3
S1130F10B1F3121613061406440B88233AF09A957B
S1130F20440F551F661F771F881FCAF755234AF4BD
S1130F30440F551F11F460FF04C06F5F7F4F8F4F44
S1130F409F4F880F9695879597F9089597F99F670E
S1130F5080E870E060E008959FEF80EC089590953C
S1130F6080957095609550954095309521953F4FAB
S1130F704F4F5F4F6F4F7F4F8F4F9F4F0895002408
S1130F800A941616170618060906089500240A94EA
S1130F9012161306140605060895092E0394000C70
S1130FA011F4882352F0BB0F40F4BF2B11F460FFFF
S1130FB004C06F5F7F4F8F4F9F4F089557FD905828
S1130FC0440F551F59F05F3F71F04795880F97FB09
S1130FD0991F61F09F3F79F08795089512161306C3
S1130FE01406551FF2CF4695F1DF08C016161706F2
S1130FF01806991FF1CF8695710561050894089527
S1131000E894BB2766277727CB0197F908950E94B8
S11310101A080C94CD070E94BF0738F00E94C60737
S113102020F0952311F00C94A6070C94AC0711241E
S11310300C9401080E94DE0770F3959FC1F3950F8D
S113104050E0551F629FF001729FBB27F00DB11D48
S1131050639FAA27F00DB11DAA1F649F6627B00DD8
S1131060A11D661F829F2227B00DA11D621F739FC1
S1131070B00DA11D621F839FA00D611D221F749FCF
S11310803327A00D611D231F849F600D211D822F16
S1131090762F6A2F11249F5750409AF0F1F088233D
S11310A04AF0EE0FFF1FBB1F661F771F881F91506A
S11310B05040A9F79E3F510580F00C94A6070C946C
S11310C001085F3FE4F3983ED4F3869577956795DE
S11310D0B795F795E7959F5FC1F7FE2B880F911D94
S11310E09695879597F9089519F416F40C94AC071E
S11310F00C94BA080E94E607B8F39923C9F3B6F32F
S11311009F57550B87FF0E94C8080024A0E640EAB9
S1131110900180585695979528F4805C660F771F48
S1131120881F20F026173707480730F4621B730B1B
S1131130840B202931294A2BA6951794079420253E
S113114031254A2758F7660F771F881F20F0261786
S11311503707480730F4620B730B840B200D311DE5
S1131160411DA09581F7B901842F9158880F969558
S1131170879508959F3F31F0915020F48795779596
S11311806795B795880F911D9695879597F908955A
S113119091505040660F771F881FD2F7089597FB30
S11311A0072E16F4009407D077FD09D00E94810A17
S11311B007FC05D03EF4909581959F4F0895709556
S11311C061957F4F0895A1E21A2EAA1BBB1BFD0156
S11311D00DC0AA1FBB1FEE1FFF1FA217B307E40712
S11311E0F50720F0A21BB30BE40BF50B661F771F6A
S11311F0881F991F1A9469F760957095809590954A
S11312009B01AC01BD01CF010895DF93CF931F93E0
S11312100F939A9DF02D219FF00D8B9DF00D8A9DCB
S1131220E02DF10D039FF00D029FE00DF11D4E9D89
S1131230E00DF11D5E9DF00D4F9DF00D7F936F93BA
S1131240BF92AF925F934F93D5010E94950A8B0191
S1131250AC01D7010E94950AEB01E80FF91FD601F2
S11312600E9455092F913F91D6010E94950AC60FFD
S1131270D71FE81FF91FAF91BF910E9455092F9105
S11312803F910E94950AC60FD71FE81FF91FD60188
S11312900E94950AE60FF71F9801BE01CF011124A1
S11312A00F911F91CF91DF9108950E94950A460FE7
S11312B0571FC81FD91F08F431960895689401C0B8
S11312C0E894F92FF12B12F00C949209A0E0B0E00D
S11312D0ECE6F9E00C94040A092E059422F40E9429
S11312E0EE09112392F4F0E80F26FFEFE094F09456
S11312F000951095B094C094D094A194BF0ACF0ADD
S1131300DF0AEF0AFF0A0F0B1F0B0E949D0907FC5F
S11313100E94EE09CDB7DEB7ECE00C94200A689485
S113132001C0E8948F929F92CF93DF930E949D090E
S1131330DF91CF919F908F90089588249924F40190
S1131340E401B0E49F93AA279A158B049C04ED054D
S1131350FE05CF05D007A10798F4AD2FDC2FCF2FC2
S1131360FE2FE92D982C892E982F872F762F652F05
S1131370542F432F322F2227B85031F7BF9127C063
S11313801B2EBF91BB27220F331F441F551F661FFF
S1131390771F881F991F881C991CEE1FFF1FCC1FE5
S11313A0DD1FAA1FBB1F8A149B04EC05FD05CE0597
S11313B0DF05A007B10748F08A189B08EC09FD096E
S11313C0CE09DF09A00BB10B21601A94E1F62EF4CB
S11313D09401AF01BE01CD01000C08956095709594
S11313E08095909530954095509521953F4F4F4F5E
S11313F05F4F6F4F7F4F8F4F9F4F08952F923F92B4
S11314004F925F926F927F928F929F92AF92BF9210
S1131410CF92DF92EF92FF920F931F93CF93DF93BC
S1131420CDB7DEB7CA1BDB0B0FB6F894DEBF0FBE19
S1131430CDBF09942A88398848885F846E847D8466
S11314408C849B84AA84B984C884DF80EE80FD8068
S11314500C811B81AA81B981CE0FD11D0FB6F894DE
S1131460DEBF0FBECDBFED0108950F93083090F09D
S1131470982F872F762F652F542F432F322F222713
S11314800850F4CF220F331F441F551F661F771FC8
S1131490881F991F0A95B2F70F9108952A0D3B1DD5
S11314A04C1D5D1D6E1D7F1D801F911F089500241E
S11314B0A7FD00942A0F301D401D501D601D701D96
S11314C0801D901D08952A193B094C095D096E0978
S11314D07F09800B910B08952A153B054C055D058A
S11314E06E057F058007910708950024A7FD0094E9
S11314F02A173005400550056005700580059005E4
S11315000895AA1BBB1B51E107C0AA1FBB1FA61746
S1131510B70710F0A61BB70B881F991F5A95A9F798
S113152080959095BC01CD010895A29FB001B39F11
S1131530C001A39F700D811D1124911DB29F700DD8
S10F1540811D1124911D0895F894FFCF23
S109154C01000100010092
S9030000FC
