S00B00005250362E7372656341
S11300000C942A000C9470020C9498020C944700EF
S11300100C9447000C9447000C9447000C94470040
S11300200C9447000C9447000C9447000C946B000C
S11300300C9447000C9447000C9447000C94470020
S11300400C9447000C9447000C9447000C94D30183
S11300500C94470011241FBECFE5D8E0DEBFCDBF0E
S113006010E0A0E6B0E0EAE3F7E102C005900D92EB
S1130070A636B107D9F720E0A6E6B0E001C01D928C
S1130080AF3CB207E1F70E942D080C949B0B0C9433
S1130090000087B3836887BB84B3806784BB0895FB
S11300A083B7816083BF83B7826083BF89B7816070
S11300B089BF12BE1092B3001092B4001092B50022
S11300C01092B6001092B7001092B8001092B900C6
S11300D01092BA0008951F920F920FB60F92112436
S11300E02F933F934F935F936F937F938F939F933C
S11300F0AF932091B3003091B4004091B50050917A
S1130100B6006091B7007091B8008091B9009091E9
S1130110BA00A1E00E94620B2093B3003093B400B4
S11301204093B5005093B6006093B7007093B80045
S11301308093B9009093BA00AF919F918F917F9172
S11301406F915F914F913F912F910F900FBE0F9040
S11301501F901895AF92BF92CF92DF92EF92FF92C9
S11301600F931F93A2B72091B3003091B400409134
S1130170B5005091B6006091B7007091B8008091BD
S1130180B9009091BA00E0E0FA2FFF0FFF0FFF0FC4
S1130190FF2314F4E150FF4FEF2FEE0FEE0B0BE0B3
S11301A00E94400BA22EB32EC42ED52EE62EF72E7F
S11301B0082F192F2F2F3E2F4E2F5E2F6E2F7E2F9D
S11301C08E2F9E2F0E94590B1F910F91FF90EF903D
S11301D0DF90CF90BF90AF90089585E486BF11B8AB
S11301E086E082B980E280B984B3836084BB85B33E
S11301F0836085BB0895E0EAF0E0108211821282E8
S1130200138281E08483158220ED37E037832683CF
S113021024EC39E03187208728E53BE133872287C6
S113022048EC50E060E070E0448755876687778744
S1130230808B0895E2E8F0E011821082138212822A
S11302400895EBEBF0E08FEC90E01192E817F907DA
S1130250E1F70895ECE8F0E080EA90E01192E81705
S1130260F907E1F70895CF93DF9320918E002130B1
S113027049F41092A0001092A1001092A2001092D2
S1130280A30012C080918D0090E0A0E0B0E08093C4
S1130290A0009093A100A093A200B093A300211109
S11302A003C01092A40003C081E08093A400C0EABC
S11302B0D0E0ECE8F0E0838181508D83848190E08C
S11302C0982F88272581820F911D9F838E83868195
S11302D090E0982F88272781820F911D998788871E
S11302E0808590E0982F88272185820F911D9B8718
S11302F08A87828590E0982F88272385820F911D15
S1130300092E000CAA0BBB0B8C879D87AE87BF8779
S11303108485888B858590E0982F88272685820F91
S1130320911D9A8B898BDF91CF91089580918C00D8
S1130330813011F40E94330108950E942101EBEBF6
S1130340F0E081E08083A2E8B0E08C9111969C916A
S113035011979183828312968C91129713969C9194
S113036013979383848314968C91149715969C9178
S113037015979583868316968C91169717969C915C
S113038017979783808718968C91189719969C9144
S113039091878287E6ECF0E08FEC90E01192E81709
S11303A0F907E1F708951F920F920FB60F921124E7
S11303B02F933F934F935F936F937F938F939F9369
S11303C0AF93BF93EF93FF9381B1803A21F128F467
S11303D0803641F0803869F039C0883AF9F0883BBA
S11303E039F134C00E942A011092810010928000D9
S11303F02DC080918000909181008431910534F565
S113040023B1FC01E457FF4F2083019690938100B0
S1130410809380001BC00E94960118C00E949D0119
S113042010928100109280008091BB0083B90EC0AD
S11304308091800090918100019690938100809337
S11304408000FC01E554FF4F808183B986B7806842
S113045086BFFF91EF91BF91AF919F918F917F9153
S11304606F915F914F913F912F910F900FBE0F901D
S11304701F90189581B3806381BB81B3837F81BB57
S113048084B38C6084BB08958FB580688FBD8FB5AD
S113049080628FBD8FB582608FBD8EB580618EBD49
S11304A08EB581608EBD8FEF99EF97BD86BD1BBC65
S11304B01ABC19BC18BC089585B7816085BF85B77F
S11304C0846085BF8BB780648BBF8BB780688BBF1C
S11304D008950E943A020E9444020E945C02089518
S11304E01F920F920FB60F9211242F933F938F9365
S11304F09F93EF93FF93E2E8F0E08081918101966E
S1130500918380832FEF39E582E692E021503040D9
S113051080409040D9F700C00000FF91EF919F9177
S11305208F913F912F910F900FBE0F901F901895B0
S11305301F920F920FB60F9211242F933F938F9314
S11305409F93EF93FF93E2E8F0E082819381019619
S1130550938382832FEF39E582E692E02150304085
S113056080409040D9F700C00000FF91EF919F9127
S11305708F913F912F910F900FBE0F901F90189560
S1130580892B39F08BB780648BBF8BB780688BBFA6
S113059008958BB78F7B8BBF8BB78F778BBF0895F5
S11305A02F923F924F925F926F927F928F929F927F
S11305B0AF92BF92CF92DF92EF92FF920F931F936D
S11305C0CF93DF93CDB7DEB7A4970FB6F894DEBF11
S11305D00FBECDBF49AC5AAC6BAC7CAC9DACAEACE1
S11305E0A9862196CEACDFAC2197DB86CA862396FA
S11305F0EEACFFAC2397FCA2EBA225962EAC3FAC4D
S113060025970E94AA00A0907800B0907900C0902D
S11306107A00D0907B00E0907C00F0907D00009107
S11306207E0010917F000E94770B08F4FBC40E94A7
S1130630AA002C8B3D8B4E8B5F8B688F798F8A8FB2
S11306409B8F205C324F4C4F5F4F6F4F7F4F8F4FCC
S11306509F4F209378003093790040937A00509311
S11306607B0060937C0070937D0080937E00909368
S11306707F00A0E0B4E6A30192010E94350B24E6BA
S113068030E040E050E00E94130BC101A0E0B0E074
S1130690281739074A075B0718F420E030E0A9015E
S11306A0E92D990CFF0B8091640090916500E81787
S11306B0F90761F1F0907000F982009171000A83EA
S11306C0109172001B83209173002C83309174006D
S11306D03D83409175004E83509176005F83609115
S11306E0770068872F2D302F412F5C816D817E81AB
S11306F08F819885A0E00E94800B29F4F093650017
S1130700E093640054C020E030E0A90159016A017B
S1130710E12CF12C87012983BA82CB82DC82ED8221
S1130720FE820F831887B0907000BC8EC090710059
S1130730CD8ED0907200DE8EE0907300EF8EF0903C
S11307407400F8A20091750009A3109176001AA311
S1130750409077002A2D3A814B815C8160E070E003
S113076080E090E0AB2CBC2CCD2CDE2CEF2CF02EBA
S1130770012F142D0E946E0B622E732EC42ED52EC3
S1130780E62EF72E082F192F0E9469094B015C01F0
S1130790A5019401C501B4010E944B0A0E94BE0A3E
S11307A00E943A09603D774081059105C8F439817A
S11307B0309370004A81409371005B8150937200C2
S11307C06C81609373007D81709374008E8180933B
S11307D075009F8190937600A885A093770091C1BE
S11307E0262D372D4C2D5D2D6E2D7F2D802F912F95
S11307F0A0E00E94800B0CF0BBC04101A12CB12CE5
S1130800C12CD12C76012C8D3D8D4E8D5F8D68A130
S113081079A18AA1942D2C869D86AE86BF86C88A2E
S1130820D98AEA8AFB8AA22CB92CC12CD12CE12CBE
S1130830F12C00E010E00E94770BCCF4E981E09306
S11308407000AA80A0927100BB80B0927200CC802C
S1130850C0927300DD80D0927400EE80E092750047
S1130860FF80F09276000885009377004AC12A85BC
S11308703B852216330628F4A1014C5251405B8774
S11308804A872C8D3D8D4E8D5F8D68A179A18AA1FB
S1130890942D2735ABE13A074105510561057105F2
S11308A08105910509F08CF58A859B859695879538
S11308B06C01E12CF12C00E010E098018983DA82CC
S11308C0EB82FC820D831E832F8338872C8D3D8D14
S11308D08AA1942DAC2CBD2CC12CD12CE12CF12C53
S11308E000E010E00E946E0B2093700030937100C2
S11308F0409372005093730060937400709375007A
S11309008093760090937700FCC00A851B8578015C
S113091000E010E020E030E0A901E982FA820B83D4
S11309201C832D833E834F8358872C8D3D8D4E8DA4
S11309305F8D68A179A18AA1942DAE2CBF2CC12C06
S1130940D12CE12CF12C00E010E00E946E0B2093DE
S11309507000309371004093720050937300609361
S11309607400709375008093760090937700C9C0EB
S1130970910140E050E060E070E0CB012C863D87BF
S11309804E875F87688B798B8A8B9B8B2C8D3D8DF3
S11309904E8D5F8D68A179A18AA1942DAC84BD840C
S11309A0C12CD12CE12CF12C00E010E00E94770B3B
S11309B09CF40E94590B2093700030937100409373
S11309C07200509373006093740070937500809369
S11309D076009093770095C04A855B85241635068A
S11309E028F4B1016C5271407B876A872C8D3D8D50
S11309F04E8D5F8D68A179A18AA1942D27353B4145
S1130A0041055105610571058105910509F04CF514
S1130A108A849B849694879496948794282D392D60
S1130A2040E050E060E070E080E090E0AC8CBD8C91
S1130A30CE8CDF8CE8A0F9A00AA1142D0E94590BDA
S1130A4020937000309371004093720050937300B0
S1130A506093740070937500809376009093770090
S1130A6025C00A851B854801202F392D40E050E020
S1130A7060E070E080E090E0AC8CBD8CCE8CDF8CCC
S1130A80E8A0F9A00AA1142D0E94590B209370002C
S1130A90309371004093720050937300609374001C
S1130AA0709375008093760090937700A090700007
S1130AB0B0907100C0907200D0907300E090740008
S1130AC0F0907500009176001091770029813A81A9
S1130AD04B815C816D817E818F8198850E94770B2B
S1130AE084F420937000309371004093720050930B
S1130AF073006093740070937500809376009093F4
S1130B0077008091640090916500909363008093D6
S1130B106200909361008093600020917000309196
S1130B207100409172005091730060917400709153
S1130B3075008091760090917700822E932EA42EDA
S1130B40B52E20936C0030936D0040936E0050934B
S1130B506F00209368003093690040936A005093BB
S1130B606B00A985EA2FAA0FFF0BA0916600B09134
S1130B706700EA17FB0781F1F0936700E0936600D2
S1130B80EF2B29F480E090E00E94C00204C080E0D2
S1130B9090E00E94C0022C893D894E895F89688D4E
S1130BA0798D8A8D9B8D20523C464B4F5F4F6F4F02
S1130BB07F4F8F4F9F4F209378003093790040935D
S1130BC07A0050937B0060937C0070937D00809347
S1130BD07E0090937F0092C1EF3F0FEFF00709F082
S1130BE0AAC0A0E00E94800B31F51092630010921D
S1130BF0620081E090E090936100809360002BA1FB
S1130C003CA1220F331FC1018053984F820F931FC1
S1130C10A0E0B0E080936C0090936D00A0936E0010
S1130C20B0936F008093680090936900A0936A006A
S1130C30B0936B0063C1ACE3B0E0A50194010E94E2
S1130C40350B24E630E040E050E00E94130B7501C0
S1130C506401C21AD30AE40AF50AC0926C00D09265
S1130C606D00E0926E00F0926F00BA01A901480D88
S1130C70591D6A1D7B1DC10188519C4FA0E0B0E045
S1130C80C816D906EA06FB0648F04093680050935C
S1130C90690060936A0070936B0018C0480F591F75
S1130CA06A1F7B1F4C195D096E097F094093680018
S1130CB05093690060936A0070936B0080936C009A
S1130CC090936D00A0936E00B0936F0080916800C4
S1130CD090916900A0916A00B0916B0081309446B4
S1130CE0A105B10508F40AC180916C0090916D00D2
S1130CF0A0916E00B0916F0040E053E760E070E0B7
S1130D00409368005093690060936A0070936B008D
S1130D108A599041A109B10980936C0090936D00A8
S1130D20A0936E00B0936F0081309446A105B10585
S1130D3008F45AC133C13097E1F5E2E8F0E00081EC
S1130D401181E280F3800E151F0509F4D7C0C50197
S1130D50B4010E946F094B015C01B8016E197F094F
S1130D6080E090E00E946F096B017C01A70196016D
S1130D70C701B6010E944B0A0E94BE0A9B01AC0146
S1130D80C501B4010E944B0A20E030E048EC52E473
S1130D900E94C808A50194010E945C080E943A09B7
S1130DA0609368007093690080936A0090936B006D
S1130DB0A5C0319709F0A2C0A0E00E94800B31F5D4
S1130DC081E090E090936300809362001092610050
S1130DD0109260008BA19CA1880F991F9101205350
S1130DE0384F820F931FA0E0B0E080936C00909383
S1130DF06D00A0936E00B0936F0080936800909391
S1130E006900A0936A00B0936B0078C0ACE3B0E0D3
S1130E10A50194010E94350B24E630E040E050E047
S1130E200E94130BD501C401820F931FA41FB51F89
S1130E3080936C0090936D00A0936E00B0936F004C
S1130E40821A930AA40AB50A81309446A105B10511
S1130E5048F48092680090926900A0926A00B0926F
S1130E606B001AC048E8841A43E1940AA108B10847
S1130E708092680090926900A0926A00B0926B0020
S1130E8080E094E6A0E0B0E080936C0090936D0065
S1130E90A0936E00B0936F00C10188519C4FA0E0F5
S1130EA0B0E0009168001091690020916A003091CF
S1130EB06B00081719072A073B0700F540916C00DF
S1130EC050916D0060916E0070916F00401B510B4A
S1130ED0620B730B480F591F6A1F7B1F40936C00F2
S1130EE050936D0060936E0070936F008093680060
S1130EF090936900A0936A00B0936B00C09068005F
S1130F00D0906900E0906A00F0906B00D701C601B0
S1130F10880F991FAA1FBB1F8C0D9D1DAE1DBF1DE1
S1130F20AC01BD01440F551F661F771F440F551FA9
S1130F30661F771F8C019D01040F151F261F371F85
S1130F40C901B80124E630E040E050E00E94130BF0
S1130F50C20ED31EE41EF51EC0926800D092690032
S1130F60E0926A00F0926B0080916C0090916D00A9
S1130F70A0916E00B0916F0082519D4FAF4FBF4F53
S1130F8080936C0090936D00A0936E00B0936F00FB
S1130F9081309446A105B105A0F007C00F2EC12CE5
S1130FA0F3E7DF2EE12CF12CF02D80E094E6A0E0B5
S1130FB0B0E080936C0090936D00A0936E00B093AA
S1130FC06F0021E3C21625E7D206E104F10460F0C4
S1130FD080E395E7A0E0B0E0809368009093690017
S1130FE0A0936A00B0936B008091620090916300BB
S1130FF0892B11F0AA9801C0AA9A8091600090915F
S11310006100892B11F0AB9801C0AB9A8091680004
S1131010909169009BBD8ABD80916C0090916D0098
S113102099BD88BD80E090E0A4960FB6F894DEBF29
S11310300FBECDBFDF91CF911F910F91FF90EF9025
S1131040DF90CF90BF90AF909F908F907F906F90E4
S11310505F904F903F902F90089578940E94500095
S11310600E9469020E9449000E94FB000E941A012A
S11310700E94ED000E9421010E942A018DB79EB7B3
S113108043970FB6F8949EBF0FBE8DBFADB7BEB7E2
S1131090119683E1E0EAF0E001900D928A95E1F780
S11310A00E94D0028DB79EB743960FB6F8949EBFA8
S11310B00FBE8DBFE3CF5058BB27AA270E947308E9
S11310C00C94110A0E94030A38F00E940A0A20F0C4
S11310D039F49F3F19F426F40C94F0090EF4E095CA
S11310E0E7FB0C94EA09E92F0E94220A58F3BA1785
S11310F0620773078407950720F079F4A6F50C942A
S1131100440A0EF4E0950B2EBA2FA02D0B01B90161
S113111090010C01CA01A0011124FF27591B99F069
S1131120593F50F4503E68F11A16F040A22F232F75
S1131130342F4427585FF3CF469537952795A795C5
S1131140F0405395C9F77EF41F16BA0B620B730B6C
S1131150840BBAF09150A1F0FF0FBB1F661F771FDD
S1131160881FC2F70EC0BA0F621F731F841F48F492
S1131170879577956795B795F7959E3F08F0B0CF1B
S11311809395880F08F09927EE0F97958795089502
S11311900E94DC080C94110A0E940A0A58F00E946A
S11311A0030A40F029F45F3F29F00C94EA09511135
S11311B00C94450A0C94F0090E94220A68F39923BE
S11311C0B1F3552391F3951B550BBB27AA2762173F
S11311D07307840738F09F5F5F4F220F331F441F4C
S11311E0AA1FA9F335D00E2E3AF0E0E832D0915080
S11311F05040E695001CCAF72BD0FE2F29D0660F6D
S1131200771F881FBB1F261737074807AB07B0E8AF
S113121009F0BB0B802DBF01FF2793585F4F3AF0B5
S11312209E3F510578F00C94EA090C94450A5F3FFF
S1131230E4F3983ED4F3869577956795B795F7953B
S11312409F5FC9F7880F911D9695879597F9089523
S1131250E1E0660F771F881FBB1F621773078407BF
S1131260BA0720F0621B730B840BBA0BEE1F88F7CE
S1131270E09508950E942A0A88F09F5798F0B92FA4
S11312809927B751B0F0E1F0660F771F881F991FB7
S11312901AF0BA95C9F714C0B13091F00E94440A0B
S11312A0B1E008950C94440A672F782F8827B85F1B
S11312B039F0B93FCCF3869577956795B395D9F70F
S11312C03EF490958095709561957F4F8F4F9F4F19
S11312D0089597FB16F40E94F3090C94AD09E89461
S11312E009C097FB3EF490958095709561957F4F6A
S11312F08F4F9F4F9923A9F0F92F96E9BB27939518
S1131300F695879577956795B795F111F8CFFAF427
S1131310BB0F11F460FF1BC06F5F7F4F8F4F9F4F58
S113132016C0882311F096E911C0772321F09EE8B6
S1131330872F762F05C0662371F096E8862F70E01C
S113134060E02AF09A95660F771F881FDAF7880FF6
S11313509695879597F90895E894F92F96EBFF23CE
S113136081F0121613061406440B9395F69587958F
S11313707795679557954040FF23B9F71BC0992788
S11313800895882351F49850D2F7872B762F652F30
S1131390542F432F322F20E0B1F3121613061406F4
S11313A0440B88233AF09A95440F551F661F771F04
S11313B0881FCAF755234AF4440F551F11F460FFE0
S11313C004C06F5F7F4F8F4F9F4F880F969587950F
S11313D097F9089597F99F6780E870E060E00895B1
S11313E09FEF80EC08959095809570956095509549
S11313F04095309521953F4F4F4F5F4F6F4F7F4F33
S11314008F4F9F4F089500240A9416161706180646
S11314100906089500240A941216130614060506F4
S11314200895092E0394000C11F4882352F0BB0F85
S113143040F4BF2B11F460FF04C06F5F7F4F8F4FE8
S11314409F4F089557FD9058440F551F59F05F3F23
S113145071F04795880F97FB991F61F09F3F79F0D2
S113146087950895121613061406551FF2CF469554
S1131470F1DF08C0161617061806991FF1CF8695D6
S11314807105610508940895E894BB2766277727BA
S1131490CB0197F908950E945E0A0C94110A0E94E8
S11314A0030A38F00E940A0A20F0952311F00C94E4
S11314B0EA090C94F00911240C94450A0E94220AAA
S11314C070F3959FC1F3950F50E0551F629FF00193
S11314D0729FBB27F00DB11D639FAA27F00DB11DAC
S11314E0AA1F649F6627B00DA11D661F829F222735
S11314F0B00DA11D621F739FB00DA11D621F839FBC
S1131500A00D611D221F749F3327A00D611D231F91
S1131510849F600D211D822F762F6A2F11249F57DF
S113152050409AF0F1F088234AF0EE0FFF1FBB1FE2
S1131530661F771F881F91505040A9F79E3F5105A1
S113154080F00C94EA090C94450A5F3FE4F3983E5A
S1131550D4F3869577956795B795F795E7959F5F4B
S1131560C1F7FE2B880F911D9695879597F90895DD
S113157019F416F40C94F0090C94FE0A0E942A0A39
S1131580B8F39923C9F3B6F39F57550B87FF0E940D
S11315900C0B0024A0E640EA9001805856959795DC
S11315A028F4805C660F771F881F20F02617370702
S11315B0480730F4621B730B840B202931294A2B12
S11315C0A69517940794202531254A2758F7660FC6
S11315D0771F881F20F026173707480730F4620B5F
S11315E0730B840B200D311D411DA09581F7B901AA
S11315F0842F9158880F9695879508959F3F31F0D1
S1131600915020F4879577956795B795880F911D2C
S11316109695879597F9089591505040660F771FD6
S1131620881FD2F70895A1E21A2EAA1BBB1BFD0145
S11316300DC0AA1FBB1FEE1FFF1FA217B307E407AD
S1131640F50720F0A21BB30BE40BF50B661F771F05
S1131650881F991F1A9469F76095709580959095E5
S11316609B01AC01BD01CF0108950E948C0BA59F85
S1131670900DB49F900DA49F800D911D1124089589
S11316800F93083090F0982F872F762F652F542FC3
S1131690432F322F22270850F4CF220F331F441F29
S11316A0551F661F771F881F991F0A95B2F70F9160
S11316B008952A0D3B1D4C1D5D1D6E1D7F1D801F51
S11316C0911F08950024A7FD00942A0F301D401D8A
S11316D0501D601D701D801D901D08952A193B0921
S11316E04C095D096E097F09800B910B08952A1539
S11316F03B054C055D056E057F0580079107089540
S11317000024A7FD00942A17300540055005600504
S11317107005800590050895A29FB001B39FC00194
S1131720A39F700D811D1124911DB29F700D811D09
S10D17301124911D0895F894FFCFD1
S109173A010001000100A2
S9030000FC
