S00B00005250362E7372656341
S11300000C942A000C9497020C94B0020C944700B0
S11300100C9447000C9447000C9447000C94470040
S11300200C9447000C9447000C9447000C946B000C
S11300300C9447000C9447000C9447000C94470020
S11300400C9447000C9447000C9447000C94F40162
S11300500C94470011241FBECFE5D8E0DEBFCDBF0E
S113006010E0A0E6B0E0E2E1F7E102C005900D92F5
S1130070A636B107D9F720E0A6E6B0E001C01D928C
S1130080AB3CB207E1F70E94CC060C94870B0C94AE
S1130090000087B3836887BB84B3806784BB0895FB
S11300A083B7816083BF83B7826083BF89B7816070
S11300B089BF12BE1092AF001092B0001092B1002E
S11300C01092B2001092B3001092B4001092B500D6
S11300D01092B60008951F920F920FB60F9211243A
S11300E02F933F934F935F936F937F938F939F933C
S11300F0AF932091AF003091B0004091B100509186
S1130100B2006091B3007091B4008091B5009091F9
S1130110B600A1E00E94490B2093AF003093B000D9
S11301204093B1005093B2006093B3007093B40055
S11301308093B5009093B600AF919F918F917F917A
S11301406F915F914F913F912F910F900FBE0F9040
S11301501F901895AF92BF92CF92DF92EF92FF92C9
S11301600F931F93A2B72091AF003091B00040913C
S1130170B1005091B2006091B3007091B4008091CD
S1130180B5009091B600E0E0FA2FFF0FFF0FFF0FCC
S1130190FF2314F4E150FF4FEF2FEE0FEE0B0BE0B3
S11301A00E94270BA22EB32EC42ED52EE62EF72E98
S11301B0082F192F2F2F3E2F4E2F5E2F6E2F7E2F9D
S11301C08E2F9E2F0E94400B1F910F91FF90EF9056
S11301D0DF90CF90BF90AF90089585E486BF11B8AB
S11301E086E082B980E280B984B3836084BB85B33E
S11301F0836085BB0895EAE9F0E0108211821282DF
S11302001382148215821682178281E080871186F8
S113021022E030E03387228724EC39E035872487D5
S113022028E53BE13787268740E45DE063E070E042
S1130230408B518B628B738B848B0895E2E8F0E0E2
S113024011821082138212820895E7EBF0E08BECA6
S113025090E01192E817F907E1F70895E6E8F0E075
S11302608AE990E01192E817F907E1F708950F93EE
S11302701F93CF93DF9380918800813059F4EAE98A
S1130280F0E0108211821282138214821582168287
S1130290178211C0EAE9F0E09091870090831182FF
S11302A0128213821482158216821782811103C06E
S11302B01092A20003C081E08093A200EAE9F0E07A
S11302C0C6E8D0E08B81815081872C8100ED17E056
S11302D0209FC001219F900D11242FEF30E0B90120
S11302E00E94B209738762876D8140E45FE1649F75
S11302F0C001659F900D1124B9010E94B209758750
S113030064876E8140E757E1649FC001659F900D4B
S11303101124B9010E94B209778766872F81209F33
S1130320C001219F900D1124092E000CAA0BBB0BB8
S1130330808B918BA28BB38B8885848BDF91CF913B
S11303401F910F91089580918600813011F40E94CD
S113035037010895CF93DF930E942501E7EBF0E086
S113036081E08083C2E8D0E0888199814FEF489F83
S11303709001499F300D1124329522952F70232727
S11303803F702327ADEBB8E00E94E8090024880FF2
S1130390991F001C880F991F001C892F902D8183A1
S11303A08A819B81489F9001499F300D1124329589
S11303B022952F7023273F7023270E94E8090024E9
S11303C0880F991F001C880F991F001C892F902DDE
S11303D08283EAEBF0E08BEC90E01192E817F907E6
S11303E0E1F7DF91CF9108951F920F920FB60F920C
S11303F011242F933F934F935F936F937F938F9326
S11304009F93AF93BF93EF93FF9381B1803A21F110
S113041028F4803641F0803869F039C0883AF9F020
S1130420883B39F134C00E942E0110928100109251
S113043080002DC0809180009091810084319105CD
S113044034F523B1FC01EA57FF4F208301969093C2
S11304508100809380001BC00E94A30118C00E94E9
S1130460AA0110928100109280008091B70083B994
S11304700EC080918000909181000196909381003C
S113048080938000FC01E954FF4F808183B986B7D3
S1130490806886BFFF91EF91BF91AF919F918F913B
S11304A07F916F915F914F913F912F910F900FBE6C
S11304B00F901F90189581B3806381BB81B3837FB4
S11304C081BB84B38C6084BB08958FB580688FBD75
S11304D08FB580628FBD8FB582608FBD8EB5806110
S11304E08EBD8EB581608EBD8FEF99EF97BD86BDB1
S11304F01BBC1ABC19BC18BC0895E2E8F0E01182D8
S113050010821382128285B7816085BF85B78460AB
S113051085BF8BB780648BBF8BB780688BBF089512
S11305200E945B020E9465020E947D0208951F9250
S11305300F920FB60F9211248F939F93EF93FF9313
S1130540E2E8F0E080819181019691838083FF91BC
S1130550EF919F918F910F900FBE0F901F90189560
S11305601F920F920FB60F9211248F939F93EF93C4
S1130570FF93E2E8F0E08281938101969383828382
S1130580FF91EF919F918F910F900FBE0F901F904D
S11305901895892B39F08BB780648BBF8BB7806833
S11305A08BBF08958BB78F7B8BBF8BB78F778BBF38
S11305B008952F923F924F925F926F927F928F9203
S11305C09F92AF92BF92CF92DF92EF92FF920F93DE
S11305D01F93CF93DF93CDB7DEB7A1970FB6F894EF
S11305E0DEBF0FBECDBF3EA84FA858AC69AC7AACF5
S11305F08BAC9CAC2DACAEACA986BFACBC862496AF
S1130600CEACDFAC2497D88ECF8A2696EEACFFAC66
S11306102697FB86EA860E94AA00A0907800B090F4
S11306207900C0907A00D0907B00E0907C00F0903C
S11306307D0000917E0010917F000E945E0B08F403
S113064090C30E94AA00A22EB32EC42ED52EE62E4D
S1130650F72EE82FF92F2A968CAD9DADAEADBFAD28
S11306602A978C019D0140E050E0BA0189831A83E6
S11306702B833C834D835E836F837887282F312FB0
S11306804B815C8160E070E080E090E00E2F1F2FD2
S11306900E94400B2F87388B498B5A8B6B8B7C8B3A
S11306A08D8B9E8B209378003093790040937A0051
S11306B050937B0060937C0070937D0080937E0058
S11306C090937F00A12C0F2EF4E6BF2EF02DC12CA9
S11306D0D12CE12CF12C00E010E0232D342D452DFC
S11306E0562D672D782D892D922D0E94F7090F2EF6
S11306F0F4E6AF2EF02DB12C0E94520A222E332E96
S1130700442E552E662E772E882E992ECA84DB848D
S11307105601C12CD12CE12CF12C8701A982BA827B
S1130720CB82DC82ED82FE820F831887C12CD12C10
S1130730E12CF12C00E010E00E945E0B44F4212C2B
S1130740312C412C512C612C712C812C912CD9846D
S1130750ED2DDD0CFF0B8091640090916500E8178E
S1130760F90749F1209170003091710040917200B5
S113077050917300609174007091750080917600BF
S113078090917700A0E00E94670B69F4F0936500F4
S1130790E0936400212C312C412C512C612C712CC0
S11307A0812C912C4DC0212C312C412C512C612CAD
S11307B0712C812C912CE0907000E986F0907100EE
S11307C0FD86009172000E8710917300198F20919D
S11307D074002A8F309175003B8F409176004C8FC6
S11307E0509177005D8F222D332D442D552D662D8C
S11307F0772D882D992DAE2CBF2CC02ED12EEA8CAE
S1130800FB8C0C8D1D8D0E94550B2E8F3F8F48A3A2
S113081059A3A62EB72E082F192F0E9408086B0182
S11308207C01A7019601C701B6010E94EA080E9453
S11308305D090E94D907603D77408105910588F4E0
S113084020927000309271004092720050927300B6
S11308506092740070927500809276009092770096
S1130860C6C02E8D3F8D48A159A16A2D7B2D802FA6
S1130870912FA0E00E94670B0CF046C029813A81B9
S113088040E050E060E070E080E090E0A984BD8446
S1130890CE84D98CEA8CFB8C0C8D1D8D0E945E0B52
S11308A091F08CF0209270003092710040927200AE
S11308B0509273006092740070927500809276007A
S11308C09092770094C029853D854E85598D6A8D17
S11308D07B8D8C8D9D8D2659310941095109610902
S11308E0710981099109209370003093710040933C
S11308F0720050937300609374007093750080933A
S113090076009093770073C029813A8140E050E0EB
S113091060E070E080E090E0A984BD84CE84D98C4E
S1130920EA8CFB8C0C8D1D8D0E945E0BA1F09CF05B
S11309300E94400B2093700030937100409372002A
S113094050937300609374007093750080937600E5
S1130950909377004CC029853D854E85598D6A8DCD
S11309607B8D8C8D9D8D2A563F4F4F4F5F4F6F4F20
S11309707F4F8F4F9F4F298339874D875E87B62FCF
S1130980A72FF82FE92F222D332D442D552D662D19
S1130990772D882D992DA980B984CD84DE84EB2E02
S11309A0FA2E0F2F1E2F0E945E0B8CF0A092700067
S11309B0B0927100C0927200D0927300B093740030
S11309C0A0937500F0937600E093770010C0209216
S11309D070003092710040927200509273006092E5
S11309E074007092750080927600909277008091E6
S11309F064009091650090936300809362009093EB
S1130A0061008093600020917000309171004091EA
S1130A107200509173006091740070917500809120
S1130A20760090917700C22ED32EE42EF52E2093DB
S1130A306C0030936D0040936E0050936F002093D0
S1130A4068003093690040936A0050936B000C85F2
S1130A50E02F000FFF0BA0916600B0916700EA172A
S1130A60FB0781F1F0936700E0936600EF2B29F414
S1130A7081E090E00E94C90204C080E090E00E94FE
S1130A80C9022F85388949895A896B897C898D895E
S1130A909E89205639474E4F5F4F6F4F7F4F8F4F80
S1130AA09F4F209378003093790040937A005093BD
S1130AB07B0060937C0070937D0080937E00909314
S1130AC07F00CFC0EF3F1FEFF10709F045C0A0E062
S1130AD00E94670B29F5109263001092620081E076
S1130AE090E090936100809360008F89988D880FC7
S1130AF0991F2A853B85820F931FA0E0B0E0809365
S1130B006C0090936D00A0936E00B0936F0080937F
S1130B10680090936900A0936A00B0936B00A1C031
S1130B204A855B85CA01A0E0B0E080936C00909395
S1130B306D00A0936E00B0936F006F89788DC60E20
S1130B40D71EE11CF11CC0926800D0926900E092AB
S1130B506A00F0926B0085C03097E1F5E2E8F0E0BE
S1130B6000811181A280B3800A151B0509F479C0A4
S1130B70C701B6010E940E086B017C01B8016A1915
S1130B807B0980E090E00E940E084B015C01A50106
S1130B909401C501B4010E94EA080E945D099B0109
S1130BA0AC01C701B6010E94EA0820E030E048EC3D
S1130BB052E40E946707A70196010E94FB060E9467
S1130BC0D907609368007093690080936A009093DA
S1130BD06B0047C0319709F044C0A0E00E94670B46
S1130BE029F581E090E09093630080936200109275
S1130BF06100109260008F89988D880F991FEA8593
S1130C00FB858E0F9F1FA0E0B0E080936C00909353
S1130C106D00A0936E00B0936F0080936800909372
S1130C206900A0936A00B0936B001BC0AF88B88CB6
S1130C30CA0CDB1CE11CF11CC0926C00D0926D004C
S1130C40E0926E00F0926F00CA84DB84C601A0E0DB
S1130C50B0E08093680090936900A0936A00B09319
S1130C606B00C0906800D0906900E0906A00F0903A
S1130C706B00D701C601880F991FAA1FBB1F8C0DDB
S1130C809D1DAE1DBF1DAC01BD01440F551F661F48
S1130C90771F440F551F661F771F8C019D01040F9A
S1130CA0151F261F371FC901B80124E630E040E0B4
S1130CB050E00E94C609C20ED31EE41EF51EC09267
S1130CC06800D0926900E0926A00F0926B00809113
S1130CD06C0090916D00A0916E00B0916F00813016
S1130CE09446A105B10560F080E094E6A0E0B0E090
S1130CF080936C0090936D00A0936E00B0936F008E
S1130D0021E3C21625E7D206E104F10460F080E392
S1130D1095E7A0E0B0E08093680090936900A09309
S1130D206A00B0936B008091620090916300892BFC
S1130D3011F0AA9801C0AA9A809160009091610074
S1130D40892B11F0AB9801C0AB9A80916800909107
S1130D5069009BBD8ABD80916C0090916D0099BD26
S1130D6088BD80E090E0A1960FB6F894DEBF0FBE78
S1130D70CDBFDF91CF911F910F91FF90EF90DF9046
S1130D80CF90BF90AF909F908F907F906F905F9027
S1130D904F903F902F90089578940E9450000E94A5
S1130DA090020E9449000E94FB000E941E010E94C2
S1130DB0ED000E9425010E942E018DB79EB7459734
S1130DC00FB6F8949EBF0FBE8DBFADB7BEB71196D8
S1130DD085E1EAE9F0E001900D928A95E1F70E943D
S1130DE0D9028DB79EB745960FB6F8949EBF0FBE35
S1130DF08DBFE3CF5058BB27AA270E9412070C943B
S1130E00B0080E94A20838F00E94A90820F039F422
S1130E109F3F19F426F40C948F080EF4E095E7FB39
S1130E200C948908E92F0E94C10858F3BA17620785
S1130E3073078407950720F079F4A6F50C94E3086A
S1130E400EF4E0950B2EBA2FA02D0B01B9019001E1
S1130E500C01CA01A0011124FF27591B99F0593F25
S1130E6050F4503E68F11A16F040A22F232F342F6D
S1130E704427585FF3CF469537952795A795F040BB
S1130E805395C9F77EF41F16BA0B620B730B840BD0
S1130E90BAF09150A1F0FF0FBB1F661F771F881F88
S1130EA0C2F70EC0BA0F621F731F841F48F48795E0
S1130EB077956795B795F7959E3F08F0B0CF9395D2
S1130EC0880F08F09927EE0F9795879508950E944B
S1130ED07B070C94B0080E94A90858F00E94A2084D
S1130EE040F029F45F3F29F00C94890851110C94C7
S1130EF0E4080C948F080E94C10868F39923B1F3A5
S1130F00552391F3951B550BBB27AA27621773072B
S1130F10840738F09F5F5F4F220F331F441FAA1FBF
S1130F20A9F335D00E2E3AF0E0E832D0915050407B
S1130F30E695001CCAF72BD0FE2F29D0660F771F29
S1130F40881FBB1F261737074807AB07B0E809F00F
S1130F50BB0B802DBF01FF2793585F4F3AF09E3F94
S1130F60510578F00C9489080C94E4085F3FE4F38D
S1130F70983ED4F3869577956795B795F7959F5FD7
S1130F80C9F7880F911D9695879597F90895E1E023
S1130F90660F771F881FBB1F621773078407BA0782
S1130FA020F0621B730B840BBA0BEE1F88F7E095DD
S1130FB008950E94C90888F09F5798F0B92F99277F
S1130FC0B751B0F0E1F0660F771F881F991F1AF030
S1130FD0BA95C9F714C0B13091F00E94E308B1E0AA
S1130FE008950C94E308672F782F8827B85F39F0A9
S1130FF0B93FCCF3869577956795B395D9F73EF4C9
S113100090958095709561957F4F8F4F9F4F089570
S113101097FB16F40E9492080C944C08E89409C0BB
S113102097FB3EF490958095709561957F4F8F4F17
S11310309F4F9923A9F0F92F96E9BB279395F6952D
S1131040879577956795B795F111F8CFFAF4BB0FAB
S113105011F460FF1BC06F5F7F4F8F4F9F4F16C00F
S1131060882311F096E911C0772321F09EE8872F99
S1131070762F05C0662371F096E8862F70E060E055
S11310802AF09A95660F771F881FDAF7880F9695CE
S1131090879597F90895E894F92F96EBFF2381F04B
S11310A0121613061406440B9395F69587957795B7
S11310B0679557954040FF23B9F71BC099270895BA
S11310C0882351F49850D2F7872B762F652F542F0D
S11310D0432F322F20E0B1F3121613061406440BEB
S11310E088233AF09A95440F551F661F771F881F6F
S11310F0CAF755234AF4440F551F11F460FF04C086
S11311006F5F7F4F8F4F9F4F880F9695879597F905
S1131110089597F99F6780E870E060E008959FEF75
S113112080EC0895909580957095609550954095C4
S1131130309521953F4F4F4F5F4F6F4F7F4F8F4FEC
S11311409F4F089500240A941616170618060906D8
S1131150089500240A941216130614060506089529
S1131160092E0394000C11F4882352F0BB0F40F4B1
S1131170BF2B11F460FF04C06F5F7F4F8F4F9F4FF1
S1131180089557FD9058440F551F59F05F3F71F073
S11311904795880F97FB991F61F09F3F79F08795DA
S11311A00895121613061406551FF2CF4695F1DF63
S11311B008C0161617061806991FF1CF86957105F3
S11311C0610508940895E894BB2766277727CB0127
S11311D097F908950E94FD080C94B0080E94A20893
S11311E038F00E94A90820F0952311F00C94890886
S11311F00C948F0811240C94E4080E94C10870F325
S1131200959FC1F3950F50E0551F629FF001729FA7
S1131210BB27F00DB11D639FAA27F00DB11DAA1FB6
S1131220649F6627B00DA11D661F829F2227B00D03
S1131230A11D621F739FB00DA11D621F839FA00D8E
S1131240611D221F749F3327A00D611D231F849FDE
S1131250600D211D822F762F6A2F11249F57504035
S11312609AF0F1F088234AF0EE0FFF1FBB1F661FB0
S1131270771F881F91505040A9F79E3F510580F079
S11312800C9489080C94E4085F3FE4F3983ED4F38B
S1131290869577956795B795F795E7959F5FC1F71D
S11312A0FE2B880F911D9695879597F9089519F44B
S11312B016F40C948F080C949D090E94C908B8F385
S11312C09923C9F3B6F39F57550B87FF0E94AB09C7
S11312D00024A0E640EA900180585695979528F49A
S11312E0805C660F771F881F20F026173707480792
S11312F030F4621B730B840B202931294A2BA695E9
S113130017940794202531254A2758F7660F771F2D
S1131310881F20F026173707480730F4620B730B39
S1131320840B200D311D411DA09581F7B901842F37
S11313309158880F9695879508959F3F31F0915065
S113134020F4879577956795B795880F911D9695A5
S1131350879597F9089591505040660F771F881F1D
S1131360D2F7089597FB072E16F4009407D077FD63
S113137009D00E94730B07FC05D03EF4909581952B
S11313809F4F0895709561957F4F0895A1E21A2E9D
S1131390AA1BBB1BFD010DC0AA1FBB1FEE1FFF1F15
S11313A0A217B307E407F50720F0A21BB30BE40B65
S11313B0F50B661F771F881F991F1A9469F76095AC
S11313C07095809590959B01AC01BD01CF01089566
S11313D0A29FB001B39FC001A39F700D811D112472
S11313E0911DB29F700D811D1124911D0895DF93ED
S11313F0CF931F930F939A9DF02D219FF00D8B9DFA
S1131400F00D8A9DE02DF10D039FF00D029FE00D7C
S1131410F11D4E9DE00DF11D5E9DF00D4F9DF00DF3
S11314207F936F93BF92AF925F934F93D5010E94C6
S1131430E8098B01AC01D7010E94E809EB01E80F30
S1131440F91FD6010E94470A2F913F91D6010E94AD
S1131450E809C60FD71FE81FF91FAF91BF910E947B
S1131460470A2F913F910E94E809C60FD71FE81F32
S1131470F91FD6010E94E809E60FF71F9801BE0183
S1131480CF0111240F911F91CF91DF9108950E94F4
S1131490E809460F571FC81FD91F08F4319608954D
S11314A0689401C0E894F92FF12B12F00C94840A8B
S11314B0A0E0B0E0EEE5FAE00C94F60A092E0594FB
S11314C022F40E94E00A112392F4F0E80F26FFEFC1
S11314D0E094F09400951095B094C094D094A194A5
S11314E0BF0ACF0ADF0AEF0AFF0A0F0B1F0B0E9485
S11314F08F0A07FC0E94E00ACDB7DEB7ECE00C943B
S1131500120B689401C0E8948F929F92CF93DF935B
S11315100E948F0ADF91CF919F908F900895882425
S11315209924F401E401B0E49F93AA279A158B044B
S11315309C04ED05FE05CF05D007A10798F4AD2F57
S1131540DC2FCF2FFE2FE92D982C892E982F872F53
S1131550762F652F542F432F322F2227B85031F77F
S1131560BF9127C01B2EBF91BB27220F331F441FDF
S1131570551F661F771F881F991F881C991CEE1F13
S1131580FF1FCC1FDD1FAA1FBB1F8A149B04EC0581
S1131590FD05CE05DF05A007B10748F08A189B08B2
S11315A0EC09FD09CE09DF09A00BB10B21601A94E7
S11315B0E1F62EF49401AF01BE01CD01000C0895B3
S11315C060957095809590953095409550952195AE
S11315D03F4F4F4F5F4F6F4F7F4F8F4F9F4F089538
S11315E02F923F924F925F926F927F928F929F922F
S11315F0AF92BF92CF92DF92EF92FF920F931F931D
S1131600CF93DF93CDB7DEB7CA1BDB0B0FB6F894CD
S1131610DEBF0FBECDBF09942A88398848885F840D
S11316206E847D848C849B84AA84B984C884DF807E
S1131630EE80FD800C811B81AA81B981CE0FD11D62
S11316400FB6F894DEBF0FBECDBFED0108950F9322
S1131650083090F0982F872F762F652F542F432F23
S1131660322F22270850F4CF220F331F441F551F57
S1131670661F771F881F991F0A95B2F70F91089567
S11316802A0D3B1D4C1D5D1D6E1D7F1D801F911F6E
S113169008950024A7FD00942A0F301D401D501DFD
S11316A0601D701D801D901D08952A193B094C0969
S11316B05D096E097F09800B910B08952A153B057E
S11316C04C055D056E057F0580079107089500248C
S11316D0A7FD00942A1730054005500560057005E4
S11316E0800590050895AA1BBB1B51E107C0AA1FE2
S11316F0BB1FA617B70710F0A61BB70B881F991FAF
S11317005A95A9F780959095BC01CD010895F89458
S1051710FFCF05
S1091712010001000100CA
S9030000FC
