:100000000C942A000C942B010C9442010C94470090
:100010000C9447000C9447000C9447000C94470044
:100020000C9447000C9447000C9447000C946B0010
:100030000C9447000C9447000C9447000C94470024
:100040000C9447000C9447000C9447000C94470014
:100050000C94470011241FBECFE5D8E0DEBFCDBF12
:1000600010E0A0E6B0E0E4E5F4E102C005900D92F6
:10007000A636B107D9F720E0A6E6B0E001C01D9290
:10008000AC38B207E1F70E94AD050C94280A0C9435
:10009000000087B3836887BB84B3806784BB0895FF
:1000A00083B7816083BF83B7826083BF89B7816074
:1000B00089BF12BE109284001092850010928600B3
:1000C00010928700109288001092890010928A0086
:1000D00010928B0008951F920F920FB60F92112469
:1000E0002F933F934F935F936F937F938F939F9340
:1000F000AF9320918400309185004091860050910B
:100100008700609188007091890080918A009091A9
:100110008B00A1E00E94EF092093840030938500BA
:100120004093860050938700609388007093890005
:1001300080938A0090938B00AF919F918F917F91D4
:100140006F915F914F913F912F910F900FBE0F9044
:100150001F901895AF92BF92CF92DF92EF92FF92CD
:100160000F931F93A2B72091840030918500409196
:10017000860050918700609188007091890080917D
:100180008A0090918B00E0E0FA2FFF0FFF0FFF0F26
:10019000FF2314F4E150FF4FEF2FEE0FEE0B0BE0B7
:1001A0000E94CD09A22EB32EC42ED52EE62EF72EF8
:1001B000082F192F2F2F3E2F4E2F5E2F6E2F7E2FA1
:1001C0008E2F9E2F0E94E6091F910F91FF90EF90B6
:1001D000DF90CF90BF90AF90089581B3806381BBD3
:1001E00081B3837F81BB84B38C6084BB08958FB55A
:1001F00080688FBD8FB580628FBD8FB582608FBDE7
:100200008EB580618EBD8EB581608EBD8FEF99EF0A
:1002100097BD86BD1BBC1ABC19BC18BC08951092B2
:10022000830010928200109281001092800085B7A6
:10023000816085BF85B7846085BF8BB780648BBFC5
:100240008BB780688BBF08950E94ED000E94F70075
:100250000E940F0108951F920F920FB60F92112462
:100260008F939F9380918200909183000196909349
:100270008300809382009F918F910F900FBE0F900B
:100280001F9018951F920F920FB60F9211248F9303
:100290009F938091800090918100019690938100BE
:1002A000809380009F918F910F900FBE0F901F90B1
:1002B0001895892B39F08BB780648BBF8BB780681A
:1002C0008BBF08958BB78F7B8BBF8BB78F778BBF1F
:1002D00008952F923F924F925F926F927F928F92EA
:1002E0009F92AF92BF92CF92DF92EF92FF920F93C5
:1002F0001F93CF93DF93CDB7DEB767970FB6F89410
:10030000DEBF0FBECDBF322E432E542E652E762E6D
:1003100079838A83292E1E8B0D8B47010E94AA00A8
:10032000A0907800B0907900C0907A00D0907B00C7
:10033000E0907C00F0907D0000917E0010917F00A5
:100340000E94040A08F4EEC30E94AA0029873A8793
:100350004B875C876D877E878F87988B205C324FB9
:100360004C4F5F4F6F4F7F4F8F4F9F4F20937800C1
:100370003093790040937A0050937B0060937C0027
:1003800070937D0080937E0090937F00A12C0F2EB0
:10039000F4E6BF2EF02DC12CD12CE12CF12C00E085
:1003A00010E0232D342D452D562D672D79818A811E
:1003B000922D0E949D080F2EF4E6AF2EF02DB12C49
:1003C0000E94F80829833A83242E352E462E572E74
:1003D000682E792E27383341410551056105710595
:1003E0008105910509F044F419821A82212C312CDF
:1003F000412C512C612C712C8091640090916500EE
:100400002D893E898217930759F120917000309110
:10041000710040917200509173006091740070916E
:1004200075008091760090917700A0E00E940D0AFF
:1004300079F48D899E899093650080936400198278
:100440001A82212C312C412C512C612C712C4DC045
:1004500019821A82212C312C412C512C612C712CA7
:10046000909170009B83A0917100AC83E091720029
:10047000ED83009173000E83109174001F8320910F
:1004800075002887309176003F8B809177008D8BA7
:1004900029813A81422D532D642D752D862D972D5E
:1004A000AB80BA2ECE2ED02EE12EF8840F891D8976
:1004B0000E94FB09298B3A8BA42EB52E062F172FED
:1004C0008B8B9C8B0E94D1066B017C01A70196014E
:1004D000C701B6010E94B3070E9426080E94A20627
:1004E000603D77408105910598F4E981E0937000C3
:1004F0000A81009371002092720030927300409242
:10050000740050927500609276007092770015C169
:1005100029893A894A2D5B2D602F712F8B899C89FF
:10052000A0E00E940D0A0CF06EC02B813C814D8131
:100530005E816F8178858F899D8927383341410598
:100540005105610571058105910509F09CF429812A
:10055000209370003A8130937100209272003092A3
:100560007300409274005092750060927600709211
:100570007700E3C02B813C814D815E816F8178855E
:100580008F899D8901E00E94CD09A22EB32EC42E31
:10059000D52EE62EF72EE82F192F04E00E94CD0964
:1005A0000E2F0E94FB090F2EF4E6AF2EF02DB12C7A
:1005B000C12CD12CE12CF12C00E010E00E94F808B5
:1005C000A22EB32EC42ED52EE62EF72E082F192FCD
:1005D0002B813C814D815E816F8178858F899D89DA
:1005E0000E94FB09209370003093710040937200C9
:1005F000509373006093740070937500809376003D
:10060000909377009AC02B813C814D815E816F81F0
:1006100078858F899D892738A3E13A0741055105DF
:10062000610571058105910509F0CCF428573C4E10
:100630004F4F5F4F6F4F7F4F8F4F9F4F20937000F3
:100640003093710040937200509373006093740074
:100650007093750080937600909377006EC02B8125
:100660003C814D815E816F8178858F899D8901E014
:100670000E94CD09A22EB32EC42ED52EE62EF72E23
:10068000E82F192F04E00E94CD090E2F0E94FB09CC
:100690000F2EF4E6AF2EF02DB12CC12CD12CE12C75
:1006A000F12C00E010E00E94F808AB80BC80CD8007
:1006B000DE80EF80F8840F891D890E94E6092B8374
:1006C0003C834E835D83B62FA72FF82FE92F298116
:1006D0003A81422D532D642D752D862D972DAB809B
:1006E000BC80CE80DD80EB2EFA2E0F2F1E2F0E94B5
:1006F000040A8CF0A0927000B0927100C092720057
:10070000D0927300B0937400A0937500F0937600BC
:10071000E093770012C03981309370008A81809312
:1007200071002092720030927300409274005092D7
:1007300075006092760070927700809164009091CD
:1007400065009093630080936200909361008093B2
:1007500060002091700030917100409172005091C2
:100760007300609174007091750080917600909193
:100770007700C22ED32EE42EF52E20936C003093FA
:100780006D0040936E0050936F002093680030938B
:10079000690040936A0050936B00E0916600F0910D
:1007A0006700E815F90581F1909267008092660074
:1007B000892829F481E090E00E94590104C080E07A
:1007C00090E00E94590129853A854B855C856D85AD
:1007D0007E858F8598892058354E494F5F4F6F4FE2
:1007E0007F4F8F4F9F4F2093780030937900409335
:1007F0007A0050937B0060937C0070937D0080931F
:100800007E0090937F00C8C0EF3FAFEFFA07F1F58D
:10081000A0E00E940D0AF9F41092630010926200A9
:1008200081E090E0909361008093600088EF9AE20D
:10083000A0E0B0E080936C0090936D00A0936E00F8
:10084000B0936F008093680090936900A0936A0052
:10085000B0936B0022C188E893E1A0E0B0E0809300
:100860006C0090936D00A0936E00B0936F00E8EB66
:10087000CE0EEBE0DE1EE11CF11CC0926800D092AF
:100880006900E0926A00F0926B0086C0309709F030
:1008900043C000918200109183001E8B0D8B00914C
:1008A0008000109181002D893E892017310709F4BD
:1008B00073C0C701B6010E94D7066B017C016D8928
:1008C0007E89601B710B80E090E00E94D7064B018F
:1008D0005C01A5019401C501B4010E94B3070E9407
:1008E00026089B01AC01C701B6010E94B30720E0B6
:1008F00030E048EC52E40E943006A70196010E94C5
:10090000C4050E94A20660936800709369008093FA
:100910006A0090936B0040C03197F1F5A0E00E940F
:100920000D0AF9F481E090E09093630080936200F7
:10093000109261001092600088EF9AE2A0E0B0E0AF
:1009400080936C0090936D00A0936E00B0936F0045
:100950008093680090936900A0936A00B0936B0045
:100960009CC038EBC30E3BE0D31EE11CF11CC092CF
:100970006C00D0926D00E0926E00F0926F0088E8FB
:1009800093E1A0E0B0E08093680090936900A093A9
:100990006A00B0936B0081C0C0906800D09069007D
:1009A000E0906A00F0906B00D701C601880F991F94
:1009B000AA1FBB1F8C0D9D1DAE1DBF1DAC01BD012F
:1009C000440F551F661F771F440F551F661F771F63
:1009D0008C019D01040F151F261F371FC901B80187
:1009E00024E630E040E050E00E947B08C20ED31EB7
:1009F000E41EF51EC0926800D0926900E0926A0081
:100A0000F0926B0080916C0090916D00A0916E004F
:100A1000B0916F0081309446A105B10560F080E08F
:100A200094E6A0E0B0E080936C0090936D00A093FA
:100A30006E00B0936F0021E3C21625E7D206E104F1
:100A4000F10460F080E395E7A0E0B0E080936800F7
:100A500090936900A0936A00B0936B00809162004C
:100A600090916300892B11F0AA9801C0AA9A8091F5
:100A7000600090916100892B11F0AB9801C0AB9A96
:100A800080916800909169009BBD8ABD80916C0047
:100A900090916D0099BD88BD45C0C0906800D09010
:100AA0006900E0906A00F0906B00D701C601880FE2
:100AB000991FAA1FBB1F8C0D9D1DAE1DBF1DAC0134
:100AC000BD01440F551F661F771F440F551F661F3A
:100AD000771F8C019D01040F151F261F371FC901A9
:100AE000B80124E630E040E050E00E947B08C20EEE
:100AF000D31EE41EF51EC0926800D0926900E092F9
:100B00006A00F0926B0080916C0090916D00A09152
:100B10006E00B0916F0081309446A105B10508F4D4
:100B20009DCF7DCF80E090E067960FB6F894DEBF52
:100B30000FBECDBFDF91CF911F910F91FF90EF902E
:100B4000DF90CF90BF90AF909F908F907F906F90ED
:100B50005F904F903F902F90089578940E9450009E
:100B60000E9424010E944900E12CF12C01E010E0D8
:100B70002EE130E040E050E060E070E080E090E0A6
:100B80000E946901F1CF5058BB27AA270E94DB05BC
:100B90000C9479070E946B0738F00E94720720F0CE
:100BA00039F49F3F19F426F40C9458070EF4E0959D
:100BB000E7FB0C945207E92F0E948A0758F3BA17F3
:100BC000620773078407950720F079F4A6F50C9463
:100BD000AC070EF4E0950B2EBA2FA02D0B01B90136
:100BE00090010C01CA01A0011124FF27591B99F0A3
:100BF000593F50F4503E68F11A16F040A22F232FAF
:100C0000342F4427585FF3CF469537952795A795FE
:100C1000F0405395C9F77EF41F16BA0B620B730BA5
:100C2000840BBAF09150A1F0FF0FBB1F661F771F16
:100C3000881FC2F70EC0BA0F621F731F841F48F4CB
:100C4000879577956795B795F7959E3F08F0B0CF54
:100C50009395880F08F09927EE0F9795879508953B
:100C60000E9444060C9479070E94720758F00E9473
:100C70006B0740F029F45F3F29F00C9452075111A3
:100C80000C94AD070C9458070E948A0768F39923C7
:100C9000B1F3552391F3951B550BBB27AA27621778
:100CA0007307840738F09F5F5F4F220F331F441F85
:100CB000AA1FA9F335D00E2E3AF0E0E832D09150B9
:100CC0005040E695001CCAF72BD0FE2F29D0660FA6
:100CD000771F881FBB1F261737074807AB07B0E8E9
:100CE00009F0BB0B802DBF01FF2793585F4F3AF0EF
:100CF0009E3F510578F00C9452070C94AD075F3F6E
:100D0000E4F3983ED4F3869577956795B795F79574
:100D10009F5FC9F7880F911D9695879597F908955C
:100D2000E1E0660F771F881FBB1F621773078407F8
:100D3000BA0720F0621B730B840BBA0BEE1F88F707
:100D4000E09508950E94920788F09F5798F0B92F78
:100D50009927B751B0F0E1F0660F771F881F991FF0
:100D60001AF0BA95C9F714C0B13091F00E94AC07DF
:100D7000B1E008950C94AC07672F782F8827B85FEF
:100D800039F0B93FCCF3869577956795B395D9F748
:100D90003EF490958095709561957F4F8F4F9F4F52
:100DA000089597FB16F40E945B070C941507E894CE
:100DB00009C097FB3EF490958095709561957F4FA3
:100DC0008F4F9F4F9923A9F0F92F96E9BB27939551
:100DD000F695879577956795B795F111F8CFFAF461
:100DE000BB0F11F460FF1BC06F5F7F4F8F4F9F4F92
:100DF00016C0882311F096E911C0772321F09EE8F0
:100E0000872F762F05C0662371F096E8862F70E055
:100E100060E02AF09A95660F771F881FDAF7880F2F
:100E20009695879597F90895E894F92F96EBFF2307
:100E300081F0121613061406440B9395F6958795C8
:100E40007795679557954040FF23B9F71BC09927C1
:100E50000895882351F49850D2F7872B762F652F69
:100E6000542F432F322F20E0B1F31216130614062D
:100E7000440B88233AF09A95440F551F661F771F3D
:100E8000881FCAF755234AF4440F551F11F460FF19
:100E900004C06F5F7F4F8F4F9F4F880F9695879548
:100EA00097F9089597F99F6780E870E060E00895EA
:100EB0009FEF80EC08959095809570956095509582
:100EC0004095309521953F4F4F4F5F4F6F4F7F4F6C
:100ED0008F4F9F4F089500240A9416161706180680
:100EE0000906089500240A9412161306140605062E
:100EF0000895092E0394000C11F4882352F0BB0FBF
:100F000040F4BF2B11F460FF04C06F5F7F4F8F4F21
:100F10009F4F089557FD9058440F551F59F05F3F5C
:100F200071F04795880F97FB991F61F09F3F79F00B
:100F300087950895121613061406551FF2CF46958D
:100F4000F1DF08C0161617061806991FF1CF86950F
:100F50007105610508940895E894BB2766277727F3
:100F6000CB0197F908950E94C6070C9479070E9457
:100F70006B0738F00E94720720F0952311F00C9453
:100F800052070C94580711240C94AD070E948A074D
:100F900070F3959FC1F3950F50E0551F629FF001CC
:100FA000729FBB27F00DB11D639FAA27F00DB11DE5
:100FB000AA1F649F6627B00DA11D661F829F22276E
:100FC000B00DA11D621F739FB00DA11D621F839FF5
:100FD000A00D611D221F749F3327A00D611D231FCB
:100FE000849F600D211D822F762F6A2F11249F5719
:100FF00050409AF0F1F088234AF0EE0FFF1FBB1F1C
:10100000661F771F881F91505040A9F79E3F5105DA
:1010100080F00C9452070C94AD075F3FE4F3983EC8
:10102000D4F3869577956795B795F795E7959F5F84
:10103000C1F7FE2B880F911D9695879597F9089516
:1010400019F416F40C9458070C9466080E94920741
:10105000B8F39923C9F3B6F39F57550B87FF0E9446
:1010600074080024A0E640EA9001805856959795B0
:1010700028F4805C660F771F881F20F0261737073B
:10108000480730F4621B730B840B202931294A2B4B
:10109000A69517940794202531254A2758F7660FFF
:1010A000771F881F20F026173707480730F4620B98
:1010B000730B840B200D311D411DA09581F7B901E3
:1010C000842F9158880F9695879508959F3F31F00A
:1010D000915020F4879577956795B795880F911D66
:1010E0009695879597F9089591505040660F771F10
:1010F000881FD2F70895A1E21A2EAA1BBB1BFD017F
:101100000DC0AA1FBB1FEE1FFF1FA217B307E407E6
:10111000F50720F0A21BB30BE40BF50B661F771F3E
:10112000881F991F1A9469F760957095809590951E
:101130009B01AC01BD01CF010895DF93CF931F93B5
:101140000F939A9DF02D219FF00D8B9DF00D8A9DA0
:10115000E02DF10D039FF00D029FE00DF11D4E9D5E
:10116000E00DF11D5E9DF00D4F9DF00D7F936F938F
:10117000BF92AF925F934F93D5010E94190A8B01E2
:10118000AC01D7010E94190AEB01E80FF91FD60143
:101190000E94ED082F913F91D6010E94190AC60FB7
:1011A000D71FE81FF91FAF91BF910E94ED082F9143
:1011B0003F910E94190AC60FD71FE81FF91FD601D9
:1011C0000E94190AE60FF71F9801BE01CF011124F2
:1011D0000F911F91CF91DF9108950E94190A460F38
:1011E000571FC81FD91F08F431960895689401C08D
:1011F000E894F92FF12B12F00C942A09A0E0B0E04A
:10120000E4E0F9E00C949C09092E059422F40E9474
:101210008609112392F4F0E80F26FFEFE094F09492
:1012200000951095B094C094D094A194BF0ACF0AB1
:10123000DF0AEF0AFF0A0F0B1F0B0E94350907FC9C
:101240000E948609CDB7DEB7ECE00C94B80968942B
:1012500001C0E8948F929F92CF93DF930E9435094B
:10126000DF91CF919F908F90089588249924F40165
:10127000E401B0E49F93AA279A158B049C04ED0522
:10128000FE05CF05D007A10798F4AD2FDC2FCF2F97
:10129000FE2FE92D982C892E982F872F762F652FDA
:1012A000542F432F322F2227B85031F7BF9127C038
:1012B0001B2EBF91BB27220F331F441F551F661FD4
:1012C000771F881F991F881C991CEE1FFF1FCC1FBA
:1012D000DD1FAA1FBB1F8A149B04EC05FD05CE056C
:1012E000DF05A007B10748F08A189B08EC09FD0943
:1012F000CE09DF09A00BB10B21601A94E1F62EF4A0
:101300009401AF01BE01CD01000C08956095709568
:101310008095909530954095509521953F4F4F4F32
:101320005F4F6F4F7F4F8F4F9F4F08952F923F9288
:101330004F925F926F927F928F929F92AF92BF92E5
:10134000CF92DF92EF92FF920F931F93CF93DF9391
:10135000CDB7DEB7CA1BDB0B0FB6F894DEBF0FBEEE
:10136000CDBF09942A88398848885F846E847D843B
:101370008C849B84AA84B984C884DF80EE80FD803D
:101380000C811B81AA81B981CE0FD11D0FB6F894B3
:10139000DEBF0FBECDBFED0108950F93083090F072
:1013A000982F872F762F652F542F432F322F2227E8
:1013B0000850F4CF220F331F441F551F661F771F9D
:1013C000881F991F0A95B2F70F9108952A0D3B1DAA
:1013D0004C1D5D1D6E1D7F1D801F911F08950024F3
:1013E000A7FD00942A0F301D401D501D601D701D6B
:1013F000801D901D08952A193B094C095D096E094D
:101400007F09800B910B08952A153B054C055D055E
:101410006E057F058007910708950024A7FD0094BD
:101420002A173005400550056005700580059005B8
:101430000895A29FB001B39FC001A39F700D811DAD
:101440001124911DB29F700D811D1124911D0895CD
:04145000F894FFCF3E
:061454000100010001008F
:00000001FF
