:10000000B2C00000CDC00000CBC00000C9C00000DD
:10001000C7C00000C5C00000C3C00000C1C00000D0
:10002000BFC00000BDC00000BBC00000B9C00000E0
:10003000B7C00000B5C00000B3C00000B1C00000F0
:10004000AFC00000ADC00000ABC00000A9C0000000
:10005000A7C00000A5C00000A3C00000A1C0000010
:100060009FC00000A7C000009BC0000099C0000016
:1000700097C0000095C0000093C0000091C0000030
:100080008FC000008DC000008BC0000089C0000040
:1000900087C0000085C0000083C0000081C0000050
:1000A0007FC000007DC000007BC0000079C0000060
:1000B00077C0000075C0000073C0000071C0000070
:1000C0006FC000006DC000006BC0000069C0000080
:1000D00067C0000065C0000063C0000061C0000090
:1000E0005FC0000007634236B79BD8A71A3968562D
:1000F00018AEBAAB558C1D3CB7CC5763BD6DEDFD4A
:10010000753EF6177231BF000000803F0800000006
:10011000BE922449123EABAAAA2ABECDCCCC4C3EFC
:1001200000000080BEABAAAAAA3E00000000BF00EB
:100130000000803F0000000000084178D3BB4387E7
:10014000D1133D190E3CC3BD4282AD2B3E68EC82FB
:1001500076BED98FE1A93E4C80EFFFBE01C4FF7F80
:100160003F000000000011241FBECFEFD1E2DEBF30
:10017000CDBF12E0A0E0B2E0EEEAFBE000E00BBF92
:1001800002C007900D92A832B107D9F723E0A8E288
:10019000B2E001C01D92A933B207E1F70BD105C54A
:1001A0002FCF1092B90088E48093B80084E0809348
:1001B000BC0008951F920F920FB60F9211240BB638
:1001C0000F92DF92EF92FF920F931F932F933F9323
:1001D0004F935F936F937F938F939F93AF93BF934F
:1001E000CF93DF93EF93FF938091C60090ED980F2C
:1001F0009A30C0F490912703943709F0C1C0209140
:100200000002309101022F3F31050CF0B9C02F5F81
:100210003F4F3093010220930002F901E85DFD4F4A
:100220008083AEC09FE9980F9A3180F4853740F4FF
:10023000833748F4813639F0843609F0A1C003C011
:10024000873709F09DC0809327039AC08D3009F04D
:1002500097C0809127038437B1F500910002109177
:10026000010211230CF471C0C0E0D0E0D12CE12CCC
:10027000F12CB8016C1B7D0B072E000C880B990B21
:10028000A5D19B01AC0160E070E080E291E42AD24C
:10029000C85DDD4FC881C053D0E020E030E040E0D1
:1002A0005FE3FDD060D1C69F9001C79F300DD69F00
:1002B000300D1124E20EF31ED394CD2DD0E00C1797
:1002C0001D07BCF63DC0882309F45AC0833701F1ED
:1002D00028F4813691F0843631F13BC0843771F1D6
:1002E0008737B9F580912903813019F410922903D9
:1002F00030C081E0809329032CC080912A038F3F76
:1003000019F410922A0325C08FEF80932A0321C08D
:10031000809129038F3F19F4109229031AC08FEF9F
:100320008093290316C080912A03813019F410921A
:100330002A030FC081E080932A030BC0E12CF12C2B
:1003400085E6E816F10428F402C0E12CF12CE092D5
:100350002803109227038FEF9FEF90930102809361
:100360000002E8E2F3E04081042E000C550B6281AC
:10037000062E000C770B8181082E000C990B6CD097
:10038000FF91EF91DF91CF91BF91AF919F918F91AD
:100390007F916F915F914F913F912F911F910F919D
:1003A000FF90EF90DF900F900BBE0F900FBE0F905D
:1003B0001F9018951092C000E1ECF0E080818069F8
:1003C0008083808188608083E2ECF0E080818660B9
:1003D00080831092C50087E68093C4007894E1DEA4
:1003E0008BB183608BB9FFCFE0ECF0E0908195FF9B
:1003F000FDCF8093C60008950F931F93CF93FC0108
:100400008081882351F08F01C0E0EEDFCF5FF801DB
:10041000EC0FF11D80818111F8CFCF911F910F91C9
:100420000895CF93DF93CDB7DEB728970FB6F89432
:10043000DEBF0FBECDBF4AE0BE016F5F7F4F82D3EC
:10044000CE010196D9DF28960FB6F894DEBF0FBE15
:10045000CDBFDF91CF910895EF92FF920F931F933D
:10046000CF93DF937C018B01EA0185E092E0C4DF4A
:10047000C701D7DF81E192E0BFDFC801D2DF8AE1A7
:1004800092E0BADFCE01CDDF82E092E0B5DFDF910E
:10049000CF911F910F91FF90EF9008955058BB2777
:1004A000AA270ED0E5C0D6D030F0DBD020F031F452
:1004B0009F3F11F41EF4CBC00EF4E095E7FBC1C0E2
:1004C000E92FE7D080F3BA1762077307840795070F
:1004D00018F071F49EF5FFC00EF4E0950B2EBA2FC4
:1004E000A02D0B01B90190010C01CA01A00111243A
:1004F000FF27591B99F0593F50F4503E68F11A16E6
:10050000F040A22F232F342F4427585FF3CF469576
:1005100037952795A795F0405395C9F77EF41F1698
:10052000BA0B620B730B840BBAF09150A1F0FF0F62
:10053000BB1F661F771F881FC2F70EC0BA0F621F4E
:10054000731F841F48F4879577956795B795F7953E
:100550009E3F08F0B3CF9395880F08F09927EE0FD0
:1005600097958795089504D06894B111B5C0089502
:1005700098D088F09F5790F0B92F9927B751A0F0E5
:10058000D1F0660F771F881F991F1AF0BA95C9F727
:1005900012C0B13081F09FD0B1E008959CC0672FA8
:1005A000782F8827B85F39F0B93FCCF386957795D7
:1005B0006795B395D9F73EF49095809570956195C0
:1005C0007F4F8F4F9F4F0895E89409C097FB3EF4EB
:1005D00090958095709561957F4F8F4F9F4F992390
:1005E000A9F0F92F96E9BB279395F695879577950E
:1005F0006795B795F111F8CFFAF4BB0F11F460FFCE
:100600001BC06F5F7F4F8F4F9F4F16C0882311F025
:1006100096E911C0772321F09EE8872F762F05C039
:10062000662371F096E8862F70E060E02AF09A95D4
:10063000660F771F881FDAF7880F9695879597F9C9
:10064000089597F99F6780E870E060E008959FEF54
:1006500080EC089500240A94161617061806090659
:10066000089500240A941216130614060506089528
:10067000092E0394000C11F4882352F0BB0F40F4B0
:10068000BF2B11F460FF04C06F5F7F4F8F4F9F4FF0
:10069000089557FD9058440F551F59F05F3F71F072
:1006A0004795880F97FB991F61F09F3F79F08795D9
:1006B0000895121613061406551FF2CF4695F1DF62
:1006C00008C0161617061806991FF1CF86957105F2
:1006D000610508940895E894BB2766277727CB0126
:1006E00097F90895FA01EE0FFF1F309621053105A5
:1006F00099F16115710561F48038BFE39B0749F1F9
:1007000068949038810561F08038BFEF9B0741F015
:10071000992342F5FF3FE1053105210511F1E894E8
:100720000894E795D901AA2329F4AB2FBE2FF85FCF
:10073000D0F310C0FF5F70F4A695E0F7F73950F0E2
:1007400019F0FF3A38F49F779F930CD00F9007FC75
:10075000905808953EF07BCF60E070E080E89FE322
:1007600008954FE79F775F934F933F932F939ED0CA
:100770002F913F914F915F910CD105C019F40EF06C
:1007800060CFA9CF64CF8DDFC8F39638C0F707F8E4
:100790000F92E8942BE33AEA48EB5FE708D10F9217
:1007A0000F920F924DB75EB70F92C0D0E4EEF0E01B
:1007B00016D04F915F91EF91FF91E595EE1FFF1FCE
:1007C00049F0FE57E0684427EE0F441FFA95E1F721
:1007D0004195550B32D00F9007FE26C00895DF9348
:1007E000CF931F930F93FF92EF92DF927B018C01C7
:1007F000689405C0DA2EEF01D8D0FE01E894A591E7
:100800002591359145915591AEF3EF0159DEFE01E9
:100810009701A801DA9479F7DF90EF90FF900F919C
:100820001F91CF91DF9108959B01AC0160E070E0D2
:1008300080E89FE311C105CF77C133DFE8F3992347
:10084000D9F3940F511DBBF39150504094F059F0DF
:10085000882332F0660F771F881F91505040C1F7F0
:100860009E3F510544F7880F911D9695879597F9FE
:1008700008955F3FACF0983E9CF0BB278695779536
:100880006795B79508F4B1609395C1F7BB0F58F71A
:1008900011F460FFE8CF6F5F7F4F8F4F9F4FE3CF23
:1008A0001BCF0EF041C1D3CE6894CBCEFADEC8F395
:1008B0009923D1F3C6F3DF93CF931F930F93FF9246
:1008C000C92FDD2788232AF02197660F771F881FFD
:1008D000DAF720E030E040E85FEB9FE3883920F072
:1008E000803E30F021968F77DADDECE0F1E003C056
:1008F000D6DDE9E3F1E073DF8B01BE01EC01FB2EF5
:100900006F5771097595771F880B990B5FDE28E18A
:1009100032E741E35FE349D0AF2D9801AE01FF908C
:100920000F911F91CF91DF91CBDDA2CEFA01DC01B7
:10093000AA0FBB1F9B01AC01BF5728F42227332706
:10094000442750781FC0B75188F4AB2F0024469538
:1009500037952795011CA395D2F3002069F0220F4B
:10096000331F441FB395DAF30DD098CD6130710574
:10097000A0E88A07B94630F49B01AC0166277727C7
:1009800088279078309621F02083318342835383E7
:1009900008950BD06DCE5EDE28F063DE18F095234F
:1009A00009F04FCE54CE112497CE73DEA0F3959F5D
:1009B000D1F3950F50E0551F629FF001729FBB2746
:1009C000F00DB11D639FAA27F00DB11DAA1F649FF2
:1009D0006627B00DA11D661F829F2227B00DA11DA5
:1009E000621F739FB00DA11D621F839FA00D611D2B
:1009F000221F749F3327A00D611D231F849F600D4C
:100A0000211D822F762F6A2F11249F5750408AF084
:100A1000E1F088234AF0EE0FFF1FBB1F661F771F10
:100A2000881F91505040A9F79E3F510570F009CEA4
:100A300053CE5F3FECF3983EDCF386957795679550
:100A4000B795F795E7959F5FC1F7FE2B880F911D2E
:100A50009695879597F908950CD00ACE02DE40F05E
:100A6000F9DD30F021F45F3F19F0EBCD511134CEB8
:100A7000EECD0FDE98F39923C9F35523B1F3951BFF
:100A8000550BBB27AA2762177307840738F09F5FAF
:100A90005F4F220F331F441FAA1FA9F333D00E2E1E
:100AA0003AF0E0E830D091505040E695001CCAF78B
:100AB00029D0FE2F27D0660F771F881FBB1F261750
:100AC00037074807AB07B0E809F0BB0B802DBF0123
:100AD000FF2793585F4F2AF09E3F510568F0B1CD34
:100AE000FBCD5F3FECF3983EDCF3869577956795F9
:100AF000B795F7959F5FC9F7880F911D96958795D4
:100B000097F90895E1E0660F771F881FBB1F6217F2
:100B100073078407BA0720F0621B730B840BBA0BB0
:100B2000EE1F88F7E09508959F3F31F0915020F433
:100B3000879577956795B795880F911D96958795B9
:100B400097F90895BB274A3031F4992322F4BDE286
:100B5000909581959F4F01C0BB27FB015527AA2780
:100B6000880F991FAA1FA41710F0A41B839550513A
:100B7000B9F7A05DAA3308F0A95DA193009779F7B2
:100B8000B111B1931192CB0100C0DC01FC01672FC0
:100B900071917723E1F7329704C07C916D93708354
:0E0BA0006291AE17BF07C8F30895F894FFCF17
:100BAE00FFFF0D0A00446972656374696F6E3A2027
:100BBE00002C205475726E3A20002C205468726FEF
:080BCE0074746C653A2000000C
:00000001FF
