:10000000B2C00000D0C00000CEC00000CCC00000D4
:10001000CAC00000C8C00000C6C00000C4C00000C4
:10002000C2C00000C0C00000BEC00000BCC00000D4
:10003000BAC00000B8C00000B6C0000021C5000072
:10004000B2C00000B0C00000AEC00000ACC00000F4
:10005000AAC00000A8C00000A6C00000A4C0000004
:10006000A2C00000B7C000009EC000009CC00000FD
:100070009AC0000098C0000096C0000094C0000024
:1000800092C0000090C000008EC00000C5C10000FA
:100090008AC0000088C0000086C00000AEC3000017
:1000A00082C0000080C000007EC000007CC0000054
:1000B0007AC0000078C0000076C0000074C0000064
:1000C00072C0000070C000006EC000006CC0000074
:1000D0006AC0000068C0000066C0000064C0000084
:1000E00062C0000007634236B79BD8A71A3968562A
:1000F00018AEBAAB558C1D3CB7CC5763BD6DEDFD4A
:10010000753EF6177231BF000000803F0800000006
:10011000BE922449123EABAAAA2ABECDCCCC4C3EFC
:1001200000000080BEABAAAAAA3E00000000BF00EB
:100130000000803F0000000000084178D3BB4387E7
:10014000D1133D190E3CC3BD4282AD2B3E68EC82FB
:1001500076BED98FE1A93E4C80EFFFBE01C4FF7F80
:100160003F000000000011241FBECFEFD1E2DEBF30
:10017000CDBF00E00CBF12E0A0E0B2E0ECE7F4E19C
:1001800000E00BBF02C007900D92AA3BB107D9F760
:1001900024E0AAEBB2E001C01D92A131B207E1F761
:1001A00013D20C943C0A2CCF1092C000E1ECF0E08A
:1001B000808180698083808188608083E2ECF0E0C8
:1001C00080818660808380E190E09093C500809379
:1001D000C40008951F920F920FB60F9211240BB610
:1001E0000F92DF92EF92FF920F931F932F933F9303
:1001F0004F935F936F937F938F939F93AF93BF932F
:10020000CF93DF93EF93FF938091C60090ED980F0B
:100210009A30C0F49091BD03943709F0C4C0209186
:100220000002309101022F3F31050CF0BCC02F5F5E
:100230003F4F3093010220930002F901E254FD4F39
:100240008083B1C09FE9980F9A31A0F4813779F08B
:1002500030F4813661F0843609F0A5C008C08337D8
:1002600008F4A1C0853718F0873709F09CC0809347
:10027000BD0399C08D3009F096C08091BD038437CD
:10028000B1F5009100021091010211230CF47DC020
:10029000C0E0D0E0D12CE12CF12CB8016C1B7D0B1F
:1002A000072E000C880B990B86D59B01AC0160E0F2
:1002B00070E080E291E40BD6C254DD4FC881C05398
:1002C000D0E020E030E040E05FE3DED441D5C69FDF
:1002D0009001C79F300DD69F300D1124E20EF31E02
:1002E000D394CD2DD0E00C171D07BCF649C0882350
:1002F00009F459C08137D1F128F48136B1F0843640
:1003000051F149C08437D1F1873721F0833709F0A3
:1003100042C016C080910204813019F41092020488
:100320003AC081E08093020436C0809103048F3F7D
:1003300019F4109203042FC08FEF809303042BC095
:10034000809102048F3F19F41092020424C08FEFB1
:100350008093020420C080910304813019F410922C
:10036000030419C081E08093030415C0E0E0F4E0C9
:1003700011821082138281E082830DC0E12CF12C66
:1003800085E6E816F10438F402C0E12CF12CF09275
:100390000104E09200041092BD038FEF9FEF909351
:1003A000010280930002FF91EF91DF91CF91BF9105
:1003B000AF919F918F917F916F915F914F913F91FD
:1003C0002F911F910F91FF90EF90DF900F900BBE38
:1003D0000F900FBE0F901F901895E1E9F0E080811B
:1003E00081608083E1E7F0E080818160808310920A
:1003F0009500109294001092DA031092DB03109291
:10040000DC031092DD031092DE031092DF031092E2
:10041000E0031092E10308951F920F920FB60F921E
:1004200011242F933F934F935F936F937F938F93F9
:100430009F93AF932091DA033091DB034091DC036B
:100440005091DD036091DE037091DF038091E00342
:100450009091E103A1E0B9D72093DA033093DB0355
:100460004093DC035093DD036093DE037093DF035E
:100470008093E0039093E103AF919F918F917F91DF
:100480006F915F914F913F912F910F900FBE0F9001
:100490001F9018954F925F926F927F928F929F92CA
:1004A000AF92BF92CF92DF92EF92FF920F931F9382
:1004B00080909400909095002091DA033091DB03B6
:1004C0004091DC035091DD036091DE037091DF0306
:1004D0008091E0039091E103982C8824990C990C69
:1004E000990C990C092C000CAA08BB08BB202CF411
:1004F000EFEF8E0E9E1EA11CB11C2501772457FC28
:100500007094672CBB0C8808982C54010CE03BD7E6
:10051000F22FE32FC42ED52EE62EF72E082F192FFB
:10052000242D352D462D572D682D782D882D982D6D
:10053000AF2EBE2E41D71F910F91FF90EF90DF900D
:10054000CF90BF90AF909F908F907F906F905F9073
:100550004F9008951092B90088E48093B80085E028
:100560008093BC000895E1EBF0E080818760808398
:10057000E0E7F0E08081816080831092B20008950E
:10058000E2EEF3E011821082138212820895E0E01D
:10059000F4E0118210821282138280ED97E095833D
:1005A000848384EC99E09783868388E59BE1918737
:1005B000808788EC90E0A0E0B0E082879387A487F2
:1005C000B58781E086870895789407DFEDDDC2DF87
:1005D000CADFDDDFD5DFCCD2E7DDC0E0D4E040907C
:1005E000C2035090C3036090C4037090C50352DFF0
:1005F000F22FE32FC42ED52EE62EF72E082F192F1B
:10060000242D352D462D572D60E070E080E090E0E0
:10061000AF2EBE2EE6D608F04EC08AE092E078D229
:100620008DE092E075D2AED288D282E292E070D2B2
:100630008881998182D28FE292E06AD28A81813068
:1006400021F48EE392E064D20BC0811104C088E4EF
:1006500092E05ED205C08F3F19F485E592E058D252
:100660008B818F3F21F481E692E052D20BC0811141
:1006700004C08EE692E04CD205C0813019F48DE7BB
:1006800092E046D207DF822E932EA42EB52E8091C3
:10069000060290910702A0910802B0910902880E0B
:1006A000991EAA1EBB1E8092C2039092C303A09201
:1006B000C403B092C5034090BE035090BF03609046
:1006C000C0037090C103E6DEF22FE32FC42ED52EB7
:1006D000E62EF72E082F192F242D352D462D572DB8
:1006E00060E070E080E090E0AF2EBE2E7AD608F099
:1006F00076CF48D2288139812D33310548F42A81BB
:10070000213071F4843B910558F41982188208C095
:100710008831914028F48A81813011F4198218823D
:10072000B9DE822E932EA42EB52E809102029091D6
:100730000302A0910402B0910502880E991EAA1E20
:10074000BB1E8092BE039092BF03A092C003B092E2
:10075000C10345CFA2EEB3E0E6ECF3E0818190E087
:10076000982F88272281820F911D11969C938E933A
:10077000838190E0982F88272481820F911D139602
:100780009C938E931297858190E0982F88272681DD
:10079000820F911D15969C938E931497878190E0FC
:1007A000982F88272085820F911D17969C938E93F2
:1007B0001697818590E0982F88272285820F911DBA
:1007C00019969C938E93189708958091C603813053
:1007D00009F4C0CF0895ECEEF3E080E094E01192CC
:1007E000E817F907E1F70895E6ECF3E08AED93E006
:1007F0001192E817F907E1F708951F920F920FB6CB
:100800000F9211240BB60F922F933F934F935F9348
:100810006F937F938F939F93AF93BF93EF93FF93C8
:100820008091B900803569F0883551F18034A9F59F
:10083000DBDF1092BD021092BC0285EC8093BC00FD
:100840002CC08091BC029091BD022091BB00FC01A4
:10085000EA53FC4F2083823191054CF4019690932A
:10086000BD028093BC0285EC8093BC0016C001964B
:100870009093BD028093BC0285E88093BC000DC0BC
:100880008091BB00E091BC02F091BD02EA53FC4FA5
:10089000808385E98093BC0098DFFF91EF91BF9141
:1008A000AF919F918F917F916F915F914F913F9108
:1008B0002F910F900BBE0F900FBE0F901F901895A9
:1008C000ECEBF0E080818823ECF70895CF93DF9381
:1008D000CDB7DEB7CF5FD1090FB6F894DEBF0FBE3C
:1008E000CDBF9091B900987F891781F08BE892E095
:1008F0000FD18091B900887F40E1BE016F5F7F4FCB
:1009000090E087D505D186EB92E002D1C150DF4F50
:100910000FB6F894DEBF0FBECDBFDF91CF91089523
:10092000AF92BF92CF92DF92FF920F931F93CF931C
:10093000DF93C82F8B010F2EFCEBCF2ED12CF02D87
:1009400085EAF6018083BCDF88E0C0DFCC0FC0936E
:10095000BB0085E8F6018083B3DF88E1B7DFE801FB
:100960000C5E1F4F0F2EFBEBAF2EB12CF02D0F2E78
:10097000F5E8FF2EF02D8991F5018083F601F082D4
:100980009FDF88E2A3DFC017D107A9F785E980932D
:10099000BC00DF91CF911F910F91FF90DF90CF901E
:1009A000BF90AF90089517DF81E08093EC038091B2
:1009B0000004909101048536910530F084E690E0C2
:1009C0009093010480930004ECEEF3E0A0E0B4E027
:1009D0008C91818312968C9112978F5F82831396EC
:1009E0008C9113978F5F838314968C91149715962F
:1009F0009C9115979483858316968C9116971796DC
:100A00009C9117979683878318968C9118971996BF
:100A10009C911997908781871A968C911A971B96AB
:100A20009C911B97928783871E968C911E97848733
:100A30001F968C911F9750969C9195878687178655
:100A4000108A118A128A138ABF0183E069CF089540
:100A50000F931F93CF93C82F0CEB10E085EAF8019A
:100A600080832EDF88E032DFCC0FCF5FC093BB00E6
:100A700085E8F801808324DFCF911F910F910895BD
:100A80001F920F920FB60F9211240BB60F922F9355
:100A90003F934F935F936F937F938F939F93AF9306
:100AA000BF93EF93FF938091BA029091BB0286307F
:100AB000910511F478DF08C00C9734F083E0C8DFAB
:100AC0001092BB021092BA028091BA029091BB02BE
:100AD00001969093BB028093BA02FF91EF91BF9170
:100AE000AF919F918F917F916F915F914F913F91C6
:100AF0002F910F900BBE0F900FBE0F901F90189567
:100B0000E0ECF0E0908195FFFDCF8093C600089562
:100B10000F931F93CF93FC018081882351F08F01A5
:100B2000C0E0EEDFCF5FF801EC0FF11D8081811195
:100B3000F8CFCF911F910F910895CF93DF93CDB749
:100B4000DEB728970FB6F894DEBF0FBECDBF4AE0E0
:100B5000BE016F5F7F4F5DD4CE010196D9DF28962D
:100B60000FB6F894DEBF0FBECDBFDF91CF910895D1
:100B7000E1E8F0E08081826080831092850010922D
:100B800084000895CF93DF93109285001092840023
:100B9000AAE0B1E08C9182608C93EBE0F1E080817F
:100BA0008D7F80832AE02A95F1F700C080818260E2
:100BB00080838AE18A95F1F700C080818D7F8083F0
:100BC0008C918D7F8C9380E090E0DC01E9E0F1E096
:100BD0000AC00196A11DB11D81342CE99207A1051F
:100BE000B10509F445C0208121FDF3CFE9E0F1E032
:100BF0000DC0AC01BD014F5F5F4F6F4F7F4F803421
:100C00009C49A105B105B9F1DB01CA01208121FF91
:100C1000F0CFC0918400D0918500E9E0F1E00DC0F3
:100C2000AC01BD014F5F5F4F6F4F7F4F80349C49D8
:100C3000A105B10519F1DB01CA01208121FDF0CF29
:100C40002091840030918500C901A0E0B0E09C01B2
:100C5000AD012C1B3D0B41095109A3EBB6E089D333
:100C600020E23EE440E050E062D3C901059708C0AD
:100C700080E090E005C080E090E002C080E090E07D
:100C8000DF91CF9108955058BB27AA270ED0E5C019
:100C9000D6D030F0DBD020F031F49F3F11F41EF4B9
:100CA000CBC00EF4E095E7FBC1C0E92FE7D080F39D
:100CB000BA17620773078407950718F071F49EF559
:100CC000FFC00EF4E0950B2EBA2FA02D0B01B90139
:100CD00090010C01CA01A0011124FF27591B99F0B2
:100CE000593F50F4503E68F11A16F040A22F232FBE
:100CF000342F4427585FF3CF469537952795A7950E
:100D0000F0405395C9F77EF41F16BA0B620B730BB4
:100D1000840BBAF09150A1F0FF0FBB1F661F771F25
:100D2000881FC2F70EC0BA0F621F731F841F48F4DA
:100D3000879577956795B795F7959E3F08F0B3CF60
:100D40009395880F08F09927EE0F9795879508954A
:100D500004D06894B111B5C0089598D088F09F5719
:100D600090F0B92F9927B751A0F0D1F0660F771FF7
:100D7000881F991F1AF0BA95C9F712C0B13081F0D7
:100D80009FD0B1E008959CC0672F782F8827B85F67
:100D900039F0B93FCCF3869577956795B395D9F738
:100DA0003EF490958095709561957F4F8F4F9F4F42
:100DB0000895E89409C097FB3EF49095809570954E
:100DC00061957F4F8F4F9F4F9923A9F0F92F96E997
:100DD000BB279395F695879577956795B795F1110C
:100DE000F8CFFAF4BB0F11F460FF1BC06F5F7F4FA9
:100DF0008F4F9F4F16C0882311F096E911C07723BB
:100E000021F09EE8872F762F05C0662371F096E8C3
:100E1000862F70E060E02AF09A95660F771F881F92
:100E2000DAF7880F9695879597F9089597F99F6750
:100E300080E870E060E008959FEF80EC0895002462
:100E40000A941616170618060906089500240A942F
:100E500012161306140605060895092E0394000CB5
:100E600011F4882352F0BB0F40F4BF2B11F460FF44
:100E700004C06F5F7F4F8F4F9F4F089557FD90586D
:100E8000440F551F59F05F3F71F04795880F97FB4E
:100E9000991F61F09F3F79F0879508951216130608
:100EA0001406551FF2CF4695F1DF08C01616170637
:100EB0001806991FF1CF869571056105089408956C
:100EC000E894BB2766277727CB0197F90895FA01A5
:100ED000EE0FFF1F30962105310599F1611571055F
:100EE00061F48038BFE39B0749F16894903881052D
:100EF00061F08038BFEF9B0741F0992342F5FF3F37
:100F0000E1053105210511F1E8940894E795D9012F
:100F1000AA2329F4AB2FBE2FF85FD0F310C0FF5FD8
:100F200070F4A695E0F7F73950F019F0FF3A38F46D
:100F30009F779F930CD00F9007FC905808953EF038
:100F40007BCF60E070E080E89FE308954FE79F77F4
:100F50005F934F933F932F939ED02F913F914F914B
:100F60005F910CD105C019F40EF060CFA9CF64CF0A
:100F70008DDFC8F39638C0F707F80F92E8942BE39B
:100F80003AEA48EB5FE708D10F920F920F924DB704
:100F90005EB70F92C0D0E4EEF0E016D04F915F91B3
:100FA000EF91FF91E595EE1FFF1F49F0FE57E068B6
:100FB0004427EE0F441FFA95E1F74195550B32D0C7
:100FC0000F9007FE26C00895DF93CF931F930F93D2
:100FD000FF92EF92DF927B018C01689405C0DA2EBC
:100FE000EF01D8D0FE01E894A59125913591459166
:100FF0005591AEF3EF0159DEFE019701A801DA9495
:1010000079F7DF90EF90FF900F911F91CF91DF91D3
:1010100008959B01AC0160E070E080E89FE311C19E
:1010200005CF77C133DFE8F39923D9F3940F511D2E
:10103000BBF39150504094F059F0882332F0660F82
:10104000771F881F91505040C1F79E3F510544F7CC
:10105000880F911D9695879597F908955F3FACF09D
:10106000983E9CF0BB27869577956795B79508F4D1
:10107000B1609395C1F7BB0F58F711F460FFE8CF4B
:101080006F5F7F4F8F4F9F4FE3CF1BCF0EF041C15C
:10109000D3CE6894CBCEFADEC8F39923D1F3C6F34E
:1010A000DF93CF931F930F93FF92C92FDD278823E0
:1010B0002AF02197660F771F881FDAF720E030E0CB
:1010C00040E85FEB9FE3883920F0803E30F02196C6
:1010D0008F77DADDECE0F1E003C0D6DDE9E3F1E0A3
:1010E00073DF8B01BE01EC01FB2E6F577109759503
:1010F000771F880B990B5FDE28E132E741E35FE35E
:1011000049D0AF2D9801AE01FF900F911F91CF9163
:10111000DF91CBDDA2CEFA01DC01AA0FBB1F9B0140
:10112000AC01BF5728F422273327442750781FC02B
:10113000B75188F4AB2F0024469537952795011CAD
:10114000A395D2F3002069F0220F331F441FB395FB
:10115000DAF30DD098CD61307105A0E88A07B94661
:1011600030F49B01AC01662777278827907830966A
:1011700021F0208331834283538308950BD06DCEB9
:101180005EDE28F063DE18F0952309F04FCE54CED2
:10119000112497CE73DEA0F3959FD1F3950F50E005
:1011A000551F629FF001729FBB27F00DB11D639F19
:1011B000AA27F00DB11DAA1F649F6627B00DA11DBF
:1011C000661F829F2227B00DA11D621F739FB00D65
:1011D000A11D621F839FA00D611D221F749F3327D5
:1011E000A00D611D231F849F600D211D822F762F6E
:1011F0006A2F11249F5750408AF0E1F088234AF06B
:10120000EE0FFF1FBB1F661F771F881F91505040B6
:10121000A9F79E3F510570F009CE53CE5F3FECF326
:10122000983EDCF3869577956795B795F795E795A2
:101230009F5FC1F7FE2B880F911D9695879597F9B3
:1012400008950CD00ACE02DE40F0F9DD30F021F432
:101250005F3F19F0EBCD511134CEEECD0FDE98F398
:101260009923C9F35523B1F3951B550BBB27AA2727
:1012700062177307840738F09F5F5F4F220F331F99
:10128000441FAA1FA9F333D00E2E3AF0E0E830D065
:1012900091505040E695001CCAF729D0FE2F27D068
:1012A000660F771F881FBB1F261737074807AB0736
:1012B000B0E809F0BB0B802DBF01FF2793585F4FAB
:1012C0002AF09E3F510568F0B1CDFBCD5F3FECF3B6
:1012D000983EDCF3869577956795B795F7959F5F70
:1012E000C9F7880F911D9695879597F90895E1E0C4
:1012F000660F771F881FBB1F621773078407BA0723
:1013000020F0621B730B840BBA0BEE1F88F7E0957D
:1013100008959F3F31F0915020F487957795679518
:10132000B795880F911D9695879597F90895A1E235
:101330001A2EAA1BBB1BFD010DC0AA1FBB1FEE1F4F
:10134000FF1FA217B307E407F50720F0A21BB30B9A
:10135000E40BF50B661F771F881F991F1A9469F716
:1013600060957095809590959B01AC01BD01CF0172
:10137000089540D0A59F900DB49F900DA49F800D1F
:10138000911D112408950F93083090F0982F872F06
:10139000762F652F542F432F322F22270850F4CF5A
:1013A000220F331F441F551F661F771F881F991F69
:1013B0000A95B2F70F9108952A0D3B1D4C1D5D1D36
:1013C0006E1D7F1D801F911F08950024A7FD0094AE
:1013D0002A0F301D401D501D601D701D801D901D69
:1013E00008952A153B054C055D056E057F058007B0
:1013F00091070895A29FB001B39FC001A39F700DF4
:10140000811D1124911DB29F700D811D1124911D0C
:101410000895BB274A3031F4992322F4BDE2909518
:1014200081959F4F01C0BB27FB015527AA27880F35
:10143000991FAA1FA41710F0A41B83955051B9F748
:10144000A05DAA3308F0A95DA193009779F7B111C7
:10145000B1931192CB0100C0DC01FC01672F7191A7
:101460007723E1F7329704C07C916D93708362918A
:0C147000AE17BF07C8F30895F894FFCF33
:10147C00FFFFA086010090D003000C0D004469739F
:10148C0074616E636520746F206F626A6563743A71
:10149C0020006D6D0A0A0D53706565643A200025B5
:1014AC000A0D446972656374696F6E3A2000466F69
:1014BC0072776172642C200053746174696F6E6171
:1014CC0072792C20004261636B77617264732C20FB
:1014DC00007475726E696E67206C65667400676F58
:1014EC00696E6720737472616967687400747572D1
:1014FC006E696E67207269676874000A0A0D45523E
:10150C00524F523A2057726F6E6720737461747524
:10151C00732120436F64652072657472696576650A
:0A152C00643A203078000A0A0D002E
:00000001FF
