:10000000B2C00000D0C00000CEC00000CCC00000D4
:10001000CAC00000C8C00000C6C00000C4C00000C4
:10002000C2C00000C0C00000BEC00000BCC00000D4
:10003000BAC00000B8C00000B6C00000B4C00000E4
:10004000B2C00000B0C00000AEC00000ACC00000F4
:10005000AAC00000A8C00000A6C00000A4C0000004
:10006000A2C00000E4C000009EC000009CC00000D0
:100070009AC0000098C0000096C0000094C0000024
:1000800092C0000090C000008EC00000EFC10000D0
:100090008AC0000088C0000086C0000084C0000044
:1000A00082C0000080C000007EC000007CC0000054
:1000B0007AC0000078C0000076C0000074C0000064
:1000C00072C0000070C000006EC000006CC0000074
:1000D0006AC0000068C0000066C0000064C0000084
:1000E00062C0000007634236B79BD8A71A3968562A
:1000F00018AEBAAB558C1D3CB7CC5763BD6DEDFD4A
:10010000753EF6177231BF000000803F0800000006
:10011000BE922449123EABAAAA2ABECDCCCC4C3EFC
:1001200000000080BEABAAAAAA3E00000000BF00EB
:100130000000803F0000000000084178D3BB4387E7
:10014000D1133D190E3CC3BD4282AD2B3E68EC82FB
:1001500076BED98FE1A93E4C80EFFFBE01C4FF7F80
:100160003F000000000011241FBECFEFD1E2DEBF30
:10017000CDBF00E00CBF12E0A0E0B2E0E0E4F2E1AD
:1001800000E00BBF02C007900D92AA33B107D9F768
:1001900023E0AAE3B2E001C01D92AF35B207E1F758
:1001A000A5D20C941E092CCF1092B90088E480933C
:1001B000B80084E08093BC000895ECEBF0E09081FF
:1001C0009062908390819923ECF7880F8093BB0015
:1001D00084E88093BC00ECEBF0E080818823ECF7AE
:1001E0006093BB0084E88093BC00ECEBF0E080817E
:1001F0008823ECF784E98093BC0008951092C00036
:10020000E1ECF0E080818069808380818860808378
:10021000E2ECF0E08081866080831092C50087E682
:100220008093C40008958BB183608BB908951F92A9
:100230000F920FB60F9211240BB60F92DF92EF922E
:10024000FF920F931F932F933F934F935F936F935F
:100250007F938F939F93AF93BF93CF93DF93EF934E
:10026000FF938091C60090ED980F9A30C0F4909162
:100270003903943709F0C1C0209100023091010286
:100280002F3F31050CF0B9C02F5F3F4F3093010273
:1002900020930002F901E65CFD4F8083AEC09FE928
:1002A000980F9A3180F4853740F4833748F48136CB
:1002B00039F0843609F0A1C003C0873709F09DC02A
:1002C000809339039AC08D3009F097C0809139032B
:1002D0008437B1F5009100021091010211230CF452
:1002E00071C0C0E0D0E0D12CE12CF12CB8016C1B26
:1002F0007D0B072E000C880B990B18D49B01AC01C9
:1003000060E070E080E291E49DD4C65CDD4FC8817E
:10031000C053D0E020E030E040E05FE370D3D3D3BF
:10032000C69F9001C79F300DD69F300D1124E20E5D
:10033000F31ED394CD2DD0E00C171D07BCF63DC0A5
:10034000882309F45AC0833701F128F4813691F0EB
:10035000843631F13BC0843771F18737B9F580912C
:100360005303813019F41092530330C081E080931D
:1003700053032CC0809154038F3F19F410925403FF
:1003800025C08FEF8093540321C0809153038F3F8A
:1003900019F4109253031AC08FEF8093530316C0C1
:1003A00080915403813019F4109254030FC081E0FE
:1003B000809354030BC0E12CF12C85E6E816F10480
:1003C00028F402C0E12CF12CE09252031092390380
:1003D0008FEF9FEF9093010280930002E2E5F3E03C
:1003E0004081042E000C550B6281062E000C770B09
:1003F0008181082E000C990B31D2FF91EF91DF9192
:10040000CF91BF91AF919F918F917F916F915F91AC
:100410004F913F912F911F910F91FF90EF90DF909F
:100420000F900BBE0F900FBE0F901F901895E1E933
:10043000F0E0808181608083E1E7F0E0808181608D
:1004400080831092950010929400109246031092AF
:100450004703109248031092490310924A031092E6
:100460004B0310924C0310924D0308951F920F926C
:100470000FB60F9211242F933F934F935F936F9377
:100480007F938F939F93AF932091460330914703BF
:10049000409148035091490360914A0370914B0386
:1004A00080914C0390914D03A1E06CD620934603BC
:1004B00030934703409348035093490360934A03A2
:1004C00070934B0380934C0390934D03AF919F9196
:1004D0008F917F916F915F914F913F912F910F90ED
:1004E0000FBE0F901F9018954F925F926F927F9260
:1004F0008F929F92AF92BF92CF92DF92EF92FF9234
:100500000F931F9380909400909095002091460344
:1005100030914703409148035091490360914A0349
:1005200070914B0380914C0390914D03982C88243B
:10053000990C990C990C990C092C000CAA08BB0871
:10054000BB202CF4EFEF8E0E9E1EA11CB11C2501CA
:10055000772457FC7094672CBB0C8808982C5401A6
:100560000CE0EED5F22FE32FC42ED52EE62EF72E7B
:10057000082F192F242D352D462D572D682D782D18
:10058000882D982DAF2EBE2EF4D51F910F91FF9080
:10059000EF90DF90CF90BF90AF909F908F907F9023
:1005A0006F905F904F900895EEE4F3E01182108217
:1005B000138212820895E2E5F3E010821182128222
:1005C0008EE1838388EB9BE09583848388E893E1C5
:1005D0009783868380E49DE0A3E0B0E080879187E5
:1005E000A287B38781E0848708950F931F93CF93E9
:1005F000DF93EC018C010C5E1F4F699188E0DDDD1B
:10060000C017D107D1F7DF91CF911F910F910895B6
:100610000F931F93CF93DF93CDB7DEB764970FB6D9
:10062000F894DEBF0FBECDBF81E0898302E513E001
:10063000F80180818A8381818F5F8B8382818F5FC4
:100640008C8383818D83848195814FEF489F9001B6
:10065000499F300D11240024220F331F001C220F4C
:10066000331F001C232F302DA9E1B4E050D59695FF
:1006700087958E8386819781489F9001499F300D91
:100680001124329522952F7023273F702327A9ED3F
:10069000B5E13DD596958795929582958F7089277E
:1006A0009F7089278F83608571858285938520ED72
:1006B00037E040E050E009D52887F8018485898734
:1006C000FE013A96CE0145961192E817F907E1F737
:1006D000CE0101968ADF64960FB6F894DEBF0FBE96
:1006E000CDBFDF91CF911F910F91089578949FDE38
:1006F0005BDD99DD60DF58DFD3D080DDF5DEA090D3
:100700003E03B0903F03C0904003D0904103E0907F
:100710004203F090430300914403109145033ED5FA
:1007200061F158F175DFE0DEA22EB32EC42ED52E76
:10073000E62EF72E082F192F8091060290910702BE
:10074000A0910802B0910902282F392F4A2F5B2F60
:1007500060E070E080E090E00CD520933E033093A1
:100760003F034093400350934103609342037093CF
:100770004303809344039093450340903A03509081
:100780003B0360903C0370903D03AEDEF22FE32FFD
:10079000C42ED52EE62EF72E082F192F242D352DF9
:1007A000462D572D60E070E080E090E0AF2EBE2E29
:1007B000F5D408F0A3CFFFD097DE822E932EA42E7F
:1007C000B52E8091020290910302A0910402B09193
:1007D0000502880E991EAA1EBB1E80923A039092B3
:1007E0003B03A0923C03B0923D0388CFE0ECF0E0E5
:1007F000908195FFFDCF8093C60008950F931F93BE
:10080000CF93FC018081882351F08F01C0E0EEDF9F
:10081000CF5FF801EC0FF11D80818111F8CFCF91EE
:100820001F910F910895CF93DF93CDB7DEB728972F
:100830000FB6F894DEBF0FBECDBF4AE0BE016F5FBA
:100840007F4FC9D4CE010196D9DF28960FB6F89410
:10085000DEBF0FBECDBFDF91CF910895EF92FF9223
:100860000F931F93CF93DF937C018B01EA018DE0FF
:1008700092E0C4DFC701D7DF89E192E0BFDFC801A2
:10088000D2DF82E292E0BADFCE01CDDF8AE092E0F1
:10089000B5DFDF91CF911F910F91FF90EF900895F9
:1008A000E1E8F0E080818260808310928500109200
:1008B00084000895CF93DF931092850010928400F6
:1008C000AAE0B1E08C9182608C93EBE0F1E0808152
:1008D0008D7F80832AE02A95F1F700C080818260B5
:1008E00080838AE18A95F1F700C080818D7F8083C3
:1008F0008C918D7F8C9380E090E0DC01E9E0F1E069
:100900000AC00196A11DB11D81342CE99207A105F1
:10091000B10509F445C0208121FDF3CFE9E0F1E004
:100920000DC0AC01BD014F5F5F4F6F4F7F4F8034F3
:100930009C49A105B105B9F1DB01CA01208121FF64
:10094000F0CFC0918400D0918500E9E0F1E00DC0C6
:10095000AC01BD014F5F5F4F6F4F7F4F80349C49AB
:10096000A105B10519F1DB01CA01208121FDF0CFFC
:100970002091840030918500C901A0E0B0E09C0185
:10098000AD012C1B3D0B41095109A3EBB6E0CED3C1
:1009900020E23EE440E050E098D3C901059708C04A
:1009A00080E090E005C080E090E002C080E090E050
:1009B000DF91CF9108950F931F93CF93DF937ADF49
:1009C0009C016AE070E06ED38B0146EF4603E001C4
:1009D000479FD00D1124C20FD31F8FE292E00EDF8C
:1009E000C80121DF8EE202DFCE011DDF8AE092E046
:1009F00005DFDF91CF911F910F9108955058BB27CC
:100A0000AA270ED0E5C0D6D030F0DBD020F031F4EC
:100A10009F3F11F41EF4CBC00EF4E095E7FBC1C07C
:100A2000E92FE7D080F3BA176207730784079507A9
:100A300018F071F49EF5FFC00EF4E0950B2EBA2F5E
:100A4000A02D0B01B90190010C01CA01A0011124D4
:100A5000FF27591B99F0593F50F4503E68F11A1680
:100A6000F040A22F232F342F4427585FF3CF469511
:100A700037952795A795F0405395C9F77EF41F1633
:100A8000BA0B620B730B840BBAF09150A1F0FF0FFD
:100A9000BB1F661F771F881FC2F70EC0BA0F621FE9
:100AA000731F841F48F4879577956795B795F795D9
:100AB0009E3F08F0B3CF9395880F08F09927EE0F6B
:100AC00097958795089504D06894B111B5C008959D
:100AD00098D088F09F5790F0B92F9927B751A0F080
:100AE000D1F0660F771F881F991F1AF0BA95C9F7C2
:100AF00012C0B13081F09FD0B1E008959CC0672F43
:100B0000782F8827B85F39F0B93FCCF38695779571
:100B10006795B395D9F73EF490958095709561955A
:100B20007F4F8F4F9F4F0895E89409C097FB3EF485
:100B300090958095709561957F4F8F4F9F4F99232A
:100B4000A9F0F92F96E9BB279395F69587957795A8
:100B50006795B795F111F8CFFAF4BB0F11F460FF68
:100B60001BC06F5F7F4F8F4F9F4F16C0882311F0C0
:100B700096E911C0772321F09EE8872F762F05C0D4
:100B8000662371F096E8862F70E060E02AF09A956F
:100B9000660F771F881FDAF7880F9695879597F964
:100BA000089597F99F6780E870E060E008959FEFEF
:100BB00080EC089500240A941616170618060906F4
:100BC000089500240A9412161306140605060895C3
:100BD000092E0394000C11F4882352F0BB0F40F44B
:100BE000BF2B11F460FF04C06F5F7F4F8F4F9F4F8B
:100BF000089557FD9058440F551F59F05F3F71F00D
:100C00004795880F97FB991F61F09F3F79F0879573
:100C10000895121613061406551FF2CF4695F1DFFC
:100C200008C0161617061806991FF1CF869571058C
:100C3000610508940895E894BB2766277727CB01C0
:100C400097F90895FA01EE0FFF1F3096210531053F
:100C500099F16115710561F48038BFE39B0749F193
:100C600068949038810561F08038BFEF9B0741F0B0
:100C7000992342F5FF3FE1053105210511F1E89483
:100C80000894E795D901AA2329F4AB2FBE2FF85F6A
:100C9000D0F310C0FF5F70F4A695E0F7F73950F07D
:100CA00019F0FF3A38F49F779F930CD00F9007FC10
:100CB000905808953EF07BCF60E070E080E89FE3BD
:100CC00008954FE79F775F934F933F932F939ED065
:100CD0002F913F914F915F910CD105C019F40EF007
:100CE00060CFA9CF64CF8DDFC8F39638C0F707F87F
:100CF0000F92E8942BE33AEA48EB5FE708D10F92B2
:100D00000F920F924DB75EB70F92C0D0E4EEF0E0B5
:100D100016D04F915F91EF91FF91E595EE1FFF1F68
:100D200049F0FE57E0684427EE0F441FFA95E1F7BB
:100D30004195550B32D00F9007FE26C00895DF93E2
:100D4000CF931F930F93FF92EF92DF927B018C0161
:100D5000689405C0DA2EEF01D8D0FE01E894A59181
:100D60002591359145915591AEF3EF0159DEFE0184
:100D70009701A801DA9479F7DF90EF90FF900F9137
:100D80001F91CF91DF9108959B01AC0160E070E06D
:100D900080E89FE311C105CF77C133DFE8F39923E2
:100DA000D9F3940F511DBBF39150504094F059F07A
:100DB000882332F0660F771F881F91505040C1F78B
:100DC0009E3F510544F7880F911D9695879597F999
:100DD00008955F3FACF0983E9CF0BB2786957795D1
:100DE0006795B79508F4B1609395C1F7BB0F58F7B5
:100DF00011F460FFE8CF6F5F7F4F8F4F9F4FE3CFBE
:100E00001BCF0EF041C1D3CE6894CBCEFADEC8F32F
:100E10009923D1F3C6F3DF93CF931F930F93FF92E0
:100E2000C92FDD2788232AF02197660F771F881F97
:100E3000DAF720E030E040E85FEB9FE3883920F00C
:100E4000803E30F021968F77DADDECE0F1E003C0F0
:100E5000D6DDE9E3F1E073DF8B01BE01EC01FB2E8F
:100E60006F5771097595771F880B990B5FDE28E125
:100E700032E741E35FE349D0AF2D9801AE01FF9027
:100E80000F911F91CF91DF91CBDDA2CEFA01DC0152
:100E9000AA0FBB1F9B01AC01BF5728F422273327A1
:100EA000442750781FC0B75188F4AB2F00244695D3
:100EB00037952795011CA395D2F3002069F0220FE6
:100EC000331F441FB395DAF30DD098CD613071050F
:100ED000A0E88A07B94630F49B01AC016627772762
:100EE00088279078309621F0208331834283538382
:100EF00008950BD06DCE5EDE28F063DE18F09523EA
:100F000009F04FCE54CE112497CE73DEA0F3959FF7
:100F1000D1F3950F50E0551F629FF001729FBB27E0
:100F2000F00DB11D639FAA27F00DB11DAA1F649F8C
:100F30006627B00DA11D661F829F2227B00DA11D3F
:100F4000621F739FB00DA11D621F839FA00D611DC5
:100F5000221F749F3327A00D611D231F849F600DE6
:100F6000211D822F762F6A2F11249F5750408AF01F
:100F7000E1F088234AF0EE0FFF1FBB1F661F771FAB
:100F8000881F91505040A9F79E3F510570F009CE3F
:100F900053CE5F3FECF3983EDCF3869577956795EB
:100FA000B795F795E7959F5FC1F7FE2B880F911DC9
:100FB0009695879597F908950CD00ACE02DE40F0F9
:100FC000F9DD30F021F45F3F19F0EBCD511134CE53
:100FD000EECD0FDE98F39923C9F35523B1F3951B9A
:100FE000550BBB27AA2762177307840738F09F5F4A
:100FF0005F4F220F331F441FAA1FA9F333D00E2EB9
:101000003AF0E0E830D091505040E695001CCAF725
:1010100029D0FE2F27D0660F771F881FBB1F2617EA
:1010200037074807AB07B0E809F0BB0B802DBF01BD
:10103000FF2793585F4F2AF09E3F510568F0B1CDCE
:10104000FBCD5F3FECF3983EDCF386957795679593
:10105000B795F7959F5FC9F7880F911D969587956E
:1010600097F90895E1E0660F771F881FBB1F62178D
:1010700073078407BA0720F0621B730B840BBA0B4B
:10108000EE1F88F7E09508959F3F31F0915020F4CE
:10109000879577956795B795880F911D9695879554
:1010A00097F9089597FB072E16F4009406D077FD64
:1010B00008D07DD007FC05D03EF4909581959F4FD8
:1010C0000895709561957F4F0895A1E21A2EAA1B8D
:1010D000BB1BFD010DC0AA1FBB1FEE1FFF1FA217E8
:1010E000B307E407F50720F0A21BB30BE40BF50BE5
:1010F000661F771F881F991F1A9469F7609570956E
:10110000809590959B01AC01BD01CF010895A29FF0
:10111000B001B39FC001A39F700D811D1124911DCB
:10112000B29F700D811D1124911D0895F0DFA59FC0
:10113000900DB49F900DA49F800D911D11240895D2
:101140000F93083090F0982F872F762F652F542F0C
:10115000432F322F22270850F4CF220F331F441F72
:10116000551F661F771F881F991F0A95B2F70F91A9
:1011700008952A0D3B1D4C1D5D1D6E1D7F1D801F9A
:10118000911F08950024A7FD00942A0F301D401DD3
:10119000501D601D701D801D901D08952A153B0572
:1011A0004C055D056E057F05800791070895AA1B14
:1011B000BB1B51E107C0AA1FBB1FA617B70710F042
:1011C000A61BB70B881F991F5A95A9F78095909574
:1011D000BC01CD010895BB274A3031F4992322F494
:1011E000BDE2909581959F4F01C0BB27FB0155271C
:1011F000AA27880F991FAA1FA41710F0A41B839574
:101200005051B9F7A05DAA3308F0A95DA1930097EA
:1012100079F7B111B1931192CB0100C0DC01FC014F
:10122000672F71917723E1F7329704C07C916D931A
:1012300070836291AE17BF07C8F30895F894FFCF8B
:10124000FFFFA0860100A08601000D0A004469721C
:10125000656374696F6E3A20002C205475726E3A83
:1012600020002C205468726F74746C653A2000441E
:0A127000697374616E63653A200033
:00000001FF
