:10000000CCC00000EAC00000E8C00000E6C000006C
:10001000E4C00000E2C00000E0C00000DEC000005C
:10002000DCC00000DAC00000D8C00000D6C000006C
:10003000D4C00000D2C00000D0C000001AC600002A
:10004000CCC00000CAC00000C8C00000C6C000008C
:10005000C4C00000C2C00000C0C00000BEC000009C
:10006000BCC00000D1C00000B8C00000B6C0000095
:10007000B4C00000B2C00000B0C00000AEC00000BC
:10008000ACC00000AAC00000A8C00000C5C20000AB
:10009000A4C00000A2C00000A0C00000EBC300008C
:1000A0009CC000009AC0000098C0000096C00000EC
:1000B00094C0000092C0000090C000008EC00000FC
:1000C0008CC000008AC0000088C0000086C000000C
:1000D00084C0000082C0000080C000007EC000001C
:1000E0007CC000001A02C302C3022702C302C3027B
:1000F000C302C302C302C302C302C3025902B6024F
:10010000C30299024E0243020D0234028C02C30262
:100110000002C302C302BB0207634236B79BD8A7E3
:100120001A39685618AEBAAB558C1D3CB7CC57631C
:10013000BD6DEDFD753EF6177231BF000000803FCA
:1001400008000000BE922449123EABAAAA2ABECDE6
:10015000CCCC4C3E00000080BEABAAAAAA3E000058
:100160000000BF000000803F000000000008417850
:10017000D3BB4387D1133D190E3CC3BD4282AD2B87
:100180003E68EC8276BED98FE1A93E4C80EFFFBE7F
:1001900001C4FF7F3F000000000011241FBECFEF0D
:1001A000D1E2DEBFCDBF00E00CBF13E0A0E0B2E0C3
:1001B000E4E5FCE100E00BBF02C007900D92A8311E
:1001C000B107D9F729E0A8E1B3E001C01D92AC3432
:1001D000B207E1F723D60C94280E12CF1092C0007C
:1001E000E1ECF0E080818069808380818860808399
:1001F000E2ECF0E080818660808380E190E0909383
:10020000C5008093C40008951F920F920FB60F92FD
:1002100011240BB60F92CF92DF92EF92FF920F93C1
:100220001F932F933F934F935F936F937F938F937E
:100230009F93AF93BF93CF93DF93EF93FF938091FF
:10024000C6008093000290ED980F9A3010F0803233
:1002500099F420910102309102022F3F31050CF0F8
:10026000A1C12F5F3F4F3093020220930102F90199
:10027000E556FC4F808396C19FE9980F9A3128F488
:10028000823629F0809303028DC1823651F4809129
:100290000102909102020197909302028093010261
:1002A00081C18D3009F07EC10091010210910202DE
:1002B00011230CF491C0E0E3F3E011821082138269
:1002C000128215821482EAE2F3E08FEF9FEF9183AE
:1002D0008083938382839583848310922503109275
:1002E000240380E090E020E040E050E0FC01E5568F
:1002F000FC4F3081303279F44F5F5F4FFA01EE0FDF
:10030000FF1FEC5DFC4F01969183808343305105C4
:100310000CF042C10AC0FA01EE0FFF1FE65DFC4F70
:10032000808191810196918380832F5F822F90E05D
:1003300008171907DCF630C1F901E556FC4FC080FB
:1003400080E2C81209C08FEFE81AF80A83E0E816C5
:10035000F1040CF041C039C0E701CC0FDD1FDE0114
:10036000A65DBC4FFE01EC5DFC4F6D917C918081E0
:100370009181680F791F621B730B072E000C880B8D
:10038000990B0E94A20A9B01AC0160E070E080E240
:1003900091E40E94910BC05DDC4F20E030E040E032
:1003A0005FE3D1D70E946F0A20ED2C0D422F50E061
:1003B000469F9001479F300D569F300D1124888134
:1003C0009981820F931F99838883D3942D2D30E0D8
:1003D000021713070CF0B0CFE0910302EE2309F4EB
:1003E000D2C08E2F90E0FC01E156F109EA31F1050F
:1003F00008F0C9C08827EE58FF4F8F4F0C94180D96
:100400001092370380918603813019F4109286038D
:10041000BAC081E080938603B6C010923703809102
:1004200086038F3F19F410928603ADC08FEF80933F
:100430008603A9C010923703809187038F3F19F478
:1004400010928703A0C08FEF809387039CC0109207
:10045000370380918703813019F41092870393C08A
:1004600081E0809387038FC010923703809130031F
:10047000909131038536910508F085C090938503EE
:100480008093840380C01092370380913003909151
:10049000310390938B0380938A0375C010923703C6
:1004A0008091300390913103909389038093880366
:1004B0006AC080913A0390913B039C012F5F3F4FAC
:1004C00030933B0320933A039C01220F331F820F8A
:1004D000931FFC01EE0FFF1FE456FB4FA0E3B3E0B8
:1004E0002D913C91119731832083FC01EE0FFF1F6A
:1004F000E256FB4F12962D913C9113973183208346
:10050000880F991FFC01E056FB4F14968D919C912A
:1005100015979183808337C080913A0390913B0374
:100520001816190684F5019790933B0380933A03BC
:100530002AC0809130039091310320913A03309189
:100540003B0382179307F8F49093390380933803A1
:1005500081E080933703809193039091940390936B
:100560009B0480939A04109236030DC010923B03B3
:1005700010923A0308C010923703E4E8F3E01182C6
:10058000108213821282109203028FEF9FEF9093DA
:1005900002028093010206C020E030E0D12CE12C61
:1005A000F12CCACEFF91EF91DF91CF91BF91AF9126
:1005B0009F918F917F916F915F914F913F912F917B
:1005C0001F910F91FF90EF90DF90CF900F900BBE97
:1005D0000F900FBE0F901F901895E1E9F0E0808119
:1005E00081608083E1E7F0E0808181608083109208
:1005F00095001092940010925E0310925F03109287
:1006000060031092610310926203109263031092D0
:1006100064031092650308951F920F920FB60F9214
:1006200011242F933F934F935F936F937F938F93F7
:100630009F93AF9320915E0330915F0340916003DD
:100640005091610360916203709163038091640330
:1006500090916503A1E00E94C80D20935E03309342
:100660005F03409360035093610360936203709350
:1006700063038093640390936503AF919F918F917F
:100680007F916F915F914F913F912F910F900FBE8E
:100690000F901F9018954F925F926F927F928F925A
:1006A0009F92AF92BF92CF92DF92EF92FF920F9301
:1006B0001F93809094009090950020915E0330915C
:1006C0005F034091600350916103609162037091F8
:1006D00063038091640390916503982C8824990C9E
:1006E000990C990C990C092C000CAA08BB08BB208A
:1006F0002CF4EFEF8E0E9E1EA11CB11C2501772459
:1007000057FC7094672CBB0C8808982C54010CE0A3
:100710000E94880DF22FE32FC42ED52EE62EF72E41
:10072000082F192F242D352D462D572D682D782D66
:10073000882D982DAF2EBE2E0E94BF0D1F910F91B8
:10074000FF90EF90DF90CF90BF90AF909F908F90F1
:100750007F906F905F904F9008951092B90088E459
:100760008093B80085E08093BC000895E1EBF0E051
:10077000808187608083E0E7F0E080818160808312
:100780001092B2000895E6E6F3E01182108213821F
:1007900012820895E4E8F3E011821082128213823B
:1007A00084E293E19583848388E293E2978386834E
:1007B00088E893E19187808788EC90E0A0E0B0E042
:1007C00082879387A487B58781E086870895A6E608
:1007D000B3E0EAE4F3E0818190E0982F882722815A
:1007E000820F911D11969C938E93838190E0982F98
:1007F00088272481820F911D13969C938E931297C4
:10080000858190E0982F88272681820F911D15966B
:100810009C938E931497878190E0982F882720854A
:10082000820F911D17969C938E931697818590E069
:10083000982F88272285820F911D19969C938E935D
:100840001897089580914A03813009F4C0CF089524
:10085000E0E7F3E084E893E01192E817F907E1F7A5
:100860000895EAE4F3E08EE593E01192E817F907C2
:10087000E1F708951F920F920FB60F9211240BB655
:100880000F92AF92BF92CF92DF92EF92FF920F93AF
:100890001F932F933F934F935F936F937F938F9308
:1008A0009F93AF93BF93CF93DF93EF93FF93809189
:1008B000B9008035C1F08835A9F1803409F08AC0CB
:1008C00080913C0390913D03892B21F085E8809332
:1008D000BC0080C0C6DF10921F0310921E0385EC7F
:1008E0008093BC0077C080911E0390911F032091DC
:1008F000BB00FC01E65BFC4F2083823191054CF488
:10090000019690931F0380931E0385EC8093BC0097
:1009100061C0019690931F0380931E0385E8809326
:10092000BC0058C080913C0390913D03892B71F429
:100930008091BB00E0911E03F0911F03E65BFC4F2A
:10094000808385E98093BC007DDF44C02091BB009B
:10095000C4E8D3E030E040E050E060E070E080E0E8
:1009600090E003E00E94880DA22EB32EC42ED52E57
:10097000E62EF72EE82F192F02E00E94880D0E2F89
:100980000E94D40DA22EB32EC42ED52EE62EF72E05
:10099000E82F192F04E00E94880D0E2F0E94D40D1D
:1009A000AA24AA94B12CC12CD12CE12CF12C00E06A
:1009B00010E00E942C0D2F87388B498B5A8B6B8B44
:1009C0007C8B8D8B9E8B85E98093BC0010923D03C0
:1009D00010923C03FF91EF91DF91CF91BF91AF91C6
:1009E0009F918F917F916F915F914F913F912F9147
:1009F0001F910F91FF90EF90DF90CF90BF90AF903D
:100A00000F900BBE0F900FBE0F901F901895ECEB40
:100A1000F0E080818823ECF70895CF93DF93CDB782
:100A2000DEB7CF5FD1090FB6F894DEBF0FBECDBFE2
:100A30009091B900987F891789F080E192E0B6D350
:100A40008091B900887F40E1BE016F5F7F4F90E0E9
:100A50000E94F50DABD38BE392E0A8D3C150DF4FDA
:100A60000FB6F894DEBF0FBECDBFDF91CF910895D2
:100A7000AF92BF92CF92DF92FF920F931F93CF93CB
:100A8000DF93C82F8B010F2EFCEBCF2ED12CF02D36
:100A900085EAF6018083BBDF88E0BFDFCC0FC0931F
:100AA000BB0085E8F6018083B2DF88E1B6DFE801AC
:100AB0000C5E1F4F0F2EFBEBAF2EB12CF02D0F2E27
:100AC000F5E8FF2EF02D8991F5018083F601F08283
:100AD0009EDF88E2A2DFC017D107A9F785E98093DE
:100AE000BC00DF91CF911F910F91FF90DF90CF90CD
:100AF000BF90AF9008950F93CF93AADE81E08093CB
:100B0000700380918403909185038536910530F0C0
:100B100084E690E09093850380938403A0E7B3E09C
:100B2000E4E8F3E0808111968C93119782818F5FC6
:100B300012968C93129783818F5F13968C931397E1
:100B40008481958114969C93149715968C93159790
:100B50008681978116969C93169717968C93179774
:100B60008085918518969C93189719968C93199760
:100B7000828593851A969C931A971B968C931B9744
:100B800086851C968C931C97C7853089418952892C
:100B9000638974892C2F8589968908E0D4D71D969E
:100BA0002C931D971E96CC931E971F961C921F97F1
:100BB00050961C92509751961C92519752961C92A7
:100BC000529753961C925397BD0183E051DFCF910A
:100BD0000F910895EF92FF920F931F93CF93DF939E
:100BE00081E090E090933D0380933C03CCEBD0E018
:100BF00005EA08830CDF88E010DF0F2EFBEBEF2EF9
:100C0000F12CF02D80ECF701808315E81883FFDECE
:100C100088E103DF81E0F70180831883F8DE88E252
:100C2000FCDE0883F4DE80E1F8DE81ECF7018083EE
:100C30001883EDDEDF91CF911F910F91FF90EF9020
:100C400008950F931F93CF93C82F0CEB10E085EA04
:100C5000F8018083DCDE88E0E0DECC0FCF5FC0935C
:100C6000BB0085E8F8018083D2DECF911F910F9100
:100C700008951F920F920FB60F9211240BB60F9288
:100C80002F933F934F935F936F937F938F939F9394
:100C9000AF93BF93EF93FF9380911C0390911D033B
:100CA0008430910511F427DF0DC08830910511F4CF
:100CB00091DF08C00C9734F083E0C3DF10921D036E
:100CC00010921C0380911C0390911D030196909338
:100CD0001D0380931C03FF91EF91BF91AF919F91F2
:100CE0008F917F916F915F914F913F912F910F90D5
:100CF0000BBE0F900FBE0F901F9018954F925F92F2
:100D00006F927F928F929F92AF92BF92CF92DF921B
:100D1000EF92FF920F931F93399A579A809187030E
:100D20008F3FA9F5409018035090190360901A0363
:100D300070901B03B0DCF22FE32FC42ED52EE62ECD
:100D4000F72E082F192F242D352D462D572D60E015
:100D500070E080E090E0AF2EBE2E2FD7C0F498B1A7
:100D600082E0892788B997DC822E932EA42EB52E97
:100D700080E2880E81EA981E87E0A81EB11C80924E
:100D8000180390921903A0921A03B0921B0380914A
:100D900087038130A1F540901803509019036090AB
:100DA0001A0370901B0377DCF22FE32FC42ED52E8D
:100DB000E62EF72E082F192F242D352D462D572DD1
:100DC00060E070E080E090E0AF2EBE2EF6D6B8F482
:100DD0008BB180588BB95FDC822E932EA42EB52E5A
:100DE00080E2880E81EA981E87E0A81EB11C8092DE
:100DF000180390921903A0921A03B0921B031F913B
:100E00000F91FF90EF90DF90CF90BF90AF909F90A9
:100E10008F907F906F905F904F9008957894DDDB76
:100E2000DDD99BDCA3DCF2D1B5DCADDC00D2D6D9B8
:100E30000F2EF4E82F2EF3E03F2EF02D5FDF4090D1
:100E4000460350904703609048037090490323DCA9
:100E5000F22FE32FC42ED52EE62EF72E082F192FB2
:100E6000242D352D462D572D60E070E080E090E078
:100E7000AF2EBE2EA2D608F088C08FE392E096D1A6
:100E800082E492E093D1DDD1A6D187E592E08ED1C4
:100E9000F101878590899FD18BE692E087D184E725
:100EA00092E084D1F1018081918195D18FE792E028
:100EB0007DD1F1018281813021F48FE892E076D1F9
:100EC0000BC0811104C089E992E070D105C08F3F49
:100ED00019F486EA92E06AD1F10183818F3F21F40F
:100EE00082EB92E063D10BC0811104C08FEB92E0E2
:100EF0005DD105C0813019F48EEC92E057D18CEDB4
:100F000092E054D1F1018481958165D182EF92E024
:100F10004DD1F101868197815ED180E093E046D189
:100F2000809103023BD18DE093E040D1809101029A
:100F300090910202992384F00BE913E0C0E0D0E025
:100F4000F80181918F012AD121968091010290911F
:100F500002028C179D07A4F79EDB822E932EA42EEF
:100F6000B52E80910C0290910D02A0910E02B091CD
:100F70000F02880E991EAA1EBB1E809246039092F5
:100F80004703A0924803B092490340904203509017
:100F9000430360904403709045037DDBF22FE32F01
:100FA000C42ED52EE62EF72E082F192F242D352DE1
:100FB000462D572D60E070E080E090E0AF2EBE2E11
:100FC000FCD508F09CC0E6E6F3E080819181892B96
:100FD00019F0F1011182108234D18139F1E09F07BB
:100FE00078F020912203309123032130310541F420
:100FF0002091200330912103F101358324830FC018
:101000008D32F1E09F0758F02091220330912303A5
:101010002230310521F410922303109222039C0107
:101020002D5231402336310570F4F1012081318198
:101030002932310540F02281213029F488E290E004
:101040009183808343C09C0126553109263D31059B
:1010500070F4F101208131812A31310540F0828123
:101060008130A1F589E190E0918380832FC085359F
:10107000910560F5F1018281813041F58091220373
:1010800090912303009799F4848195819093210393
:101090008093200388E893E19583848311821082F2
:1010A000E1E0F0E0F0932303E09322030FC0019707
:1010B00069F48091200390912103F1019583848349
:1010C00082E090E09093230380932203E4DA822E5F
:1010D000932EA42EB52E8091080290910902A09122
:1010E0000A02B0910B02880E991EAA1EBB1E8092A6
:1010F000420390924303A0924403B0924503409070
:101100003E0350903F036090400370904103C3DA68
:10111000F22FE32FC42ED52EE62EF72E082F192FEF
:10112000242D352D462D572D60E070E080E090E0B5
:10113000AF2EBE2E42D508F081CEF10182818F3FC5
:1011400021F480819181459738F4E6E6F3E08081CF
:101150009181892B09F472CEE1E0F1E08081F8E021
:101160008F27E1E0F1E0808396DA822E932EA42E81
:10117000B52E8091040290910502A0910602B091D3
:101180000702880E991EAA1EBB1E80923E039092F3
:101190003F03A0924003B092410350CEE0ECF0E058
:1011A000908195FFFDCF8093C60008950F931F9304
:1011B000CF93FC018081882351F08F01C0E0EEDFE6
:1011C000CF5FF801EC0FF11D80818111F8CFCF9135
:1011D0001F910F910895CF93DF93CDB7DEB7289776
:1011E0000FB6F894DEBF0FBECDBF4AE0BE016F5F01
:1011F0007F4FFBD4CE010196D9DF28960FB6F89425
:10120000DEBF0FBECDBFDF91CF910895E0EAF0E0E1
:10121000808180648083E1EAF0E080818C6080835B
:101220008EE490E09093A9008093A8000895E1E8EF
:10123000F0E08081826080831092850010928400AB
:101240000895CF93DF931092850010928400AAE056
:10125000B1E08C9182608C93EBE0F1E080818D7F36
:1012600080832AE02A95F1F700C080818260808324
:101270008AE18A95F1F700C080818D7F80838C910F
:101280008D7F8C9380E090E0DC01E9E0F1E00AC022
:101290000196A11DB11D81342CE99207A105B1056C
:1012A00009F445C0208121FDF3CFE9E0F1E00DC054
:1012B000AC01BD014F5F5F4F6F4F7F4F80349C4942
:1012C000A105B105B9F1DB01CA01208121FFF0CFF1
:1012D000C0918400D0918500E9E0F1E00DC0AC013F
:1012E000BD014F5F5F4F6F4F7F4F80349C49A10519
:1012F000B10519F1DB01CA01208121FDF0CF209158
:10130000840030918500C901A0E0B0E09C01AD01EE
:101310002C1B3D0B41095109A3EBB6E091D320E210
:101320003EE440E050E062D3C901059708C080E088
:1013300090E005C080E090E002C080E090E0DF91A6
:10134000CF9108955058BB27AA270ED04DC13ED14A
:1013500030F043D120F031F49F3F11F41EF433C13B
:101360000EF4E095E7FB29C1E92F4FD180F3BA17BE
:10137000620773078407950718F071F49EF567C13B
:101380000EF4E0950B2EBA2FA02D0B01B9019001A0
:101390000C01CA01A0011124FF27591B99F0593FE4
:1013A00050F4503E68F11A16F040A22F232F342F2C
:1013B0004427585FF3CF469537952795A795F0407A
:1013C0005395C9F77EF41F16BA0B620B730B840B8F
:1013D000BAF09150A1F0FF0FBB1F661F771F881F47
:1013E000C2F70EC0BA0F621F731F841F48F487959F
:1013F00077956795B795F7959E3F08F0B3CF93958E
:10140000880F08F09927EE0F9795879508950CD0CF
:10141000EBC0E3D040F0DAD030F021F45F3F19F0B8
:10142000CCC0511115C1CFC0F0D098F39923C9F3A6
:101430005523B1F3951B550BBB27AA2762177307DA
:10144000840738F09F5F5F4F220F331F441FAA1F8E
:10145000A9F333D00E2E3AF0E0E830D0915050404E
:10146000E695001CCAF729D0FE2F27D0660F771FFC
:10147000881FBB1F261737074807AB07B0E809F0DE
:10148000BB0B802DBF01FF2793585F4F2AF09E3F73
:10149000510568F092C0DCC05F3FECF3983EDCF38E
:1014A000869577956795B795F7959F5FC9F7880FEC
:1014B000911D9695879597F90895E1E0660F771F3E
:1014C000881FBB1F621773078407BA0720F0621BCF
:1014D000730B840BBA0BEE1F88F7E095089504D0C8
:1014E0006894B111B5C0089598D088F09F5790F0D6
:1014F000B92F9927B751A0F0D1F0660F771F881F39
:10150000991F1AF0BA95C9F712C0B13081F09FD077
:10151000B1E008959CC0672F782F8827B85F39F015
:10152000B93FCCF3869577956795B395D9F73EF497
:1015300090958095709561957F4F8F4F9F4F08953F
:10154000E89409C097FB3EF490958095709561955D
:101550007F4F8F4F9F4F9923A9F0F92F96E9BB2713
:101560009395F695879577956795B795F111F8CF8F
:10157000FAF4BB0F11F460FF1BC06F5F7F4F8F4FFA
:101580009F4F16C0882311F096E911C0772321F0F0
:101590009EE8872F762F05C0662371F096E8862F88
:1015A00070E060E02AF09A95660F771F881FDAF7DF
:1015B000880F9695879597F9089597F99F6780E822
:1015C00070E060E008959FEF80EC089500240A9495
:1015D0001616170618060906089500240A9412160E
:1015E0001306140605060895092E0394000C11F441
:1015F000882352F0BB0F40F4BF2B11F460FF04C0EE
:101600006F5F7F4F8F4F9F4F089557FD9058440F46
:10161000551F59F05F3F71F04795880F97FB991F51
:1016200061F09F3F79F0879508951216130614060E
:10163000551FF2CF4695F1DF08C01616170618069B
:10164000991FF1CF86957105610508940895E89476
:10165000BB2766277727CB0197F908950BD0C4CF16
:10166000B5DF28F0BADF18F0952309F0A6CFABCF8D
:101670001124EECFCADFA0F3959FD1F3950F50E070
:10168000551F629FF001729FBB27F00DB11D639F34
:10169000AA27F00DB11DAA1F649F6627B00DA11DDA
:1016A000661F829F2227B00DA11D621F739FB00D80
:1016B000A11D621F839FA00D611D221F749F3327F0
:1016C000A00D611D231F849F600D211D822F762F89
:1016D0006A2F11249F5750408AF0E1F088234AF086
:1016E000EE0FFF1FBB1F661F771F881F91505040D2
:1016F000A9F79E3F510570F060CFAACF5F3FECF392
:10170000983EDCF3869577956795B795F795E795BD
:101710009F5FC1F7FE2B880F911D9695879597F9CE
:101720000895FA01EE0FFF1F30962105310599F15A
:101730006115710561F48038BFE39B0749F1689436
:101740009038810561F08038BFEF9B0741F0992305
:1017500042F5FF3FE1053105210511F1E8940894B8
:10176000E795D901AA2329F4AB2FBE2FF85FD0F358
:1017700010C0FF5F70F4A695E0F7F73950F019F04C
:10178000FF3A38F49F779F930CD00F9007FC905846
:1017900008953EF018CF60E070E080E89FE3089580
:1017A0004FE79F775F934F933F932F939ED02F9157
:1017B0003F914F915F9152DF05C019F40EF0FDCEBD
:1017C00046CF01CF2ADFC8F39638C0F707F80F924B
:1017D000E8942BE33AEA48EB5FE74EDF0F920F9273
:1017E0000F924DB75EB70F92C0D0E8E1F1E016D08E
:1017F0004F915F91EF91FF91E595EE1FFF1F49F02B
:10180000FE57E0684427EE0F441FFA95E1F7419533
:10181000550B32D00F9007FE26C00895DF93CF936B
:101820001F930F93FF92EF92DF927B018C016894DC
:1018300005C0DA2EEF011EDFFE01E894A591259187
:10184000359145915591AEF3EF018EDDFE01970183
:10185000A801DA9479F7DF90EF90FF900F911F9134
:10186000CF91DF9108959B01AC0160E070E080E8CA
:101870009FE3CDCDA2CEACC0D0DEE8F39923D9F35F
:10188000940F511DBBF39150504094F059F08823B0
:1018900032F0660F771F881F91505040C1F79E3F6E
:1018A000510544F7880F911D9695879597F90895EE
:1018B0005F3FACF0983E9CF0BB2786957795679587
:1018C000B79508F4B1609395C1F7BB0F58F711F4C1
:1018D00060FFE8CF6F5F7F4F8F4F9F4FE3CFB8CE52
:1018E0000EF076C070CE689468CE97DEC8F3992368
:1018F000D1F3C6F3DF93CF931F930F93FF92C92FBA
:10190000DD2788232AF02197660F771F881FDAF7D3
:1019100020E030E040E85FEB9FE3883920F0803E34
:1019200030F021968F770FDDE0E4F1E003C00BDDAE
:10193000EDE6F1E073DF8B01BE01EC01FB2E6F578A
:1019400071097595771F880B990BFCDD28E132E74B
:1019500041E35FE38FDEAF2D9801AE01FF900F9161
:101960001F91CF91DF9100DD3FCEFA01DC01AA0F7C
:10197000BB1F9B01AC01BF5728F422273327442704
:1019800050781FC0B75188F4AB2F00244695379587
:101990002795011CA395D2F3002069F0220F331F75
:1019A000441FB395DAF30DD0CDCC61307105A0E8BA
:1019B0008A07B94630F49B01AC0166277727882750
:1019C0009078309621F020833183428353830895A9
:1019D0009F3F31F0915020F4879577956795B795A3
:1019E000880F911D9695879597F90895A1E21A2E73
:1019F000AA1BBB1BFD010DC0AA1FBB1FEE1FFF1FB3
:101A0000A217B307E407F50720F0A21BB30BE40B02
:101A1000F50B661F771F881F991F1A9469F7609549
:101A20007095809590959B01AC01BD01CF01089503
:101A3000EE0FFF1F881F8BBF0790F691E02D1994C2
:101A4000C5D0A59F900DB49F900DA49F800D911DB2
:101A500011240895689401C0E8948F929F92CF93C7
:101A6000DF9305D0DF91CF919F908F9008958824C8
:101A70009924F401E401B0E49F93AA279A158B04FA
:101A80009C04ED05FE05CF05D007A10798F4AD2F06
:101A9000DC2FCF2FFE2FE92D982C892E982F872F02
:101AA000762F652F542F432F322F2227B85031F72E
:101AB000BF9127C01B2EBF91BB27220F331F441F8E
:101AC000551F661F771F881F991F881C991CEE1FC2
:101AD000FF1FCC1FDD1FAA1FBB1F8A149B04EC0530
:101AE000FD05CE05DF05A007B10748F08A189B0861
:101AF000EC09FD09CE09DF09A00BB10B21601A9496
:101B0000E1F62EF49401AF01BE01CD01000C089561
:101B10000F93083090F0982F872F762F652F542F32
:101B2000432F322F22270850F4CF220F331F441F98
:101B3000551F661F771F881F991F0A95B2F70F91CF
:101B4000089597FB10F8169400080F93083098F04A
:101B50000850232F342F452F562F672F782F892F8A
:101B6000902DF4CF05949795879577956795579520
:101B70004795379527950A95AAF70F9108952A0D4D
:101B80003B1D4C1D5D1D6E1D7F1D801F911F089507
:101B90000024A7FD00942A0F301D401D501D601D1C
:101BA000701D801D901D08952A193B094C095D097F
:101BB0006E097F09800B910B08952A153B054C0592
:101BC0005D056E057F05800791070895A29FB0010E
:101BD000B39FC001A39F700D811D1124911DB29F61
:101BE000700D811D1124911D0895BB274A3031F4D9
:101BF000992322F4BDE2909581959F4F01C0BB27A8
:101C0000FB015527AA27880F991FAA1FA41710F0B8
:101C1000A41B83955051B9F7A05DAA3308F0A95DC4
:101C2000A193009779F7B111B1931192CB0100C044
:101C3000DC01FC01672F71917723E1F7329704C033
:101C40007C916D9370836291AE17BF07C8F30895BE
:041C5000F894FFCF36
:101C540020FFFF2020A10700A086010090D00300F0
:101C64000A0A0D4552524F523A2057726F6E67203E
:101C74007374617475732120436F64652072657495
:101C84007269657665643A203078000A0A0D000CA2
:101C94000D0044697374616E636520746F206F6214
:101CA4006A6563743A20006D6D0A0D436F6D70614F
:101CB400737320416E676C653A2000206465677217
:101CC400656573000A0A0D53706565643A20002542
:101CD4000A0A0D446972656374696F6E3A2000469E
:101CE4006F72776172642C200053746174696F6E33
:101CF4006172792C20004261636B77617264732C8A
:101D040020007475726E696E67206C656674006776
:101D14006F696E67207374726169676874007475A3
:101D2400726E696E67207269676874000A0D416398
:101D340063656C65726174696F6E20726174653A73
:101D440020000A0D5475726E20726174653A200089
:101D54000A0A0D436F6D6D616E643A20000A0D56D8
:081D6400616C75653A20000076
:00000001FF
