:10000000CCC00000EAC00000E8C00000E6C000006C
:10001000E4C00000E2C00000E0C00000DEC000005C
:10002000DCC00000DAC00000D8C00000D6C000006C
:10003000D4C00000D2C00000D0C0000073C60000D1
:10004000CCC00000CAC00000C8C00000C6C000008C
:10005000C4C00000C2C00000C0C00000BEC000009C
:10006000BCC0000091C10000B8C00000B6C00000D4
:10007000B4C00000B2C00000B0C00000AEC00000BC
:10008000ACC00000AAC00000A8C00000C6C00000AC
:10009000A4C00000A2C00000A0C0000044C4000032
:1000A0009CC000009AC0000098C0000096C00000EC
:1000B00094C0000092C0000090C000008EC00000FC
:1000C0008CC000008AC0000088C0000086C000000C
:1000D00084C0000082C0000080C000007EC000001C
:1000E0007CC00000D5020F030F03E0020F030F03D3
:1000F0000F030F030F030F030F030F030F030F0370
:100100000F030F030003F702CA02EB020F030F03F2
:10011000BF020F030F03090307634236B79BD8A73B
:100120001A39685618AEBAAB558C1D3CB7CC57631C
:10013000BD6DEDFD753EF6177231BF000000803FCA
:1001400008000000BE922449123EABAAAA2ABECDE6
:10015000CCCC4C3E00000080BEABAAAAAA3E000058
:100160000000BF000000803F000000000008417850
:10017000D3BB4387D1133D190E3CC3BD4282AD2B87
:100180003E68EC8276BED98FE1A93E4C80EFFFBE7F
:1001900001C4FF7F3F000000000011241FBECFEF0D
:1001A000D1E2DEBFCDBF00E00CBF13E0A0E0B2E0C3
:1001B000EEE7FCE100E00BBF02C007900D92AC310E
:1001C000B107D9F724E0ACE1B3E001C01D92A83932
:1001D000B207E1F7DED70C943D0E12CFE1E9F0E073
:1001E000808181608083E1E7F0E0808181608083AD
:1001F000109295001092940010925C0310925D038F
:1002000010925E0310925F031092600310926103DC
:10021000109262031092630308951F920F920FB61B
:100220000F9211242F933F934F935F936F937F937C
:100230008F939F93AF9320915C0330915D03409126
:100240005E0350915F036091600370916103809140
:10025000620390916303A1E00E94DD0D20935C0393
:1002600030935D0340935E0350935F03609360039C
:10027000709361038093620390936303AF919F91A6
:100280008F917F916F915F914F913F912F910F903F
:100290000FBE0F901F9018954F925F926F927F92B2
:1002A0008F929F92AF92BF92CF92DF92EF92FF9286
:1002B0000F931F93809094009090950020915C0381
:1002C00030915D0340915E0350915F036091600344
:1002D000709161038091620390916303982C88244C
:1002E000990C990C990C990C092C000CAA08BB08C4
:1002F000BB202CF4EFEF8E0E9E1EA11CB11C25011D
:10030000772457FC7094672CBB0C8808982C5401F8
:100310000CE00E949D0DF22FE32FC42ED52EE62E69
:10032000F72E082F192F242D352D462D572D682DEA
:10033000782D882D982DAF2EBE2E0E94D40D1F91A2
:100340000F91FF90EF90DF90CF90BF90AF909F9074
:100350008F907F906F905F904F9008951092C000A3
:10036000E1ECF0E080818069808380818860808317
:10037000E2ECF0E080818660808380E190E0909301
:10038000C5008093C40008951F920F920FB60F927C
:1003900011240BB60F92CF92DF92EF92FF920F9340
:1003A0001F932F933F934F935F936F937F938F93FD
:1003B0009F93AF93BF93CF93DF93EF93FF9380917E
:1003C000C6008093020290ED980F9A3010F08032B0
:1003D00099F420910002309101022F3F31050CF079
:1003E0002DC12F5F3F4F3093010220930002F9018E
:1003F000E756FC4F808322C19FE9980F9A3128F479
:10040000823629F08093030219C1823651F480911B
:1004100000029091010201979093010280930002E3
:100420000DC18D3009F00AC1009100021091010246
:1004300011230CF490C0E4E3F3E0118210821382E4
:10044000128215821482EEE2F3E08FEF9FEF918328
:1004500080839383828395838483109229031092EF
:10046000280380E090E020E040E050E0FC01E75607
:10047000FC4F3081303279F44F5F5F4FFA01EE0F5D
:10048000FF1FE85DFC4F0196918380834330510547
:100490000CF0CEC00AC0FA01EE0FFF1FE25DFC4F68
:1004A000808191810196918380832F5F822F90E0DC
:1004B00008171907DCF6BCC0F901E756FC4FC080ED
:1004C00080E2C81209C08FEFE81AF80A83E0E81644
:1004D000F1040CF040C038C0E701CC0FDD1FDE0195
:1004E000A25DBC4FFE01E85DFC4F6D917C91808167
:1004F0009181680F791F621B730B072E000C880B0C
:10050000990B0E94B70A9B01AC0160E070E080E2A9
:1005100091E40E94A60BCC5CDC4F20E030E040E090
:100520005FE326D7F1D720ED2C0D422F50E0469FF8
:100530009001479F300D569F300D1124888199817D
:10054000820F931F99838883D3942D2D30E0021757
:1005500013070CF0B1CFE0910302EE2309F45FC062
:100560008E2F90E0FC01E156F109EA31F10508F027
:1005700056C08827EE58FF4F8F4F0C942D0D809159
:100580008403813019F41092840349C081E0809380
:10059000840345C0809184038F3F19F41092840333
:1005A0003EC08FEF809384033AC0809185038F3FD4
:1005B00019F41092850333C08FEF809385032FC009
:1005C00080918503813019F41092850328C081E061
:1005D0008093850324C08091340390913503853640
:1005E0009105E8F4909383038093820318C080916F
:1005F00034039091350390938903809388030FC04F
:100600008091340390913503909387038093860300
:1006100006C0E2E8F3E01182108213821282109287
:1006200003028FEF9FEF909301028093000206C0B8
:1006300020E030E0D12CE12CF12C3ECFFF91EF9166
:10064000DF91CF91BF91AF919F918F917F916F91EA
:100650005F914F913F912F911F910F91FF90EF90DC
:10066000DF90CF900F900BBE0F900FBE0F901F909A
:1006700018954F925F926F927F928F929F92AF9256
:10068000BF92CF92DF92EF92FF920F931F93CF937F
:10069000DF93409044035090450360904603709070
:1006A0004703FADDF22FE32FC42ED52EE62EF72EC8
:1006B000082F192F242D352D462D572D60E070E081
:1006C00080E090E0AF2EBE2E0E94F20D08F087C0B1
:1006D00080E192E080D583E192E07DD5C7D590D5C9
:1006E00088E292E078D5C2E8D3E08F85988988D5F2
:1006F0008CE392E070D585E492E06DD58881998194
:100700007FD584E592E067D58A81813021F484E643
:1007100092E061D50BC0811104C08EE692E05BD5FA
:1007200005C08F3F19F48BE792E055D58091850382
:100730008F3F21F487E892E04ED50BC0811104C0B1
:1007400084E992E048D505C0813019F483EA92E04B
:1007500042D581EB92E03FD5C2E8D3E08C819D8108
:100760004FD587EC92E037D58E819F8149D585EDB5
:1007700092E031D58091030226D582EE92E02BD50E
:100780008091000290910102992384F009E913E01D
:10079000C0E0D0E0F80181918F0115D521968091BC
:1007A0000002909101028C179D07A4F775DD822E3F
:1007B000932EA42EB52E80910C0290910D02A09143
:1007C0000E02B0910F02880E991EAA1EBB1E8092C7
:1007D000440390924503A0924603B0924703DF91F1
:1007E000CF911F910F91FF90EF90DF90CF90BF902E
:1007F000AF909F908F907F906F905F904F900895F3
:100800001092B90088E48093B80085E08093BC0022
:100810000895E1EBF0E0808187608083E0E7F0E01D
:100820008081816080831092B2000895E4E6F3E055
:10083000118210821382128215821482178216820C
:10084000118610860895E2E8F3E011821082128288
:10085000138284E293E19583848388E293E2978311
:10086000868388E893E19187808788EC90E0A0E018
:10087000B0E082879387A487B58781E08687089553
:10088000A4E6B3E0E8E4F3E0818190E0982F8827C4
:100890002281820F911D11969C938E93838190E00B
:1008A000982F88272481820F911D13969C938E93F5
:1008B0001297858190E0982F88272681820F911DBD
:1008C00015969C938E931497878190E0982F882794
:1008D0002085820F911D17969C938E931697818584
:1008E00090E0982F88272285820F911D19969C935E
:1008F0008E931897089580914803813009F4C0CFF2
:100900000895EEE6F3E082E893E01192E817F90724
:10091000E1F70895E8E4F3E08CE593E01192E8173D
:10092000F907E1F708951F920F920FB60F92112465
:100930000BB60F92AF92BF92CF92DF92EF92FF92DF
:100940000F931F932F933F934F935F936F937F93D7
:100950008F939F93AF93BF93CF93DF93EF93FF93C7
:100960008091B9008035C1F08835A9F1803409F053
:100970008AC080913A0390913B03892B21F085E84E
:100980008093BC0080C0C6DF10922703109226031C
:1009900085EC8093BC0077C080912603909127035B
:1009A0002091BB00FC01E85BFC4F20838231910564
:1009B0004CF40196909327038093260385EC809353
:1009C000BC0061C00196909327038093260385E8BD
:1009D0008093BC0058C080913A0390913B03892BCF
:1009E00071F48091BB00E0912603F0912703E85B4E
:1009F000FC4F808385E98093BC007DDF44C020915B
:100A0000BB00C2E8D3E030E040E050E060E070E0DE
:100A100080E090E003E00E949D0DA22EB32EC42E34
:100A2000D52EE62EF72EE82F192F02E00E949D0DFD
:100A30000E2F0E94E90DA22EB32EC42ED52EE62E27
:100A4000F72EE82F192F04E00E949D0D0E2F0E9413
:100A5000E90DAA24AA94B12CC12CD12CE12CF12CA3
:100A600000E010E00E94410D2F87388B498B5A8B94
:100A70006B8B7C8B8D8B9E8B85E98093BC00109259
:100A80003B0310923A03FF91EF91DF91CF91BF9119
:100A9000AF919F918F917F916F915F914F913F9116
:100AA0002F911F910F91FF90EF90DF90CF90BF900B
:100AB000AF900F900BBE0F900FBE0F901F90189528
:100AC000ECEBF0E080818823ECF70895CF93DF937F
:100AD000CDB7DEB7CF5FD1090FB6F894DEBF0FBE3A
:100AE000CDBF9091B900987F891789F08CEE92E084
:100AF00072D38091B900887F40E1BE016F5F7F4F64
:100B000090E00E940A0E67D387E193E064D3C1505E
:100B1000DF4F0FB6F894DEBF0FBECDBFDF91CF9190
:100B20000895AF92BF92CF92DF92FF920F931F93DF
:100B3000CF93DF93C82F8B010F2EFCEBCF2ED12C40
:100B4000F02D85EAF6018083BBDF88E0BFDFCC0FA4
:100B5000C093BB0085E8F6018083B2DF88E1B6DF91
:100B6000E8010C5E1F4F0F2EFBEBAF2EB12CF02DCA
:100B70000F2EF5E8FF2EF02D8991F5018083F60107
:100B8000F0829EDF88E2A2DFC017D107A9F785E9CE
:100B90008093BC00DF91CF911F910F91FF90DF9068
:100BA000CF90BF90AF9008950F93CF93AADE81E0CE
:100BB00080936E0380918203909183038536910523
:100BC00030F084E690E09093830380938203AEE656
:100BD000B3E0E2E8F3E0808111968C931197828173
:100BE0008F5F12968C93129783818F5F13968C93ED
:100BF00013978481958114969C93149715968C93E2
:100C000015978681978116969C93169717968C93C5
:100C100017978085918518969C93189719968C93B1
:100C20001997828593851A969C931A971B968C9395
:100C30001B9786851C968C931C97C78530894189A4
:100C40005289638974892C2F8589968908E08ED70B
:100C50001D962C931D971E96CC931E971F961C9243
:100C60001F9750961C92509751961C9251975296EE
:100C70001C92529753961C925397BD0183E051DF0B
:100C8000CF910F9108950F931F93CF93C82F0CEB23
:100C900010E085EAF801808313DF88E017DFCC0FCE
:100CA000CF5FC093BB0085E8F801808309DFCF9157
:100CB0001F910F910895EF92FF920F931F93CF937F
:100CC000DF9381E090E090933B0380933A03CCEB79
:100CD000D0E005EA0883F4DE88E0F8DE0F2EFBEBB7
:100CE000EF2EF12CF02D80ECF701808315E81883AE
:100CF000E7DE88E1EBDE81E0F70180831883E0DE48
:100D000088E2E4DE0883DCDE80E1E0DE81ECF701EE
:100D100080831883D5DEDF91CF911F910F91FF90D3
:100D2000EF9008951F920F920FB60F9211240BB6F9
:100D30000F922F933F934F935F936F937F938F9374
:100D40009F93AF93BF93EF93FF9380912403909170
:100D500025038330910511F427DF12C086309105F9
:100D600011F4A9DF0DC08930910519F483E08BDF00
:100D700007C00C972CF09FDF1092250310922403DC
:100D800080912403909125030196909325038093ED
:100D90002403FF91EF91BF91AF919F918F917F912C
:100DA0006F915F914F913F912F910F900BBE0F90DC
:100DB0000FBE0F901F9018954F925F926F927F9287
:100DC0008F929F92AF92BF92CF92DF92EF92FF925B
:100DD0000F931F93399A579A809185038F3FC1F5DE
:100DE00040902003509021036090220370902303D1
:100DF00053DAF22FE32FC42ED52EE62EF72E082F2E
:100E0000192F242D352D462D572D60E070E080E000
:100E100090E0AF2EBE2EE6D608F054C098B182E026
:100E2000892788B95F9838DA822E932EA42EB52EA2
:100E300080E2880E81EA981E87E0A81EB11C80928D
:100E4000200390922103A0922203B09223033AC080
:100E50008130B1F54090200350902103609022032F
:100E60007090230319DAF22FE32FC42ED52EE62E2D
:100E7000F72E082F192F242D352D462D572D60E0E4
:100E800070E080E090E0AF2EBE2EACD6D8F4419852
:100E90008BB180588BB900DA822E932EA42EB52EFA
:100EA00080E2880E81EA981E87E0A81EB11C80921D
:100EB000200390922103A0922203B092230302C048
:100EC00041985F981F910F91FF90EF90DF90CF9026
:100ED000BF90AF909F908F907F906F905F904F905A
:100EE00008954F925F926F927F928F929F92AF92EE
:100EF000BF92CF92DF92EF92FF920F931F93409099
:100F00004003509041036090420370904303C4D962
:100F1000F22FE32FC42ED52EE62EF72E082F192FF1
:100F2000242D352D462D572D60E070E080E090E0B7
:100F3000AF2EBE2E57D608F09FC098D1813921E040
:100F4000920780F020911E0330911F03213031055C
:100F500049F420911C0330911D03309387032093A3
:100F600086030FC08D3221E0920758F020911E03B6
:100F700030911F032230310521F410921F0310928B
:100F80001E039C012D5231402336310590F42091EF
:100F90008203309183032932310558F02091840374
:100FA000213039F488E290E09093830380938203A8
:100FB0004AC09C0126553109263D310590F4209107
:100FC0008203309183032A31310558F080918403E4
:100FD0008130C9F589E190E0909383038093820387
:100FE00032C08535910578F580918403813059F5BB
:100FF00080911E0390911F030097A9F4E2E8F3E0AB
:101000008481958190931D0380931C0388E893E16C
:10101000958384831182108281E090E090931F0376
:1010200080931E0310C0019771F480911C0390916E
:101030001D03909387038093860382E090E0909352
:101040001F0380931E0328D9822E932EA42EB52E23
:101050008091080290910902A0910A02B0910B02BE
:10106000880E991EAA1EBB1E8092400390924103D7
:10107000A0924203B09243031F910F91FF90EF9013
:10108000DF90CF90BF90AF909F908F907F906F90A8
:101090005F904F9008954F925F926F927F928F92E0
:1010A0009F92AF92BF92CF92DF92EF92FF920F93F7
:1010B0001F9340903C0350903D0360903E0370901E
:1010C0003F03EAD8F22FE32FC42ED52EE62EF72EBB
:1010D000082F192F242D352D462D572D60E070E057
:1010E00080E090E0AF2EBE2E7DD5A8F580918403E0
:1010F0008F3F31F48091820390918303459730F4C0
:101100008091640390916503892B01F1E1E0F1E0A6
:10111000908188E089278083BFD8822E932EA42EC9
:10112000B52E8091040290910502A0910602B09123
:101130000702880E991EAA1EBB1E80923C03909245
:101140003D03A0923E03B0923F0305C0E1E0F1E011
:101150008081877F8083809184038F3F59F08091C5
:10116000640390916503892B29F4E1E0F1E080812B
:10117000877F80831F910F91FF90EF90DF90CF903A
:10118000BF90AF909F908F907F906F905F904F90A7
:101190000895789423D8E2D833DB3BDB4CD053DB83
:1011A00045DB5AD0DBD8C4E6D3E002E813E08881FF
:1011B0009981892B19F0F801118210825ADA91DE97
:1011C000FBDD69DFF4CFE0ECF0E0908195FFFDCF2F
:1011D0008093C60008950F931F93CF93FC018081E5
:1011E000882351F08F01C0E0EEDFCF5FF801EC0FF4
:1011F000F11D80818111F8CFCF911F910F9108953A
:10120000CF93DF93CDB7DEB728970FB6F894DEBF44
:101210000FBECDBF4AE0BE016F5F7F4FFBD4CE0152
:101220000196D9DF28960FB6F894DEBF0FBECDBF6A
:10123000DF91CF910895E0EAF0E0808180648083BF
:10124000E1EAF0E080818C6080838EE490E090930E
:10125000A9008093A8000895E1E8F0E08081826011
:10126000808310928500109284000895CF93DF93BD
:101270001092850010928400AAE0B1E08C91826007
:101280008C93EBE0F1E080818D7F80832AE02A95CA
:10129000F1F700C08081826080838AE18A95F1F74E
:1012A00000C080818D7F80838C918D7F8C9380E0C6
:1012B00090E0DC01E9E0F1E00AC00196A11DB11D5A
:1012C00081342CE99207A105B10509F445C02081BC
:1012D00021FDF3CFE9E0F1E00DC0AC01BD014F5FAE
:1012E0005F4F6F4F7F4F80349C49A105B105B9F125
:1012F000DB01CA01208121FFF0CFC0918400D09191
:101300008500E9E0F1E00DC0AC01BD014F5F5F4F2A
:101310006F4F7F4F80349C49A105B10519F1DB0166
:10132000CA01208121FDF0CF2091840030918500F9
:10133000C901A0E0B0E09C01AD012C1B3D0B4109AF
:101340005109A3EBB6E091D320E23EE440E050E047
:1013500062D3C901059708C080E090E005C080E035
:1013600090E002C080E090E0DF91CF910895505866
:10137000BB27AA270ED04DC13ED130F043D120F07B
:1013800031F49F3F11F41EF433C10EF4E095E7FBF6
:1013900029C1E92F4FD180F3BA1762077307840779
:1013A000950718F071F49EF567C10EF4E0950B2EC9
:1013B000BA2FA02D0B01B90190010C01CA01A001A7
:1013C0001124FF27591B99F0593F50F4503E68F102
:1013D0001A16F040A22F232F342F4427585FF3CF43
:1013E000469537952795A795F0405395C9F77EF414
:1013F0001F16BA0B620B730B840BBAF09150A1F05D
:10140000FF0FBB1F661F771F881FC2F70EC0BA0FE2
:10141000621F731F841F48F4879577956795B7956A
:10142000F7959E3F08F0B3CF9395880F08F0992762
:10143000EE0F9795879508950CD0EBC0E3D040F060
:10144000DAD030F021F45F3F19F0CCC0511115C152
:10145000CFC0F0D098F39923C9F35523B1F3951B6E
:10146000550BBB27AA2762177307840738F09F5FC5
:101470005F4F220F331F441FAA1FA9F333D00E2E34
:101480003AF0E0E830D091505040E695001CCAF7A1
:1014900029D0FE2F27D0660F771F881FBB1F261766
:1014A00037074807AB07B0E809F0BB0B802DBF0139
:1014B000FF2793585F4F2AF09E3F510568F092C076
:1014C000DCC05F3FECF3983EDCF38695779567953B
:1014D000B795F7959F5FC9F7880F911D96958795EA
:1014E00097F90895E1E0660F771F881FBB1F621709
:1014F00073078407BA0720F0621B730B840BBA0BC7
:10150000EE1F88F7E095089504D06894B111B5C036
:10151000089598D088F09F5790F0B92F9927B75128
:10152000A0F0D1F0660F771F881F991F1AF0BA95A7
:10153000C9F712C0B13081F09FD0B1E008959CC0CE
:10154000672F782F8827B85F39F0B93FCCF386959D
:1015500077956795B395D9F73EF4909580957095FA
:1015600061957F4F8F4F9F4F0895E89409C097FB77
:101570003EF490958095709561957F4F8F4F9F4F6A
:101580009923A9F0F92F96E9BB279395F6958795AE
:1015900077956795B795F111F8CFFAF4BB0F11F471
:1015A00060FF1BC06F5F7F4F8F4F9F4F16C0882318
:1015B00011F096E911C0772321F09EE8872F762F4E
:1015C00005C0662371F096E8862F70E060E02AF08F
:1015D0009A95660F771F881FDAF7880F969587957B
:1015E00097F9089597F99F6780E870E060E00895A3
:1015F0009FEF80EC089500240A941616170618062B
:101600000906089500240A94121613061406050606
:101610000895092E0394000C11F4882352F0BB0F97
:1016200040F4BF2B11F460FF04C06F5F7F4F8F4FFA
:101630009F4F089557FD9058440F551F59F05F3F35
:1016400071F04795880F97FB991F61F09F3F79F0E4
:1016500087950895121613061406551FF2CF469566
:10166000F1DF08C0161617061806991FF1CF8695E8
:101670007105610508940895E894BB2766277727CC
:10168000CB0197F908950BD0C4CFB5DF28F0BADFAE
:1016900018F0952309F0A6CFABCF1124EECFCADF07
:1016A000A0F3959FD1F3950F50E0551F629FF00175
:1016B000729FBB27F00DB11D639FAA27F00DB11DCE
:1016C000AA1F649F6627B00DA11D661F829F222757
:1016D000B00DA11D621F739FB00DA11D621F839FDE
:1016E000A00D611D221F749F3327A00D611D231FB4
:1016F000849F600D211D822F762F6A2F11249F5702
:1017000050408AF0E1F088234AF0EE0FFF1FBB1F24
:10171000661F771F881F91505040A9F79E3F5105C3
:1017200070F060CFAACF5F3FECF3983EDCF3869574
:1017300077956795B795F795E7959F5FC1F7FE2B6E
:10174000880F911D9695879597F90895FA01EE0FE8
:10175000FF1F30962105310599F16115710561F47E
:101760008038BFE39B0749F168949038810561F0A8
:101770008038BFEF9B0741F0992342F5FF3FE10519
:101780003105210511F1E8940894E795D901AA23C0
:1017900029F4AB2FBE2FF85FD0F310C0FF5F70F4B9
:1017A000A695E0F7F73950F019F0FF3A38F49F7733
:1017B0009F930CD00F9007FC905808953EF018CFDF
:1017C00060E070E080E89FE308954FE79F775F93C4
:1017D0004F933F932F939ED02F913F914F915F91C5
:1017E00052DF05C019F40EF0FDCE46CF01CF2ADF3F
:1017F000C8F39638C0F707F80F92E8942BE33AEA5B
:1018000048EB5FE74EDF0F920F920F924DB75EB736
:101810000F92C0D0E8E1F1E016D04F915F91EF91C7
:10182000FF91E595EE1FFF1F49F0FE57E068442742
:10183000EE0F441FFA95E1F74195550B32D00F900A
:1018400007FE26C00895DF93CF931F930F93FF9257
:10185000EF92DF927B018C01689405C0DA2EEF01D4
:101860001EDFFE01E894A591259135914591559192
:10187000AEF3EF018EDDFE019701A801DA9479F74E
:10188000DF90EF90FF900F911F91CF91DF9108951E
:101890009B01AC0160E070E080E89FE3CDCDA2CE7B
:1018A000ACC0D0DEE8F39923D9F3940F511DBBF3FC
:1018B0009150504094F059F0882332F0660F771F12
:1018C000881F91505040C1F79E3F510544F7880F43
:1018D000911D9695879597F908955F3FACF0983ED6
:1018E0009CF0BB27869577956795B79508F4B1600E
:1018F0009395C1F7BB0F58F711F460FFE8CF6F5F06
:101900007F4F8F4F9F4FE3CFB8CE0EF076C070CE93
:10191000689468CE97DEC8F39923D1F3C6F3DF93BA
:10192000CF931F930F93FF92C92FDD2788232AF0AF
:101930002197660F771F881FDAF720E030E040E834
:101940005FEB9FE3883920F0803E30F021968F775F
:101950000FDDE0E4F1E003C00BDDEDE6F1E073DF65
:101960008B01BE01EC01FB2E6F5771097595771F36
:10197000880B990BFCDD28E132E741E35FE38FDE62
:10198000AF2D9801AE01FF900F911F91CF91DF9184
:1019900000DD3FCEFA01DC01AA0FBB1F9B01AC01A9
:1019A000BF5728F422273327442750781FC0B75148
:1019B00088F4AB2F0024469537952795011CA395F5
:1019C000D2F3002069F0220F331F441FB395DAF3DE
:1019D0000DD0CDCC61307105A0E88A07B94630F44E
:1019E0009B01AC016627772788279078309621F0F5
:1019F000208331834283538308959F3F31F0915078
:101A000020F4879577956795B795880F911D9695E2
:101A1000879597F90895A1E21A2EAA1BBB1BFD0119
:101A20000DC0AA1FBB1FEE1FFF1FA217B307E407BD
:101A3000F50720F0A21BB30BE40BF50B661F771F15
:101A4000881F991F1A9469F76095709580959095F5
:101A50009B01AC01BD01CF010895EE0FFF1F881F50
:101A60008BBF0790F691E02D1994C5D0A59F900DDE
:101A7000B49F900DA49F800D911D1124089568942A
:101A800001C0E8948F929F92CF93DF9305D0DF91AE
:101A9000CF919F908F90089588249924F401E401B8
:101AA000B0E49F93AA279A158B049C04ED05FE05CC
:101AB000CF05D007A10798F4AD2FDC2FCF2FFE2F35
:101AC000E92D982C892E982F872F762F652F542F4C
:101AD000432F322F2227B85031F7BF9127C01B2E3A
:101AE000BF91BB27220F331F441F551F661F771F4F
:101AF000881F991F881C991CEE1FFF1FCC1FDD1F1C
:101B0000AA1FBB1F8A149B04EC05FD05CE05DF054B
:101B1000A007B10748F08A189B08EC09FD09CE0917
:101B2000DF09A00BB10B21601A94E1F62EF49401A9
:101B3000AF01BE01CD01000C08950F93083090F065
:101B4000982F872F762F652F542F432F322F222740
:101B50000850F4CF220F331F441F551F661F771FF5
:101B6000881F991F0A95B2F70F91089597FB10F8F7
:101B7000169400080F93083098F00850232F342F44
:101B8000452F562F672F782F892F902DF4CF05944E
:101B900097958795779567955795479537952795A5
:101BA0000A95AAF70F9108952A0D3B1D4C1D5D1D46
:101BB0006E1D7F1D801F911F08950024A7FD0094B6
:101BC0002A0F301D401D501D601D701D801D901D71
:101BD00008952A193B094C095D096E097F09800B9C
:101BE000910B08952A153B054C055D056E057F0593
:101BF000800791070895A29FB001B39FC001A39FE2
:101C0000700D811D1124911DB29F700D811D112435
:101C1000911D0895BB274A3031F4992322F4BDE287
:101C2000909581959F4F01C0BB27FB015527AA279F
:101C3000880F991FAA1FA41710F0A41B8395505159
:101C4000B9F7A05DAA3308F0A95DA193009779F7D1
:101C5000B111B1931192CB0100C0DC01FC01672FDF
:101C600071917723E1F7329704C07C916D93708373
:0E1C70006291AE17BF07C8F30895F894FFCF36
:101C7E00FFFF202020A10700A086010090D00300C6
:101C8E000C0D0044697374616E636520746F206F70
:101C9E00626A6563743A20006D6D0A0D436F6D7054
:101CAE0061737320416E676C653A2000206465672E
:101CBE0072656573000A0A0D53657420737065654D
:101CCE00643A2000250A0A0D446972656374696FCF
:101CDE006E3A2000466F72776172642C2000537446
:101CEE006174696F6E6172792C20004261636B774B
:101CFE00617264732C20007475726E696E67206C4D
:101D0E0065667400676F696E6720737472616967C8
:101D1E006874007475726E696E6720726967687494
:101D2E00000A0D416363656C65726174696F6E20A4
:101D3E00726174653A20000A0D5475726E207261DC
:101D4E0074653A20000A0A0D436F6D6D616E643A38
:101D5E0020000A0D56616C75653A20000A0A0D4581
:101D6E0052524F523A2057726F6E672073746174DD
:101D7E0075732120436F6465207265747269657690
:0C1D8E0065643A203078000A0A0D00005D
:00000001FF
