S00F000041726475696E6F2E7372656343
S113000071C0000084C0000082C0000080C00000F5
S11300107EC000007CC000007AC0000078C00000F0
S113002076C0000074C0000072C0000070C0000000
S11300306EC000006CC000006AC0000068C0000010
S113004066C0000064C0000062C0000060C0000020
S11300505EC000005CC000005AC0000058C0000030
S113006056C0000055C0000052C0000050C000003F
S11300704EC000004CC000004AC0000048C0000050
S113008046C0000044C0000042C0000040C0000060
S11300903EC000003CC000003AC0000038C0000070
S11300A036C0000034C0000032C0000030C0000080
S11300B02EC000002CC000002AC0000028C0000090
S11300C026C0000024C0000022C0000020C00000A0
S11300D01EC000001CC000001AC0000018C00000B0
S11300E016C0000011241FBECFEFD1E2DEBFCDBF8A
S11300F012E0A0E0B2E0E8E9F1E000E00BBF02C0EA
S113010007900D92A230B107D9F71AD043C078CF27
S11301101F920F920FB60F9211248F938091C600F5
S1130120809300028F910F900FBE0F901F9018952F
S1130130E0ECF0E0908195FFFDCF8093C600089538
S1130140279A1092C000E1ECF0E0808180698083FE
S1130150E2ECF0E08081866080831092C50087E63F
S11301608093C400789482E4E3DF2FEF89E698E17A
S1130170215080409040E1F700C0000080910002CF
S1130180883411F42F9AEFCF809100028C3459F700
S10B01902F98E9CFF894FFCF8A
S1050198480019
S9030000FC
