S00F000041726475696E6F2E7372656343
S1130000CCC00000EAC00000E8C00000E6C0000068
S1130010E4C00000E2C00000E0C00000DEC0000058
S1130020DCC00000DAC00000D8C00000D6C0000068
S1130030D4C00000D2C00000D0C00000A3C500009E
S1130040CCC00000CAC00000C8C00000C6C0000088
S1130050C4C00000C2C00000C0C00000BEC0000098
S1130060BCC00000D1C00000B8C00000B6C0000091
S1130070B4C00000B2C00000B0C00000AEC00000B8
S1130080ACC00000AAC00000A8C000000AC2000062
S1130090A4C00000A2C00000A0C0000075C30000FE
S11300A09CC000009AC00000EFC2000096C000008F
S11300B094C0000092C0000090C000008EC00000F8
S11300C08CC000008AC0000088C0000086C0000008
S11300D084C0000082C0000080C000007EC0000018
S11300E07CC00000B601F001F001CC01F001F00188
S11300F0F001F001F001F001F001F001F001F00174
S1130100F001F001E701EC01C101DE01F001F001B1
S1130110AB01F001F001D70107634236B79BD8A7C2
S11301201A39685618AEBAAB558C1D3CB7CC576318
S1130130BD6DEDFD753EF6177231BF000000803FC6
S113014008000000BE922449123EABAAAA2ABECDE2
S1130150CCCC4C3E00000080BEABAAAAAA3E000054
S11301600000BF000000803F00000000000841784C
S1130170D3BB4387D1133D190E3CC3BD4282AD2B83
S11301803E68EC8276BED98FE1A93E4C80EFFFBE7B
S113019001C4FF7F3F000000000011241FBECFEF09
S11301A0D1E2DEBFCDBF00E00CBF12E0A0E0B2E0C0
S11301B0EEE3FAE100E00BBF02C007900D92A23F0C
S11301C0B107D9F724E0A2EFB2E001C01D92A9352E
S11301D0B207E1F7ACD50C941D0D12CF1092C000FC
S11301E0E1ECF0E080818069808380818860808395
S11301F0E2ECF0E080818660808380E190E090937F
S1130200C5008093C40008951F920F920FB60F92F9
S113021011240BB60F92CF92DF92EF92FF920F93BD
S11302201F932F933F934F935F936F937F938F937A
S11302309F93AF93BF93CF93DF93EF93FF938091FB
S1130240C60090ED980F9A30D8F49091FD0394373E
S113025021F09157923008F0EAC0209100023091C9
S113026001022F3F31050CF0E2C02F5F3F4F309366
S1130270010220930002F901E250FD4F8083D7C0B0
S11302809FE9980F9A3190F4853740F4813758F4F8
S1130290813649F0843609F0CAC005C0873719F0A1
S11302A08A3709F0C4C08093FD03C1C08D3009F0C2
S11302B0BEC0C090FD0384E7C81609F4A4C081E75A
S11302C0C81609F4AAC082E7C81609F492C0E12C42
S11302D0F12C2FC0C0E0D0E0D12CE12CF12CB801DE
S11302E06C1B7D0B072E000C880B990BB8D79B0158
S11302F0AC0160E070E080E291E40E94BB09C2506E
S1130300DD4FC881C053D0E020E030E040E05FE33F
S11303100FD772D7C69F9001C79F300DD69F300D5F
S11303201124E20EF31ED394CD2DD0E00C171D073B
S1130330B4F6CC2009F47BC08C2D90E0FC01E1568E
S1130340F109EA31F10508F04BC08827EE58FF4F58
S11303508F4F0C940D0C80914404813019F4109249
S113036044043EC081E0809344043AC08091450433
S11303708F3F19F41092450433C08FEF80934504E6
S11303802FC0809144048F3F19F41092440428C074
S11303908FEF8093440424C080914504813019F484
S11303A0109245041DC081E08093450419C0E2E425
S11303B0F4E0118210821382128212C085E6E816DC
S11303C0F10470F4F0924304E092420409C0F09204
S11303D04704E092460404C0F0924904E0924804C1
S11303E01092FD038FEF9FEF909301028093000220
S11303F01EC0009100021091010211230CF06ACF7B
S1130400E12CF12CE9CF009100021091010211239B
S11304100CF060CFE12CF12CD5CF009100021091AB
S1130420010211230CF056CFE12CF12CD0CFFF9117
S1130430EF91DF91CF91BF91AF919F918F917F9178
S11304406F915F914F913F912F911F910F91FF9069
S1130450EF90DF90CF900F900BBE0F900FBE0F90D8
S11304601F901895E1E9F0E0808181608083E1E7E5
S1130470F0E0808181608083109295001092940056
S113048010921C0410921D0410921E0410921F045A
S1130490109220041092210410922204109223043A
S11304A008951F920F920FB60F9211242F933F932A
S11304B04F935F936F937F938F939F93AF93209109
S11304C01C0430911D0440911E0450911F0460913E
S11304D02004709121048091220490912304A1E0CE
S11304E00E94BD0C20931C0430931D0440931E04F1
S11304F050931F046093200470932104809322047A
S113050090932304AF919F918F917F916F915F910D
S11305104F913F912F910F900FBE0F901F90189500
S11305204F925F926F927F928F929F92AF92BF92FF
S1130530CF92DF92EF92FF920F931F9380909400DB
S11305409090950020911C0430911D0440911E044C
S113055050911F0460912004709121048091220421
S113056090912304982C8824990C990C990C990C3B
S1130570092C000CAA08BB08BB202CF4EFEF8E0E4C
S11305809E1EA11CB11C2501772457FC7094672C76
S1130590BB0C8808982C54010CE00E947D0CF22FAF
S11305A0E32FC42ED52EE62EF72E082F192F242D37
S11305B0352D462D572D682D782D882D982DAF2E4D
S11305C0BE2E0E94B40C1F910F91FF90EF90DF900C
S11305D0CF90BF90AF909F908F907F906F905F90DF
S11305E04F9008951092B90088E48093B80085E094
S11305F08093BC000895E1EBF0E080818760808304
S1130600E0E7F0E08081816080831092B200089579
S113061083E88093A00084E18093A10082E080932A
S113062072001092A5001092A4001092A9001092DA
S1130630A8008FEF9FE19093A7008093A6000895F0
S1130640E4E2F4E011821082138212820895E2E45B
S1130650F4E0118210821282138284E293E1958382
S1130660848388E293E29783868388E893E1918781
S1130670808788EC90E0A0E0B0E082879387A4872D
S1130680B58781E0868708951F920F920FB60F9267
S113069011248F939F93809144048F3FD9F48091C8
S11306A0420490914304892BA9F08091A800909171
S11306B0A900892B59F48091A6009091A7009695E2
S11306C087959093A9008093A80004C01092A90074
S11306D01092A8009F918F910F900FBE0F901F90C2
S11306E01895A4E2B4E0E8E0F4E0818190E0982F6A
S11306F088272281820F911D11969C938E9383816A
S113070090E0982F88272481820F911D13969C9343
S11307108E931297858190E0982F88272681820FE7
S1130720911D15969C938E931497878190E0982F32
S113073088272085820F911D17969C938E93169778
S1130740818590E0982F88272285820F911D199624
S11307509C938E931897089580910804813009F42E
S1130760C0CF0895EEE2F4E082E494E01192E81739
S1130770F907E1F70895E8E0F4E08CE194E01192E0
S1130780E817F907E1F708951F920F920FB60F9239
S113079011240BB60F92AF92BF92CF92DF92EF92D9
S11307A0FF920F931F932F933F934F935F936F93F6
S11307B07F938F939F93AF93BF93CF93DF93EF93E5
S11307C0FF938091B9008035C1F08835A9F1803458
S11307D009F089C08091FE039091FF03892B21F0D9
S11307E085E88093BC007FC0C6DF1092F9021092A6
S11307F0F80285EC8093BC0076C08091F802909159
S1130800F9022091BB00FC01E85FFB4F2083823199
S113081091054CF401969093F9028093F80285ECCB
S11308208093BC0060C001969093F9028093F80213
S113083085E88093BC0057C08091FE039091FF032C
S1130840892B71F48091BB00E091F802F091F902D8
S1130850E85FFB4F808385E98093BC007DDF43C064
S11308602091BB00C2E4D4E030E040E050E060E01E
S113087070E080E090E003E00E947D0CA22EB32E95
S1130880C42ED52EE62EF72EE82F192F02E00E9453
S11308907D0C0E2F0E94C90CA22EB32EC42ED52E71
S11308A0E62EF72EE82F192F04E00E947D0C0E2F60
S11308B00E94C90CAA24AA94B12CC12CD12CE12CDD
S11308C0F12C00E010E0BDD72F87388B498B5A8B71
S11308D06B8B7C8B8D8B9E8B85E98093BC001092F7
S11308E0FF031092FE03FF91EF91DF91CF91BF912F
S11308F0AF919F918F917F916F915F914F913F91B4
S11309002F911F910F91FF90EF90DF90CF90BF90A8
S1130910AF900F900BBE0F900FBE0F901F901895C5
S1130920ECEBF0E080818823ECF70895CF93DF931C
S1130930CDB7DEB7CF5FD1090FB6F894DEBF0FBED7
S1130940CDBF9091B900987F891789F08AE092E031
S113095033D38091B900887F40E1BE016F5F7F4F40
S113096090E00E94EA0C28D385E392E025D3C1509D
S1130970DF4F0FB6F894DEBF0FBECDBFDF91CF912E
S11309800895AF92BF92CF92DF92FF920F931F937D
S1130990CF93DF93C82F8B010F2EFCEBCF2ED12CDE
S11309A0F02D85EAF6018083BBDF88E0BFDFCC0F42
S11309B0C093BB0085E8F6018083B2DF88E1B6DF2F
S11309C0E8010C5E1F4F0F2EFBEBAF2EB12CF02D68
S11309D00F2EF5E8FF2EF02D8991F5018083F601A5
S11309E0F0829EDF88E2A2DFC017D107A9F785E96C
S11309F08093BC00DF91CF911F910F91FF90DF9006
S1130A00CF90BF90AF9008950F93CF93ABDE81E06A
S1130A1080932E048091420490914304853691057D
S1130A2030F084E690E09093430480934204AEE275
S1130A30B4E0E2E4F4E0808111968C931197828112
S1130A408F5F12968C93129783818F5F13968C938A
S1130A5013978481958114969C93149715968C937F
S1130A6015978681978116969C93169717968C9363
S1130A7017978085918518969C93189719968C934F
S1130A801997828593851A969C931A971B968C9333
S1130A901B9786851C968C931C97C7853089418942
S1130AA05289638974892C2F8589968908E040D7F7
S1130AB01D962C931D971E96CC931E971F961C92E1
S1130AC01F9750961C92509751961C92519752968C
S1130AD01C92529753961C925397BD0183E051DFA9
S1130AE0CF910F910895EF92FF920F931F93CF939D
S1130AF0DF9381E090E09093FF038093FE03CCEBBF
S1130B00D0E005EA08830CDF88E010DF0F2EFBEB52
S1130B10EF2EF12CF02D80ECF701808315E818837B
S1130B20FFDE88E103DF81E0F70180831883F8DECC
S1130B3088E2FCDE0883F4DE80E1F8DE81ECF70174
S1130B4080831883EDDEDF91CF911F910F91FF9089
S1130B50EF9008950F931F93CF93C82F0CEB10E0E1
S1130B6085EAF8018083DCDE88E0E0DECC0FCF5F2D
S1130B70C093BB0085E8F8018083D2DECF911F913A
S1130B800F9108951F920F920FB60F9211240BB676
S1130B900F922F933F934F935F936F937F938F9312
S1130BA09F93AF93BF93EF93FF938091F60290913D
S1130BB0F7028430910511F427DF0DC088309105C8
S1130BC011F491DF08C00C9734F083E0C3DF109276
S1130BD0F7021092F6028091F6029091F7020196C4
S1130BE09093F7028093F602FF91EF91BF91AF913A
S1130BF09F918F917F916F915F914F913F912F9131
S1130C000F900BBE0F900FBE0F901F9018954F9230
S1130C105F926F927F928F929F92AF92BF92CF9288
S1130C20DF92EF92FF920F931F93399A579A809114
S1130C3045048F3FA9F54090F2025090F302609072
S1130C40F4027090F5026CDCF22FE32FC42ED52E43
S1130C50E62EF72E082F192F242D352D462D572D2E
S1130C6060E070E080E090E0AF2EBE2E9BD6C0F432
S1130C7098B182E0892788B953DC822E932EA42E62
S1130C80B52E80E2880E81EA981E87E0A81EB11C6A
S1130C908092F2029092F302A092F402B092F502D2
S1130CA0809145048130A1F54090F2025090F30206
S1130CB06090F4027090F50233DCF22FE32FC42E1F
S1130CC0D52EE62EF72E082F192F242D352D462D3F
S1130CD0572D60E070E080E090E0AF2EBE2E62D62B
S1130CE0B8F48BB180588BB91BDC822E932EA42EC2
S1130CF0B52E80E2880E81EA981E87E0A81EB11CFA
S1130D008092F2029092F302A092F402B092F50261
S1130D101F910F91FF90EF90DF90CF90BF90AF9015
S1130D209F908F907F906F905F904F9008957894EC
S1130D3099DB54DA57DC5FDC6BDC89DC81DC6CD159
S1130D404DDAC2E4D4E00F2EF8E22F2E312CF02D30
S1130D505EDF409004045090050460900604709097
S1130D600704DEDBF22FE32FC42ED52EE62EF72E5A
S1130D70082F192F242D352D462D572D60E070E0B6
S1130D8080E090E0AF2EBE2E0DD608F062C089E35D
S1130D9092E012D18CE392E00FD148D122D181E5C7
S1130DA092E00AD18F8598891CD188EFFDD085E621
S1130DB092E002D18881998114D180E792E0FCD03D
S1130DC08A81813021F480E892E0F6D00BC0811151
S1130DD004C08AE892E0F0D005C08F3F19F487E997
S1130DE092E0EAD08B818F3F21F483EA92E0E4D051
S1130DF00BC0811104C080EB92E0DED005C08130CD
S1130E0019F48FEB92E0D8D08DEC92E0D5D08C81A0
S1130E109D81E7D083EE92E0CFD08E819F81E1D097
S1130E207FDB822E932EA42EB52E80910602909104
S1130E300702A0910802B0910902880E991EAA1E09
S1130E40BB1E8092040490920504A0920604B09202
S1130E5007044090000450900104609002047090D4
S1130E6003045EDBF22FE32FC42ED52EE62EF72EDD
S1130E70082F192F242D352D462D572D60E070E0B5
S1130E8080E090E0AF2EBE2E8DD508F061CFCED09D
S1130E90813921E0920770F02091FC023091FD022B
S1130EA02130310539F42091FA023091FB023D835F
S1130EB02C830FC08D3221E0920758F02091FC0260
S1130EC03091FD022230310521F41092FD0210927E
S1130ED0FC029C012D5231402336310558F42881FF
S1130EE039812932310530F02A81213019F43982CF
S1130EF0288240C09C0126553109263D310568F4FD
S1130F00288139812A31310540F08A81813091F577
S1130F1089E190E0998388832DC08535910550F54A
S1130F208A81813039F58091FC029091FD0200970D
S1130F3099F48C819D819093FB028093FA0288E856
S1130F4093E19D838C831982188281E090E09093D1
S1130F50FD028093FC020EC0019761F48091FA02B5
S1130F609091FB029D838C8382E090E09093FD023C
S1130F708093FC02D5DA822E932EA42EB52E809176
S1130F80020290910302A0910402B0910502880E1E
S1130F90991EAA1EBB1E8092000490920104A09286
S1130FA00204B0920304D4CEE0ECF0E0908195FF0B
S1130FB0FDCF8093C60008950F931F93CF93FC0138
S1130FC08081882351F08F01C0E0EEDFCF5FF8010C
S1130FD0EC0FF11D80818111F8CFCF911F910F91FA
S1130FE00895CF93DF93CDB7DEB728970FB6F89463
S1130FF0DEBF0FBECDBF4AE0BE016F5F7F4FEAD4B4
S1131000CE010196D9DF28960FB6F894DEBF0FBE45
S1131010CDBFDF91CF910895E1E8F0E08081826057
S1131020808310928500109284000895CF93DF93FB
S11310301092850010928400AAE0B1E08C91826045
S11310408C93EBE0F1E080818D7F80832AE02A9508
S1131050F1F700C08081826080838AE18A95F1F78C
S113106000C080818D7F80838C918D7F8C9380E004
S113107090E0DC01E9E0F1E00AC00196A11DB11D98
S113108081342CE99207A105B10509F445C02081FA
S113109021FDF3CFE9E0F1E00DC0AC01BD014F5FEC
S11310A05F4F6F4F7F4F80349C49A105B105B9F163
S11310B0DB01CA01208121FFF0CFC0918400D091CF
S11310C08500E9E0F1E00DC0AC01BD014F5F5F4F69
S11310D06F4F7F4F80349C49A105B10519F1DB01A5
S11310E0CA01208121FDF0CF209184003091850038
S11310F0C901A0E0B0E09C01AD012C1B3D0B4109EE
S11311005109A3EBB6E091D320E23EE440E050E085
S113111062D3C901059708C080E090E005C080E073
S113112090E002C080E090E0DF91CF9108955058A4
S1131130BB27AA270ED0E5C0D6D030F0DBD020F0F4
S113114031F49F3F11F41EF4CBC00EF4E095E7FB9D
S1131150C1C0E92FE7D080F3BA1762077307840789
S1131160950718F071F49EF5FFC00EF4E0950B2E70
S1131170BA2FA02D0B01B90190010C01CA01A001E5
S11311801124FF27591B99F0593F50F4503E68F140
S11311901A16F040A22F232F342F4427585FF3CF81
S11311A0469537952795A795F0405395C9F77EF452
S11311B01F16BA0B620B730B840BBAF09150A1F09B
S11311C0FF0FBB1F661F771F881FC2F70EC0BA0F21
S11311D0621F731F841F48F4879577956795B795A9
S11311E0F7959E3F08F0B3CF9395880F08F09927A1
S11311F0EE0F97958795089504D06894B111B5C002
S1131200089598D088F09F5790F0B92F9927B75137
S1131210A0F0D1F0660F771F881F991F1AF0BA95B6
S1131220C9F712C0B13081F09FD0B1E008959CC0DD
S1131230672F782F8827B85F39F0B93FCCF38695AC
S113124077956795B395D9F73EF490958095709509
S113125061957F4F8F4F9F4F0895E89409C097FB86
S11312603EF490958095709561957F4F8F4F9F4F79
S11312709923A9F0F92F96E9BB279395F6958795BD
S113128077956795B795F111F8CFFAF4BB0F11F480
S113129060FF1BC06F5F7F4F8F4F9F4F16C0882327
S11312A011F096E911C0772321F09EE8872F762F5D
S11312B005C0662371F096E8862F70E060E02AF09E
S11312C09A95660F771F881FDAF7880F969587958A
S11312D097F9089597F99F6780E870E060E00895B2
S11312E09FEF80EC089500240A941616170618063A
S11312F00906089500240A94121613061406050616
S11313000895092E0394000C11F4882352F0BB0FA6
S113131040F4BF2B11F460FF04C06F5F7F4F8F4F09
S11313209F4F089557FD9058440F551F59F05F3F44
S113133071F04795880F97FB991F61F09F3F79F0F3
S113134087950895121613061406551FF2CF469575
S1131350F1DF08C0161617061806991FF1CF8695F7
S11313607105610508940895E894BB2766277727DB
S1131370CB0197F90895FA01EE0FFF1F309621056E
S1131380310599F16115710561F48038BFE39B075C
S113139049F168949038810561F08038BFEF9B076C
S11313A041F0992342F5FF3FE1053105210511F193
S11313B0E8940894E795D901AA2329F4AB2FBE2F0A
S11313C0F85FD0F310C0FF5F70F4A695E0F7F7392B
S11313D050F019F0FF3A38F49F779F930CD00F9098
S11313E007FC905808953EF07BCF60E070E080E801
S11313F09FE308954FE79F775F934F933F932F9316
S11314009ED02F913F914F915F910CD105C019F45B
S11314100EF060CFA9CF64CF8DDFC8F39638C0F744
S113142007F80F92E8942BE33AEA48EB5FE708D118
S11314300F920F920F924DB75EB70F92C0D0E8E1B2
S1131440F1E016D04F915F91EF91FF91E595EE1F7A
S1131450FF1F49F0FE57E0684427EE0F441FFA953A
S1131460E1F74195550B32D00F9007FE26C0089541
S1131470DF93CF931F930F93FF92EF92DF927B0141
S11314808C01689405C0DA2EEF01D8D0FE01E894EF
S1131490A5912591359145915591AEF3EF0159DE12
S11314A0FE019701A801DA9479F7DF90EF90FF909D
S11314B00F911F91CF91DF9108959B01AC0160E0E2
S11314C070E080E89FE311C105CF77C133DFE8F313
S11314D09923D9F3940F511DBBF39150504094F0CC
S11314E059F0882332F0660F771F881F91505040BF
S11314F0C1F79E3F510544F7880F911D9695879536
S113150097F908955F3FACF0983E9CF0BB27869511
S113151077956795B79508F4B1609395C1F7BB0FBC
S113152058F711F460FFE8CF6F5F7F4F8F4F9F4FE5
S1131530E3CF1BCF0EF041C1D3CE6894CBCEFADEFD
S1131540C8F39923D1F3C6F3DF93CF931F930F937B
S1131550FF92C92FDD2788232AF02197660F771F72
S1131560881FDAF720E030E040E85FEB9FE388393A
S113157020F0803E30F021968F77DADDE0E4F1E070
S113158003C0D6DDEDE6F1E073DF8B01BE01EC01B3
S1131590FB2E6F5771097595771F880B990B5FDECA
S11315A028E132E741E35FE349D0AF2D9801AE0172
S11315B0FF900F911F91CF91DF91CBDDA2CEFA0165
S11315C0DC01AA0FBB1F9B01AC01BF5728F42227E3
S11315D03327442750781FC0B75188F4AB2F002419
S11315E0469537952795011CA395D2F3002069F001
S11315F0220F331F441FB395DAF30DD098CD613019
S11316007105A0E88A07B94630F49B01AC0166274E
S1131610772788279078309621F02083318342837E
S1131620538308950BD06DCE5EDE28F063DE18F090
S1131630952309F04FCE54CE112497CE73DEA0F338
S1131640959FD1F3950F50E0551F629FF001729F53
S1131650BB27F00DB11D639FAA27F00DB11DAA1F72
S1131660649F6627B00DA11D661F829F2227B00DBF
S1131670A11D621F739FB00DA11D621F839FA00D4A
S1131680611D221F749F3327A00D611D231F849F9A
S1131690600D211D822F762F6A2F11249F575040F1
S11316A08AF0E1F088234AF0EE0FFF1FBB1F661F8C
S11316B0771F881F91505040A9F79E3F510570F045
S11316C009CE53CE5F3FECF3983EDCF386957795D5
S11316D06795B795F795E7959F5FC1F7FE2B880F40
S11316E0911D9695879597F908950CD00ACE02DE40
S11316F040F0F9DD30F021F45F3F19F0EBCD5111EA
S113170034CEEECD0FDE98F39923C9F35523B1F30C
S1131710951B550BBB27AA2762177307840738F05C
S11317209F5F5F4F220F331F441FAA1FA9F333D0BB
S11317300E2E3AF0E0E830D091505040E695001C6F
S1131740CAF729D0FE2F27D0660F771F881FBB1F2B
S1131750261737074807AB07B0E809F0BB0B802D05
S1131760BF01FF2793585F4F2AF09E3F510568F051
S1131770B1CDFBCD5F3FECF3983EDCF386957795D6
S11317806795B795F7959F5FC9F7880F911D969553
S1131790879597F90895E1E0660F771F881FBB1FAF
S11317A0621773078407BA0720F0621B730B840B5C
S11317B0BA0BEE1F88F7E09508959F3F31F09150E2
S11317C020F4879577956795B795880F911D969521
S11317D0879597F90895A1E21A2EAA1BBB1BFD0158
S11317E00DC0AA1FBB1FEE1FFF1FA217B307E407FC
S11317F0F50720F0A21BB30BE40BF50B661F771F54
S1131800881F991F1A9469F7609570958095909533
S11318109B01AC01BD01CF010895EE0FFF1F881F8E
S11318208BBF0790F691E02D1994C5D0A59F900D1C
S1131830B49F900DA49F800D911D11240895689468
S113184001C0E8948F929F92CF93DF9305D0DF91EC
S1131850CF919F908F90089588249924F401E401F6
S1131860B0E49F93AA279A158B049C04ED05FE050A
S1131870CF05D007A10798F4AD2FDC2FCF2FFE2F73
S1131880E92D982C892E982F872F762F652F542F8A
S1131890432F322F2227B85031F7BF9127C01B2E78
S11318A0BF91BB27220F331F441F551F661F771F8D
S11318B0881F991F881C991CEE1FFF1FCC1FDD1F5A
S11318C0AA1FBB1F8A149B04EC05FD05CE05DF058A
S11318D0A007B10748F08A189B08EC09FD09CE0956
S11318E0DF09A00BB10B21601A94E1F62EF49401E8
S11318F0AF01BE01CD01000C08950F93083090F0A4
S1131900982F872F762F652F542F432F322F22277E
S11319100850F4CF220F331F441F551F661F771F33
S1131920881F991F0A95B2F70F91089597FB10F835
S1131930169400080F93083098F00850232F342F82
S1131940452F562F672F782F892F902DF4CF05948C
S113195097958795779567955795479537952795E3
S11319600A95AAF70F9108952A0D3B1D4C1D5D1D84
S11319706E1D7F1D801F911F08950024A7FD0094F4
S11319802A0F301D401D501D601D701D801D901DAF
S113199008952A193B094C095D096E097F09800BDA
S11319A0910B08952A153B054C055D056E057F05D1
S11319B0800791070895A29FB001B39FC001A39F20
S11319C0700D811D1124911DB29F700D811D112474
S11319D0911D0895BB274A3031F4992322F4BDE2C6
S11319E0909581959F4F01C0BB27FB015527AA27DE
S11319F0880F991FAA1FA41710F0A41B8395505198
S1131A00B9F7A05DAA3308F0A95DA193009779F70F
S1131A10B111B1931192CB0100C0DC01FC01672F1D
S1131A2071917723E1F7329704C07C916D937083B1
S1111A306291AE17BF07C8F30895F894FFCF74
S1131A3EFFFFA086010090D003000A0A0D45525202
S1131A4E4F523A2057726F6E6720737461747573B8
S1131A5E2120436F646520726574726965766564CE
S1131A6E3A203078000A0A0D000C0D004469737494
S1131A7E616E636520746F206F626A6563743A20C9
S1131A8E006D6D0A0D436F6D7061737320416E6747
S1131A9E6C653A20000A0A0D53706565643A20009D
S1131AAE250A0A0D446972656374696F6E3A2000E3
S1131ABE466F72776172642C200053746174696F7F
S1131ACE6E6172792C20004261636B77617264736C
S1131ADE2C20007475726E696E67206C65667400D6
S1131AEE676F696E672073747261696768740074D6
S1131AFE75726E696E67207269676874000A0D41AB
S1131B0E6363656C65726174696F6E20726174656E
S1131B1E3A20000A0D5475726E20726174653A2073
S1051B2E0000B1
S9030000FC
